:10000000F87F002011040000414500004145000038
:1000100041450000414500004145000041450000C8
:1000200041450000414500004145000041450000B8
:1000300041450000414500004145000041450000A8
:100040004145000041450000414500004145000098
:100050004145000041450000414500004145000088
:100060004145000041450000414500004145000078
:100070004145000041450000414500004145000068
:100080004145000041450000414500004145000058
:100090004145000041450000414500004145000048
:1000A0004145000041450000414500004145000038
:1000B0004145000041450000414500004145000028
:1000C0004145000041450000414500004145000018
:1000D0004145000041450000414500004145000008
:1000E00041450000414500004145000041450000F8
:1000F00041450000414500004145000041450000E8
:1001000041450000414500004145000041450000D7
:1001100041450000414500004145000041450000C7
:1001200041450000414500004145000041450000B7
:1001300041450000414500004145000041450000A7
:100140004145000041450000414500004145000097
:100150004D04000061040000414500004D05000011
:100160004145000041450000414500004145000077
:100170004145000041450000414500004145000067
:100180004145000041450000414500004145000057
:10019000414500004145000041450000A504000024
:1001A0004145000041450000414500004145000037
:1001B0004145000041450000414500004145000027
:1001C0004145000041450000414500004145000017
:1001D0004145000041450000414500004145000007
:10040000FFFFFFFFFFFFFFFFFFFFFFFFFEFFFFFFFD
:1004100062B64FF000004FF000014FF000024FF0C5
:1004200000034FF000044FF000054FF000064FF0BE
:1004300000074FF000084FF000094FF0000A4FF09E
:10044000000B4FF0000C04F06BF9FEE7DFF8640AD4
:10045000006850F00100DFF85C1A08607047000087
:1004600080B572B6DFF8500A0168DFF8500A01F073
:1004700016F8DFF84C0A0168DFF8480A01F00FF8B7
:10048000DFF8340A00210160DFF8340A002101603E
:10049000DFF8340A006850F00100DFF82C1A086019
:1004A00062B601BD002006210800DFF8201A0968A5
:1004B00001228240114220D0DFF8101A096801227F
:1004C00012FA00F00843DFF8041A0860DFF8000AA7
:1004D00080680069C0F34010002807D0DFF8D80911
:1004E0000068401CDFF8D019086006E0DFF8C80992
:1004F0000068401EDFF8C01908600720DFF8CC193B
:1005000009680122824011421ED0DFF8C019096833
:10051000012212FA00F00843DFF8B0190860DFF892
:10052000B00980680069C00607D4DFF89409006844
:10053000401CDFF88C19086006E0DFF884090068C9
:10054000401EDFF87C1908607047000080B572B665
:10055000DFF880090068002805D0022800F0C88074
:10056000C0F08B80D0E1142301220621012001F08C
:10057000E6F880B2DFF860190968401ADFF85C1904
:100580000860DFF85C090068DFF8581909688842DC
:1005900007DADFF84C090068401CDFF844190860EE
:1005A0002CE0DFF844090068002827D1DFF8300983
:1005B0000021016001F071F90121DFF8300901F03B
:1005C00049F9DFF8280901F03FFADFF8240900684B
:1005D000012801D100F00EFDDFF81809006801289C
:1005E00003D1DFF8080901F009FADFF80C09006807
:1005F000012803D1DFF8F40801F011FADFF8FC0854
:100600000078212820D3DFF8F8080068DFF8F41814
:100610000968484342F2107190FBF1F0DFF8BC1812
:100620000968DFF8E4281268514342F2107291FB26
:10063000F2F10818DFF8D4180968401A212190FB5C
:10064000F1F0DFF8CC180860DFF8C0080068DFF8C8
:10065000C01809680818DFF8B4180860DFF8B40893
:100660000068DFF8AC180968401ADFF8A8180860BD
:10067000DFF860080121016046E114230122062110
:10068000012001F05CF880B2DFF88C180968401A8C
:10069000DFF888180860142301220721012001F0E7
:1006A0004EF880B2DFF878180968401ADFF874183D
:1006B0000860DFF868080068DFF86C1809684843CC
:1006C00042F2107190FBF1F0DFF858180968DFF87A
:1006D0005C281268514342F2107291FBF2F1401A09
:1006E000DFF84C180860DFF8EC07022101600BE12D
:1006F000DFF808080078212807D2DFF80008007822
:10070000401CDFF8F817087067E0DFF8F0070021F9
:100710000170DFF8A4070068DFF8A417096808185B
:10072000DFF810180860DFF810080068DFF890178D
:1007300009680818DFF880170968401ADFF8F81709
:1007400008600020DFF878170860DFF86C17086091
:10075000DFF8E8070068DFF8E81709680818DFF82D
:10076000D4170968401ADFF8DC170860DFF8D407EF
:100770000068DFF8D417096842F2107291FBF2F1B9
:100780004843DFF8C8170860DFF8B8070068DFF8EB
:10079000C017096842F2107291FBF2F14843DFF88A
:1007A000B4170860DFF8B0070068DFF8A817096819
:1007B0000818DFF8A4170860DFF890070068DFF872
:1007C000981709680818DFF894170968401A21215A
:1007D00090FBF1F0DFF888170860DFF88007006809
:1007E000DFF87C1709680818DFF870170860DFF871
:1007F0007407DFF8181709680160DFF86C07DFF885
:10080000141709680160DFF85C070068012809DB3C
:1008100000220721032001F04BFBDFF850070121E4
:10082000016012E001220721032001F041FBDFF803
:100830003C075FF0FF310160DFF8280700685FF0D8
:10084000FF314843DFF81C170860DFF81C07006819
:10085000012809DB00220921032001F029FBDFF830
:1008600010070121016012E001220921032001F09B
:100870001FFBDFF8FC065FF0FF310160DFF8E806E0
:1008800000685FF0FF314843DFF8DC160860DFF8EE
:10089000D4060068B0F5FA5F04DDDFF8C8064FF44F
:1008A000FA510160DFF8C0060068B0F5FA5F04DDB8
:1008B000DFF8B4064FF4FA510160DFF8B8060068BB
:1008C00000280ED1DFF89C0602680021012001F00B
:1008D000C9FCDFF8940602680121012001F0C2FC86
:1008E0000EE0DFF890060068012809D100220021FF
:1008F000012001F0B7FC00220121012001F0B2FC2F
:10090000DFF8D00500210160DFF86C060068401CAC
:10091000DFF864160860DFF860060068DFF85C1630
:100920000968884253D20621042001F006FB002802
:1009300003D1DFF84C06012101600821042001F0F9
:10094000FCFA00281BD1DFF83C060068002816D10D
:10095000DFF834060068401CDFF82C160860DFF86A
:100960002C060068DFF820160968884203DADFF8F1
:10097000180600210160DFF80C0601210160DFF894
:1009800004060068012806D1DFF804060068401C50
:10099000DFF8FC150860DFF8F8050068FA2807D1D1
:1009A000DFF8E00500210160DFF8E40500210160C7
:1009B000DFF8C4050068C821B0FBF1F201FB1200AA
:1009C00000285DD11B21042001F09FFA58E0DFF8D8
:1009D000A8050068DFF8A4150968884250D1DFF83F
:1009E000600500210160DFF84005DFF8A8150968FF
:1009F0000160DFF83805DFF8A01509680160DFF84D
:100A00001805DFF8981509680160DFF83C05DFF884
:100A1000901509680160DFF83805DFF88815096866
:100A20000160DFF8E004DFF8801509680160DFF895
:100A3000D804DFF8781509680160DFF89C04DFF856
:100A4000701509680160DFF86C05DFF86C1509683E
:100A50000160DFF86805DFF8681509680160DFF8F4
:100A60006405DFF8641509680160DFF86005DFF8E8
:100A700060150968016001221B21042001F018FAA9
:100A8000DFF8F4040068DFF84C150968DFF8EC249F
:100A900012685118DFF840251268DFF840351B68EE
:100AA00003FB0211884240F09680DFF8DC04006806
:100AB000DFF8281509688842C0F28D80DFF81C0530
:100AC0000068DFF81C1551F82000DFF87414086086
:100AD000DFF808050068DFF8BC1451F82000DFF8E3
:100AE00048140860DFF8F4040068DFF8AC1451F82B
:100AF0002000DFF838140860DFF8E0040068DFF851
:100B00009C1451F82000DFF810140860DFF8CC04C2
:100B10000068DFF88C1451F82000DFF82C1408600E
:100B2000DFF8B8040068DFF87C1451F82000DFF823
:100B300020140860DFF8A4040068DFF86C1451F892
:100B40002000DFF8C0130860DFF890040068DFF8C9
:100B50005C1451F82000DFF8B0130860DFF87C0463
:100B60000068DFF84C1451F82000DFF86C130860BF
:100B7000DFF868040068DFF8401451F82000DFF85F
:100B800034140860DFF854040068DFF8341451F8B6
:100B90002000DFF828140860DFF840040068DFF860
:100BA000281451F82000DFF81C140860DFF82C042A
:100BB0000068DFF81C1451F82000DFF810140860FA
:100BC000DFF818040068401CDFF810140860DFF834
:100BD000140401210160DFF80C04006801286DD1C4
:100BE000DFF894030068FA21B0FBF1F201FB120078
:100BF000002863D1DFF890030068DFF8E41351F8B0
:100C00002000CF490860DFF880030068DFF8841314
:100C100051F82000C4490860DFF86C030068DFF871
:100C2000781351F82000C1490860DFF85C030068C0
:100C3000DFF8681351F82000B7490860D24800680F
:100C4000DFF85C1351F82000BF490860CE48006807
:100C5000D44951F82000BE490860CB480068D24909
:100C600051F82000A7490860C7480068CF4951F8EB
:100C70002000A5490860C4480068CD4951F820000B
:100C800095490860C0480068CB4951F82000C9491F
:100C90000860BD480068CA4951F82000C74908608B
:100CA000B9480068C84951F82000C6490860B648EC
:100CB0000068C74951F82000C4490860B04800687E
:100CC000002850D1B048006800280FD10122182117
:100CD000042001F0EDF801221921042001F0E8F8C8
:100CE00000221A21042001F0E3F8ACE0A6480068D5
:100CF00001280FD100221821042001F0D9F8012287
:100D00001921042001F0D4F801221A21042001F055
:100D1000CFF898E09C48006802280FD101221821E2
:100D2000042001F0C5F800221921042001F0C0F8C8
:100D300001221A21042001F0BBF884E092480068E7
:100D4000032840F0808000221821042001F0B0F830
:100D500001221921042001F0ABF800221A210420FD
:100D600001F0A6F86FE08648006801286BD19D4825
:100D70000068002814D101221821042001F098F8FD
:100D800001221921042001F093F801221A210420E4
:100D900001F08EF801221B21042001F089F852E0B5
:100DA0009048006801284ED17748006800280FD18C
:100DB00001221821042001F07BF8012219210420CE
:100DC00001F076F800221A21042001F071F83AE0CF
:100DD0006D48006801280FD100221821042001F07D
:100DE00067F801221921042001F062F801221A217A
:100DF000042001F05DF826E06348006802280FD166
:100E000001221821042001F053F8002219210420A6
:100E100001F04EF801221A21042001F049F812E0F5
:100E20005948006803280ED100221821042001F03F
:100E30003FF801221921042001F03AF800221A217A
:100E4000042001F035F84C4800684C49096801F568
:100E50008C415031884214D31521012001F06DF8E6
:100E600001280ED11621012001F067F8002808D1D1
:100E70001721012001F061F8012802D15A4801210F
:100E8000016059480068012804D158480068401C96
:100E90005649086055480068B0F5966F02D135484C
:100EA000012101605248006850F00100504908607B
:100EB00062B601BD0C710340E887FF1F24460000A5
:100EC000EC87FF1F3C4600001C710340A0900440CB
:100ED0002484FF1F8886FF1F3086FF1F3486FF1F74
:100EE0003886FF1F5C85FF1FC486FF1FC886FF1F53
:100EF0000086FF1F0486FF1F0886FF1F0C88FF1F48
:100F0000CC87FF1F2886FF1F2C86FF1F4C86FF1FE4
:100F10008086FF1F5086FF1F1C86FF1F4086FF1F15
:100F2000F087FF1F3C86FF1F1486FF1F1886FF1FD8
:100F30005486FF1F6C86FF1F8486FF1F6085FF1F7E
:100F40007C86FF1F5886FF1F2086FF1F6486FF1FB9
:100F50002486FF1F6886FF1F7886FF1F7086FF1F8D
:100F60007486FF1F4486FF1F4886FF1F5C86FF1F95
:100F70006086FF1FA086FF1F8C86FF1F6485FF1FF2
:100F80000C86FF1F9086FF1F1086FF1F5085FF1FD6
:100F90009486FF1F6084FF1F7484FF1F8884FF1FD7
:100FA0009C84FF1FB084FF1FC484FF1FD884FF1FD1
:100FB000EC84FF1F6885FF1F1485FF1F6C85FF1FD2
:100FC0002885FF1F7085FF1F3C85FF1FB886FF1F08
:100FD0000085FF1F5885FF1F5485FF1F9886FF1F40
:100FE0004C84FF1FA886FF1F9C86FF1FA486FF1F3F
:100FF0003C71034080B500F04EFE01BD10B50C0001
:101000001168012902D0022904D009E0C0B2516858
:10101000884705E0916808709068401C9060FFE781
:101020002068401C206010BD30B41C000023002547
:101030000570401C002A19D0096800290AD1302106
:1010400001705B1C180030BC704730351100057012
:10105000401C5B1C0029F5D091FBF4F204FB121537
:10106000002DF2D5E94311F13105EFE709680029B8
:1010700008D1302101705B1CE4E7373511000570A1
:10108000401C5B1C0029DDD0B1FBF4F204FB1215FF
:101090000A2DF2D23035F1E7F8B504000D00160044
:1010A0001F0005E03A0031003020FFF7A7FF641C65
:1010B000AC42F7DBF1BDF8B504000D0016001F00CF
:1010C00005E03A0031002020FFF798FF641CAC4295
:1010D000F7DBF1BD2DE9F04F8DB0050016000020C3
:1010E00000900C0005E02A0000A91800FFF786FF19
:1010F000641C2378002B00F0CE81252B12D00A2B04
:1011000005D02A0000A91800FFF778FF09E02A009F
:1011100000A90D20FFF772FF2A0000A90A20FFF79F
:101120006DFFE5E70027002101E057F001070029E6
:101130001BD1641C207820280BD023280FD02B280B
:1011400004D02D28F1D0302806D00BE057F002074C
:10115000EDE757F00407EAE757F00807E7E757F02D
:101160001007E4E7641E0121E1E75FF000080021B9
:1011700004E00A2000FB0830B0F13008002908D153
:10118000641C2378180030380928F2D9641E012124
:10119000F4E7641C20782E280BD10021FFE70029FA
:1011A00008D1641C207830380928F8D9641E012140
:1011B000F5E7641E641C20784C2806D0682802D00D
:1011C0006C2801D002E002E001E000E0641E641C33
:1011D00023781800582878D0622800F0DA80632835
:1011E00000F02481642813D0692811D06E2800F003
:1011F0004D816F2800F0C280702800F0D5807328E0
:1012000000F01B81752800F0DA8078285DD06AE74D
:1012100030680390361D0A23012203A904A8FFF7B2
:1012200003FF824604A81AEB00090398002804D59E
:101230002D2002901AF1010A11E03800800704D530
:101240002B2002901AF1010A09E03800400704D56A
:10125000202002901AF1010A01E0002002905FF0C4
:10126000000B3800000711D50298002804D02A008E
:1012700000A90298FFF7C2FE5FF0010B2B0000AA45
:1012800041465046FFF708FFC24612E03800C0074B
:101290000FD42B0000AA41465046FFF70CFF0298DE
:1012A000002804D02A0000A90298FFF7A7FE5FF0EB
:1012B000010BBBF1000F07D10298002804D02A00CF
:1012C00000A90298FFF79AFEA3E030680190361D4E
:1012D0001023002201A904A8FFF7A6FE824604A855
:1012E0001AEB00095FF0000B3800000716D5380034
:1012F000C0060BD52A0000A93020FFF77FFE2A0088
:1013000000A97820FFF77AFE5FF0010B2B0000AAFE
:1013100041465046FFF7C0FEC2461CE03800C007F9
:1013200019D43800C00601D51AF1020A2B0000AA10
:1013300041465046FFF7BFFE3800C0060BD52A00D5
:1013400000A93020FFF75AFE2A0000A97820FFF7F5
:1013500055FE5FF0010B3800C0060ED5BBF1000F43
:101360000BD12A0000A93020FFF748FE2A0000A96F
:101370007820FFF743FE1AF1020A4AE03068019034
:10138000361D0823002201A904A8FFF74DFE82465E
:101390001FE030680190361D0223002201A904A835
:1013A000FFF742FE824614E030680190361D10239C
:1013B000002201A904A8FFF737FE824609E0306841
:1013C0000190361D0A23002201A904A8FFF72CFE74
:1013D000824604A81AEB00093800000707D52B0045
:1013E00000AA41465046FFF757FEC24611E03800BA
:1013F000C0070ED42B0000AA41465046FFF75BFE03
:1014000007E02A0000A999F80000FFF7F7FDB9F1FD
:10141000010999F800000028F3D1F80705D52B0041
:1014200000AA41465046FFF746FE61E63078361D79
:101430002A0000A9FFF7E2FD5AE6D6F80090361D13
:10144000B9F1000F21D0484600F068FF824638000D
:10145000C0070ED42B0000AA41465046FFF72BFED2
:1014600007E02A0000A999F80000FFF7C7FD19F16D
:10147000010999F800000028F3D1F80705D52B00E1
:1014800000AA41465046FFF716FE31E63068361D89
:10149000009901602CE600980DB0BDE8F08F0EB405
:1014A00000B584B0012100910449019105AA010011
:1014B00000A8FFF70FFE04B05DF810FB9547000091
:1014C00038B505000C00EDB2002D04D1B4F10800D0
:1014D000C0B20B280BD3EDB2012D03D1201FC0B237
:1014E0000E2804D32221DFF8040300F024FFEDB21C
:1014F000002D02D0012D79D0E6E0DFF8F40200687B
:1015000050F00060DFF8E8120860DFF8E8020068D9
:1015100030F09000DFF8DC120860DFF8D80200211C
:101520000160E4B22000083801280CD9801E01288F
:101530001BD9801E012829D9801E012836D9C01E3A
:10154000012843D951E0DFF8B002006850F4806010
:10155000DFF8A4120860E4B2A00000F1804010F5AA
:101560009420002140F8201CAEE0A34800684FF40E
:1015700000710843A0490860E4B2A00000F1804077
:1015800010F59220002140F80C1CEDE79A48006805
:1015900050F4806098490860E4B2A00000F18040F7
:1015A00010F59420002140F8281CDDE792480068DF
:1015B00050F4006090490860E4B2A00000F180405F
:1015C00010F59620002140F8381CCDE78A480068C5
:1015D00050F4005088490860E4B2A00000F1804057
:1015E00010F59A200021C161BEE76DE083480068D4
:1015F00050F00060814908607E48006830F4104077
:101600007C4908607B4800210160E4B22000001F93
:1016100003280BD9001F012818D9801E032825D9BB
:10162000001F012832D9C01E40D04CE0724800682B
:1016300050F4005070490860E4B2A00000F180400E
:1016400010F59A20002140F8101C3CE06A48006820
:1016500050F4806068490860E4B2A00000F1804066
:1016600010F59420002140F8201C2CE0624800680E
:1016700050F4806060490860E4B2A00000F180404E
:1016800010F59420002140F8181C1CE05A4800680E
:1016900050F4806058490860E4B2A00000F1804036
:1016A00010F59420002140F8181C0CE05248006806
:1016B0004FF40071084350490860E4B250480021DB
:1016C00040F82410FFE7FFE731BD70B504000D00BE
:1016D00016000020E4B2002C04D1B5F10800C0B21D
:1016E0000B280AD3E4B2012C03D1281FC0B20E2864
:1016F00003D387213D4800F01EFE3200D2B22900FC
:10170000C9B22000C0B200F050F8E4B23D4850F831
:10171000240000680006F8D5E4B23A4850F82400E6
:101720000069E4B2374951F82410096831F08001AA
:10173000E4B2344A52F82420116080B270BD2DE921
:10174000F84304000D0016001F005FF00008E4B22B
:10175000002C04D1B5F10800C0B20B280AD3E4B2C2
:10176000012C03D1281FC0B20E2803D3BE211F486D
:1017700000F0E1FD5FF000090BE03200D2B2290079
:10178000C9B22000C0B2FFF7A0FF18FA80F819F123
:1017900001095FFA89F9FFB2B945EED3FFB2B8FB90
:1017A000F7F8404680B2BDE8F28380B511F01F0122
:1017B00051F04001144B1972910011F00C0151F0DD
:1017C0005001114A1170104914224A700E4941F219
:1017D00034224A800C4945F278628A800A49C0B2B4
:1017E000084A52F8200000F011F801BD0441000041
:1017F0003C8004401880044038800440308004401D
:10180000009004401C84FF1FF085FF1F0A7882604F
:101810004A78C2604A8882618A88C2618A79026293
:10182000CA794262CA6802650A7A0260497A4160EE
:10183000704750F8041B61B150F8042BD30744BF24
:10184000A9F101039A18002342F8043B091FFAD1B9
:10185000EFE7704710B50400DFF8EC04016010E01A
:1018600000F015F8200000F030F800F042F82000F9
:1018700000F050F8DFF8D4040088401CDFF8CC14E6
:101880000880DFF8C40400680128E9D010BD80B5E5
:101890000921012000F039FB01BD80B5DFF8B0045B
:1018A0000068002810D1DFF8A80401210160DFF8EA
:1018B000A40401210160DFF89404002101800122C9
:1018C0000821012000F0F4FA01BD10B504000A213E
:1018D000012000F032FB012805D1DFF870040088F8
:1018E0005721015504E0DFF8640400886F21015599
:1018F00010BD80B5DFF854040088012809D1DFF855
:1019000050040068012804D100220821012000F0C1
:10191000CFFA01BD10B50400DFF830040088FF28BD
:1019200011D1DFF82C0400210160DFF82804002128
:101930000160200000F017F8200000F032F8DFF816
:1019400008040021016010BD10B504003CA1032073
:1019500000F0E0FDDFF80014032000F0DBFD2000C4
:1019600000F04CF810BD002105E089B20A18927809
:1019700089B20A54491C89B2FA29F6D3582180F851
:10198000FA10582180F8FB10582180F8FC105821DB
:1019900080F8FD10582180F8FE10582180F8FF10C3
:1019A000704710B400220023DFF8B01300240C604D
:1019B000DFF8AC1300240C60002105E089B20C5C58
:1019C000572C00D15B1C491C89B2FA2905D289B277
:1019D0000C5C6F2CF2D1521CF5E792B2FA2A04D1BA
:1019E000DFF878030121016006E09BB2FA2B03D1F6
:1019F000DFF86C030121016010BC704738B50400AA
:101A0000002505E0ADB2295D0EA0FFF748FD6D1C75
:101A1000ADB2FA2DF6D30AA0FFF741FD31BD38B5BE
:101A20000400002505E0ADB2295D06A0FFF737FDF3
:101A30002D1DADB2FA2DF6D301A0FFF730FD31BD5B
:101A40000A0000002563000010B582B00400DFF832
:101A5000140300210160DFF8100300210160DFF8AA
:101A60000C03F9210160DFF8080300210160DFF8B1
:101A700004030068009010E00098005D572809D129
:101A8000DFF8E80200990160DFF8D8020121016067
:101A9000012000900098401E009000980128EBDA89
:101AA000B448006800900EE00098005D572807D108
:101AB000AF4800990160AC4801210160F920009015
:101AC0000098401C00900098FA28EDDBA5480068BB
:101AD00001284DD1A4480068012849D1A3480068D5
:101AE000A34909680818022190FBF1F0A249086097
:101AF000A14800689D490968401AA04908609E48AD
:101B000000689B49096808189D4908609D480021A4
:101B100001609D48006801286FD1974800685038DF
:101B2000512803D399480121016006E0984801211A
:101B30000160984898490968016094480068012844
:101B400004D196480068401E954908609048006896
:101B5000012852D1904800688E490968401A4FF414
:101B6000FA71884249D38E488C490968016044E083
:101B70007C48006801281ED17B48006800281AD1E3
:101B80007A4800687E49096808187B4908607D48E2
:101B90000021016075480068F92802D176487C214F
:101BA000016079480068012827D17C480068401E00
:101BB0007B49086021E06B48006800281DD16A4815
:101BC0000068012819D16A4800686C490968401A00
:101BD000694908606B480021016065480068002879
:101BE00002D165487C21016067480068012804D162
:101BF0006A480068401E6A49086058480068012821
:101C00000AD15D487C2101605F480068012803D14A
:101C100063486249096801605148006801280BD196
:101C200055487C21016058480068012804D15B4870
:101C30000068401E5A4908604F48006859490968C1
:101C4000401A594908605848006800F091FC57490B
:101C5000096800F0A5FC00F00FFD00F035FD002242
:101C6000534B00F081FD00F051FE5249086052488C
:101C70004149096801603F483F4909680160200007
:101C800000F001F813BD3A48006838490968401A65
:101C90004A490860704780B5374801684848FFF7EF
:101CA000FEFB4848FFF7FBFB4748FFF74DFE474860
:101CB000FFF7F5FB2B480068012807D12A48006888
:101CC000012803D14248FFF7EAFB21E025480068DC
:101CD000012807D124480068002803D13D48FFF7B8
:101CE000DEFB15E01F480068002807D11E48006889
:101CF000012803D13848FFF7D2FB09E019480068F2
:101D0000194909680843002802D13448FFF7C7FB86
:101D10003348FFF7C4FB164801683248FFF7BFFBA2
:101D2000124801683048FFF7BAFB3048FFF7B7FBAD
:101D30001D4801682E48FFF7B2FB1E4801682D4878
:101D4000FFF7ADFB01BD0000C486FF1F0888FF1F21
:101D5000BC86FF1FC086FF1F34470000E087FF1FBF
:101D6000E487FF1FD087FF1FD487FF1F8085FF1FD9
:101D7000D887FF1F7885FF1F7485FF1F6885FF1FA9
:101D80006C85FF1F8486FF1F0C86FF1FB086FF1F18
:101D9000B486FF1FAC86FF1F8C86FF1F5085FF1F78
:101DA0001086FF1F7085FF1FC887FF1FB886FF1FA3
:101DB00000408F40CC87FF1F7C85FF1FDC87FF1F03
:101DC0008044000044470000C886FF1FD046000042
:101DD000BC430000A0440000C0440000E4460000F2
:101DE00014430000604500007C4500009845000059
:101DF000B4450000E0430000F8B504000D001600F3
:101E00001F00EDB2202D02D2FFB2022F03D32421F6
:101E1000534800F090FAEDB2E4B2524850F8240072
:101E2000F6B24FF48071314340F82510F00705D524
:101E3000F6B2032E02D0F6B2132E0DD1E4B24A4808
:101E400050F8240040690121A9408843E4B2464982
:101E500051F8241048612AE0E4B2434850F82400C5
:101E600040690121A9400843E4B23F4951F82410D8
:101E70004861FFB2012F0DD1E4B23B4850F8240075
:101E800000680121A9400843E4B2374951F8241001
:101E900008600CE0E4B2344850F8240000680121E6
:101EA000A9408843E4B2304951F824100860F1BDDC
:101EB00070B504000D001600EDB2202D02D2F6B26E
:101EC000022E03D34B21264800F035FAF6B2012E3C
:101ED0000DD1E4B2244850F8240000680121A94043
:101EE0000843E4B2204951F8241008600CE0E4B241
:101EF0001D4850F8240000680121A9408843E4B23D
:101F0000194951F82410086070BD38B504000D005F
:101F1000EDB2202D03D36021114800F00CFAE4B299
:101F2000114850F8240000680121A9404840E4B25B
:101F30000D4951F82410086031BD38B504000D007A
:101F4000EDB2202D03D37121054800F0F4F9E4B27D
:101F5000054850F824000069E84010F0010032BD47
:101F6000304000003884FF1F2484FF1F2DE9F0411A
:101F700004000D0016001F00DFF8580300684FF43E
:101F80007A7148435FEA5008E4B2002C0DD0E4B205
:101F9000012C02D0E4B2012C02D1EDB2022D04D307
:101FA0003821DFF8340300F0C6F95FEA5800B04288
:101FB00004D23921DFF8200300F0BDF95FEA1840B0
:101FC000B0FBF6F1002000E0401C89B251FA00F2AB
:101FD000012AF9DA38FA00F1B1FBF6F189B24A1CAC
:101FE00002FB07F242F21073B2FBF3F2E4B2002CF0
:101FF00005D0022C00F0B880C0F08980E1E0DFF865
:10200000DC321B6853F08073DFF8D0623360EDB2CE
:10201000002D0BD0022D25D016D3042D3ED02FD36A
:10202000062D57D048D3072D62D06FE0DFF8B032CD
:102030001B6853F40063DFF8A8623360DFF8A43252
:102040004FF480661E60BCE0DFF894321B6853F4E6
:102050000063DFF88C623360DFF88C324FF4806607
:102060001E60F0E7DFF878321B6853F40063DFF896
:1020700070623360DFF874324FF480661E60E2E70E
:10208000DFF85C321B6853F40063DFF8546233609E
:10209000DFF85C324FF480661E60D4E7DFF8403230
:1020A0001B6853F48053DFF838623360DFF8443242
:1020B0004FF480661E60C6E7DFF824321B6853F4D5
:1020C0008053DFF81C623360DFF82C324FF48066F7
:1020D0001E60B8E7DFF808321B6853F48053DFF85E
:1020E00000623360DFF814324FF480661E60AAE7A6
:1020F000DFF8EC311B6853F48053DFF8E4613360A0
:10210000DFF8FC314FF480661E609CE7A8E0DFF842
:10211000CC311B6853F00073DFF8C0613360EDB25F
:10212000002D02D0012D0FD01DE0DFF8B4311B6867
:102130004FF400763343DFF8A8613360DFF8C43131
:102140004FF440761E603CE0DFF894311B684FF49A
:1021500000763343DFF888613360DFF8AC314FF449
:1021600040761E60EFE77BE0DFF8A0311B6853F09C
:102170008073DFF898613360EDB2002D02D0012D3D
:102180000FD01DE0DFF858311B684FF40076334361
:10219000DFF84C613360DFF878314FF440761E6031
:1021A0000FE0DFF83C311B684FF400763343DFF873
:1021B00030613360DFF85C314FF440761E60EFE74A
:1021C0004EE0EDB2E4B2DFF8503153F8243013EBB7
:1021D000C503EDB2E4B2DFF8406156F8246016EBB7
:1021E000C506F66836F00406DE60EDB2E4B2DFF84C
:1021F000283153F8243013EBC5032826DE60E4B2FF
:10220000DFF8143153F82430C0B210F0070050F05A
:1022100028001860E4B2DFF8000150F82400002321
:10222000C364E4B2DFF8F00050F8240089B28160A2
:10223000E4B2DFF8E40050F824000021C164EDB2FC
:10224000E4B2DFF8D40050F8240010EBC50092B2DD
:102250000261E4B2DFF8C00050F8240000214160C0
:10226000BDE8F08170B504000D001600E4B2002C4A
:102270000ED0E4B2012C02D0E4B2012C02D1EDB2B6
:10228000022D05D340F27911DFF84C0000F053F82D
:1022900042F21170864205D34FF4BD71DFF8380069
:1022A00000F049F8E4B2DFF8700050F824008068CC
:1022B000401C00FB06F042F21071B0FBF1F0EDB2F1
:1022C000E4B2DFF8541051F8241011EBC501086195
:1022D00070BD00000488FF1FC04000003C80044027
:1022E0003880044004B0044008B004400CB00440FE
:1022F00010B0044010C0044014C0044018C0044092
:102300001CC00440209004402490044030800440CD
:10231000289004402C9004401084FF1F00210028C6
:1023200002D1002006E0491C0200501C1278002A4D
:10233000F9D10800704780B500F00EFB00F036FBC5
:10234000FCE7000038B504000D00E4B2002C08D012
:10235000022C24D014D3042C3FD02FD3052C4BD0E7
:1023600059E033217248FFF7E6FF3E217048FFF73E
:10237000E2FF7048006850F480606E4908604AE0EF
:102380006D484FF4407101606C484FF4407101603A
:102390006848006850F40060664908603BE068489F
:1023A0004FF44071016067484FF44071016061482B
:1023B000006850F480505F4908602CE062484FF498
:1023C0004071016061484FF44071016059480068F4
:1023D00050F40050574908601DE05D484FF44071CB
:1023E00001605C484FF4407101605B48006850F444
:1023F0008060594908600EE058484FF44071016010
:1024000057484FF4407101605348006850F4006031
:1024100051490860FFE7E4B2524850F82400C07800
:1024200010F0F300E4B24F4951F82410C870E4B240
:102430004C4850F8240000218170E4B2002C08D0F0
:102440000020E4B2012C04D050F00000C0B20028FB
:1024500005D0454800684FF47A71484304E043488A
:1024600000684FF47A7148432901B0FBF1F1E4B2FE
:102470003C4A52F82420127812F0E00289B20B0A8A
:1024800013F01F031A43E4B2364B53F824301A708A
:10249000E4B2344A52F82420517040012A01B0FBC2
:1024A000F2F089B2B0EB4110E4B22E4951F8241099
:1024B000897A11F0E002E4B22A4951F8241010F0B0
:1024C0001F0010438872E4B2264850F82400C078F8
:1024D00050F00C00E4B2234951F82410C87031BD0B
:1024E000C0B2204951F8201009798906F8D5C0B248
:1024F0001C4951F82000C0797047C0B2194A52F8FF
:10250000202012791206F8D5C0B2164A52F82000DF
:10251000C171704738B504000D0005E0297820002E
:10252000C0B2FFF7EAFF6D1C28780028F6D131BD54
:1025300078400000348004400CB0044010B00440E7
:102540000CC0044008C0044014D0044010D0044023
:1025500064D0044060D004402880044024D004406B
:1025600020D004408C85FF1FFC87FF1F0488FF1FBD
:10257000002840F10780F446404200F003F850F094
:10258000004060470AD0B0FA80F18840D1F19D0147
:10259000C905020672F1004241EB102070470000AD
:1025A000FF2212EAD05C1DBF12EAD1539445934238
:1025B0002BE09C44D30780EA01021A4043EA002042
:1025C00043EA0121A1FB0030410038BF40007CF10B
:1025D0007F010BDBFE294ADA5B0842EAC15153EA6C
:1025E000006373F1004C51EB10207047D1F1080CDF
:1025F000DCF120012FDB5B0810FA01F10B4373F1D2
:10260000004120FA0CF05041704794451CBF02EA8B
:10261000D153934280EA010202F000421DD04000F3
:1026200019D0490017D05BB9634514D00902B1FA3B
:1026300081F39940BCEB030CC00140F00040C1E7BE
:102640000002B0FA80FC10FA0CF0B3EB0C0CC901DC
:1026500041F00041B6E71000704740000AD0490041
:1026600008D010F1807F94BF11F1807F02E042F02A
:10267000FF407047D04370475FF0FF0C1CEAD05119
:1026800014BF614506E0C110400721F0E04101F1AF
:102690006051704779B900F0004100020AD0B0FAE9
:1026A00080FC00FA0CF001F16051A1EB0C5101EB40
:1026B000D0214005704741020CBF40F4E0016FF0AB
:1026C000000100207047000013B5DDE90001C1F3EF
:1026D0000A5240F2FF74A24208D0002A04BF090344
:1026E00050EA11300ED1DDE900011CBD090350EAAA
:1026F0001130F8D101980028174801D517491CBDA1
:1027000017491CBDDDE900010022002300F07EF91D
:1027100007D2DDE9000181F00041CDE90001082484
:1027200000E00024DDE9000101220E4B00F086F9F3
:1027300009D800201946DDE9002300F097F9CDE91A
:10274000000184F002042246DDE9000102B0BDE888
:10275000104000F0B1BA00BF182D4454FB21F9BF5E
:10276000FB21F93F0000F03FB0B581EA030C0CF00B
:10277000004C40F2FF7515EA11541DBF15EA1357BE
:10278000AC42AF4239E0E41923EA455343F48013E5
:10279000C90241F0004141EA505EC7021100A7FBA7
:1027A000020200284FF00000EEFB01204FF0000174
:1027B000E3FB072118BF42F0010240180021494104
:1027C000E3FB0E01A4F580640F0302D252004041E6
:1027D000494154F101046CDD470872F1004250F1A7
:1027E000000051EB0451A1F580115CBF41EA0C01DE
:1027F000B0BD4CEA05510020B0BD05EA1357AC420C
:1028000014BFAF4241E050EA410E1CBF52EA430EF2
:1028100002E061460020B0BD24423C441BD15FEA87
:10282000070EF6D0090302BF01460020AEF1140ED8
:10283000B1FA81F7AEEB070401FA07FE0C37C7F1D6
:10284000200100FA07F7C8404EEA000E23EA45537C
:1028500043F48013A2E733F00043B3FA83F704BFD5
:10286000B2FA82FE77440B3FE41BB7F1200E2FBF74
:1028700002FA0EF3BB40C7F1200E22FA0EFE38BF5B
:1028800043EA0E03BA40641C82E750EA410E14BFCB
:1028900052EA430E6FF000014FF4001717EB430F9D
:1028A0008ABF194617EB410FB5E74CEA05510020E6
:1028B000B0BDD4F10104B4F120070FDAC4F1200750
:1028C000520828BF42F0010210FA07F501FA07F793
:1028D000E1BF2A43E0403843E1400FE0352C98DC6B
:1028E000C7F1200452EA400220FA07F218BF42F072
:1028F000010231FA07F0A1400A43002172F10042BF
:1029000050F1000051EB0C01B0BD0000F446400D49
:1029100040EAC120490006D200F00EF8004248BF4C
:102920006FF00040604700F007F84FF00041884228
:102930008CBF08464042604740F00040490DA1F579
:102940008061491C05D4D1F11F0154BFC840C01794
:1029500070474FF00000704780B501230122182115
:102960000420FFF749FA0123012219210420FFF76F
:1029700043FA012301221A210420FFF73DFA012323
:1029800001221B210420FFF737FA01BD1E4A1269FC
:102990001268012383409A43C9B211F0010111FA70
:1029A00000F01043184909690860704710B5012309
:1029B000012218210420FFF71FFA01230122192107
:1029C0000420FFF719FA012301221A210420FFF73E
:1029D00013FA012301221B210420FFF70DFA18240A
:1029E0000DE000212000C0B2FFF7D0FF642000F00E
:1029F0005FFA01212000C0B2FFF7C8FF641CE4B2F7
:102A00001C2CEED310BD00002484FF1F4FF4001CCB
:102A10001CEB410F94BF1CEB430F09E041EA030C90
:102A200050EA4C0C52EA0C0C03D2994208BF904277
:102A3000704714BF8B428242704700004FF4001C65
:102A40001CEB410F94BF1CEB430F09E041EA030C60
:102A500050EA4C0C52EA0C0C03D28B4208BF824263
:102A6000704714BF9942904270470000F0B540F2A1
:102A7000FF7581EA030C0CF0004C15EA11541DBFE0
:102A800015EA1357AC42AF42E5E0BC41C1F3130174
:102A9000C3F31303801A994143F4801304D2641ED4
:102AA0004000494180185941C90241EA5051B1FBE7
:102AB000F3F603FB1611A2FB0675D7EBC020A94164
:102AC00002D2761E80185941C90241EA5051B1FB29
:102AD000F3FE03FB1E11A2FB0E75D7EBC020A9412C
:102AE00003D2AEF1010E80185941890241EA90519A
:102AF000760546EA8E2EB1FBF3F603FB1611A2FB18
:102B00000675D7EB8020A94102D2761E8018594164
:102B1000C90241EA50514EEA060EB1FBF3F603FB3F
:102B20001611A2FB0675D7EBC020A94102D2761E72
:102B300080185941C90241EA5051B1FBF3F703FB38
:102B40001711A2FB0735D3EBC020A94167F100079D
:102B50000CBF004247F0010766F3D5274FEA1E314C
:102B6000B80814F5806412DDBD0775F1004250EB22
:102B70000E5051EB045111F5801F5CBF41EA0C016E
:102B8000F0BD4CF07F6141F0E0410020F0BDBD0799
:102B90006D0840EA0E5041F48011D4F10104B4F103
:102BA00020060ADAC4F120060200E04001FA06F32A
:102BB000E1401843B24015430EE0342C13DCC6F15B
:102BC000200445EA40056D0820FA06F2154321FA73
:102BD00006F0A1400D43002175F1004250F10000C4
:102BE00051EB0C01F0BD00205FEA0C01F0BDCFB944
:102BF00092185B41B3FA83F704BFB2FA82F6BF19A9
:102C00000B3FB7F120062FBF02FA06F3BB40C7F116
:102C1000200622FA06F638BF3343BA401CB1E41945
:102C2000641E33E77F4231F00041B1FA81F404BF02
:102C3000B0FA80F6A4190B3CB4F120062FBF00FABD
:102C400006F1A140C4F1200620FA06F638BF314350
:102C5000A0403C1B1AE7AC421ABF05EA1357AF422B
:102C600012E050EA41061CBF52EA4306BFE750EAB1
:102C70004107304661461CBF41EA0551F0BD52EAAA
:102C8000430C08BFC143F0BD00204FF4001616EB03
:102C9000410F98BF16EB430F08BF16EB410F24BF3F
:102CA000C14305E016EB430F0CBF61464CEA0551EA
:102CB000F0BD0000000000002DE9FC4D04460D466B
:102CC0001646554A554BFFF7B9FE1CD8544FDFF84E
:102CD00054813A464346FFF747FD0022524B00F02D
:102CE000F7F882468B4622462B463846414600F08E
:102CF000EFF802460B4650465946FFF7B7FE04462A
:102D00000D4646F00106204629460022474BFFF7B4
:102D10007DFE05D301224FF07953FFF78FFE5DD87A
:102D200022462B46FFF720FD82468B4652465B46E5
:102D300020462946FFF718FD074688463C483D498E
:102D400052465B46FFF710FD3B4A3C4B00F0C0F893
:102D500052465B46FFF708FD394A3A4B00F0B8F897
:102D60003A464346FFF700FD02460B4620462946F9
:102D700000F0AEF804460D463348344952465B46EF
:102D8000FFF7F2FC02460B463148324900F0A0F84A
:102D900052465B46FFF7E8FC02460B462E482F4999
:102DA00000F096F852465B46FFF7DEFC02460B4603
:102DB0002B482C4900F08CF802460B4650465946E9
:102DC000FFF7D2FC0022284B00F082F802460B46A7
:102DD00020462946FFF74AFE04460D46B00748BF85
:102DE00085F0004516F007020BD0204629460FF269
:102DF000800303EBC204D4E9002300F069F8044621
:102E00000D46300748BF85F00045CDE90045DDE9B6
:102E10000001BDE8FC8D000057CD9E5E1426D13F19
:102E2000AA4C58E87AB6FB3F0000F0BF000040BE55
:102E3000845D57134B57B03FB2934C19ED5EE43F9E
:102E4000BEDE02B90240F83FDE39028FC7C0743FD0
:102E50008AAB1283000CC83F24D7E508B6D8F03FF0
:102E60000F34580E5895FD3F0000F03F0000000061
:102E7000000000000000000066732D3852C1E03FE2
:102E8000182D4454FB21F93F66732D3852C1F03F91
:102E9000182D4454FB21F93F66732D3852C1004070
:102EA000182D4454FB2109403FD038C6A6F10440F8
:102EB000002104E000BF521E002AFBD1491C8142C0
:102EC00002D2024A1268F7E7704700000488FF1F29
:102ED00070B44FF0004591EA030C44BF6B4000F022
:102EE0006BB800BF841A71EB030603D2001BB1411B
:102EF000121973414FF4001C1CEB410F34BF7CEBE3
:102F0000430443E00C0DA4EB1356352E50DC45EA88
:102F1000C323DB0A45EAC121C912B6F120050DDD44
:102F200063FA05F6EB4086EA0305124218BF45F046
:102F30000105C01851F100010CD213E062FA06F548
:102F4000F2405540F3415A40B340F3405A40801894
:102F5000594107D349085FEA30005FEA350528BFC9
:102F600045F0010501F58011420875F1004250F16C
:102F7000000041EB045170BC4FF4001C1CEB410FEE
:102F800038BF70470020090D090570471CEB410F41
:102F900010D252EA43060BD0BCEB410F05D80C0D02
:102FA000AB43661E342EB5DD02E0AB4380185941B9
:102FB00070BC704770BC7047841A71EB030604D272
:102FC0006E40001BB141121973414FF4001C1CEB01
:102FD000410F34BF7CEB430684E00C0DA4EB135689
:102FE000362E7DDC012E43DC45EAC32343EA5253EF
:102FF00012BFD20292025B08240545EAC12141EAD0
:103000005051D2EBC020994125D407D1B0FA80F6B7
:1030100010FA06F164D00020203608E0B1FA81F6FB
:10302000B140C6F1200220FA02F21143B0404FEA4B
:10303000F474B4EB465434F001064FEA74040AD831
:10304000D6F50016760D04F00044F04061FA06F261
:103050005040F1404840C00A40EA415021F0004150
:1030600028BF5FEA500550F1000044EBD12137E062
:1030700045EAC323DB0A45EAC121C90AB6F12005A6
:103080000EDD42EA0242120CC5F1200603FA06F6F2
:10309000EB4042EA06056D42984161F100010DE006
:1030A00062FA06F5F240554063FA06FC82EA0C0229
:1030B000F3405A406D42904161EB030111F4801FCF
:1030C00005D1641E620502D06D004041494121F4E2
:1030D0008011430875F1004350F1000041EB0451A9
:1030E00070BC70471CEB410F15D223F0004352EA2D
:1030F00043060BD04FEA4C0CBCEB410F04D80C0D2F
:10310000661E342EB7DDEBE7801A994150EA41067E
:1031100008BF0021E4E708BF1CEB430F28BF6FF096
:103120000001DDE780B55FF4E1310320FFF70AF924
:103130000023002206210420FEF75EFECE48FEF7A3
:10314000AEF904E0CD480178CD48FEF7A8F9CD48A6
:10315000FEF7A5F9CC48FEF7A2F9CC48FEF79FF997
:10316000CB48FEF79CF9CB48FEF799F9CA48FEF721
:1031700096F9CA48FEF793F9C948FEF790F94FF45B
:103180009670FFF795FE06210420FEF7D6FE002874
:103190004FD105210120FEF793F907210120FEF709
:1031A0008FF9C048FEF77BF9002301221821042083
:1031B000FEF722FE0023012219210420FEF71CFE47
:1031C000002301221A210420FEF716FE002301220B
:1031D0001B210420FEF710FE40F6B830FFF768FE12
:1031E0001023012205210120FEF7A9FAAE4908604B
:1031F0001023012207210120FEF7A1FAAB49086044
:10320000A948006800F0F4F9A848006800F00CFA3A
:1032100018210420FEF779FE19210420FEF775FE1F
:103220001A210420FEF771FE1B210420FEF76DFE1B
:10323000FEE79248372101709048007830280ED080
:1032400031281FD032284CD0332854D0342879D09C
:10325000362800F09480372800F0CD8072E70E21E8
:103260000020FEF72DF94FF4FA70FFF721FE03223C
:103270000E210020FEF729FA010089B27DA0FEF799
:103280000EF9F0E78A490320FFF744F906210120EF
:10329000FEF716F907210120FEF712F90E21002092
:1032A000FEF70EF904210120FEF70AF90A23012294
:1032B0000E210020FEF743FA7E4908607E48FEF7A3
:1032C000EEF80823012206210120FEF738FA80B229
:1032D000B0F56B7167A0FEF7E2F83220FFF7E8FD6A
:1032E000EFE776490320FFF715F900F005F972487A
:1032F000FEF7D5F8FEE772490320FFF70BF900F05F
:10330000C5F97048FEF7CBF86F48FEF7C8F840F6ED
:10331000354000F06DF96D48FEF7C1F840F2FB3022
:1033200000F082F96A48FEF7BAF800F071F901007E
:103330006848FEF7B4F800F087F901006648FEF728
:10334000AEF8FEE765490320FFF7E4F872B689227C
:103350000621002000F066FA89220721002000F0F3
:1033600061FA5F4800684FF4FA7101FB00F1012037
:1033700000F08CFA62B65048FEF791F8FEE7594922
:103380000320FFF7C7F800F0FFF84B48FEF787F877
:103390004FF47A70FFF78CFD09E001220921032028
:1033A000FEF786FD012207210320FEF781FD4FF481
:1033B000FA6200210120FEF755FF4FF4FA62012165
:1033C0000120FEF74FFF4848FEF769F80320FFF79A
:1033D00087F8303845490880444800880028DCD107
:1033E000002209210320FEF763FD002201210320B2
:1033F000FEF75EFDDBE73E48FEF751F806210120AF
:10340000FEF75EF807210120FEF75AF80E21002092
:10341000FEF756F805210120FEF752F800F0F8F803
:103420002149086000F010F92049086000F0ACF86C
:10343000002209210320FEF73BFD00220721032083
:10344000FEF736FD40F6B83200210120FEF70AFFF4
:1034500040F6B83201210120FEF704FF00F04CF8DD
:103460001F480168032000F011FA2248FEF717F800
:10347000FEE700000A2564008C4100000D88FF1F54
:1034800048410000CC4100007C420000544600004E
:103490005447000064470000F84600006C460000F6
:1034A0000C470000883F0000F487FF1FF087FF1FD4
:1034B000B0420000F887FF1F04440000E044000011
:1034C0000045000084460000284400004C440000F1
:1034D000D0450000744700008447000020450000EC
:1034E0000488FF1F6C430000EC4500000A88FF1FA2
:1034F000944300000846000080B572B600F006F85C
:103500000A21002000F0C2F962B601BD80B5012396
:10351000012208210120FEF76FFC0123012209216D
:103520000120FEF769FC012300220A210120FEF799
:1035300063FC0023002208210420FEF75DFC002329
:10354000002209210420FEF757FCFFF705FA00F0DE
:1035500006F800221A210420FEF7AAFC01BD80B55E
:103560000123012215210120FEF746FC012301223F
:1035700016210120FEF740FC012300221721012023
:10358000FEF73AFC01BD000080B5002342F2107244
:1035900000210120FEF7EAFC002342F21072012113
:1035A0000120FEF7E3FC0023012209210320FEF79E
:1035B00023FC0023012207210320FEF71DFC012329
:1035C000032204210220FEF717FC01230322052118
:1035D0000220FEF711FC72B689220621002000F0BD
:1035E00021F989220721002000F01CF962B601BDF3
:1035F0001CB50400642000F057F800A9200000F07A
:103600002FF800AB06220021642000F0A2F813BDC1
:1036100000B583B000AB06220021642000F083F8DF
:1036200000A800F025F80EBD1CB50400652000F0D0
:103630003BF800A9200000F013F800AB062200219F
:10364000652000F086F813BD00B583B000AB0622FC
:103650000021652000F067F800A800F009F80EBD11
:10366000020E0A70020C4A70020A8A70C870704713
:103670000021027811EB0261427811EB024182785D
:1036800011EB0221C0780918080070475B480068F8
:1036900050F4002059490860594800780006FBD5CD
:1036A000574830210170704780B580B24FF40061F7
:1036B000484300905348092101709DF80200524987
:1036C00008709DF801005149087051489DF800109C
:1036D000017000F080F8012801D1012022E000985B
:1036E000B0F5006F1DD847480621017046480021FB
:1036F000017046480421017045480C21017045487D
:10370000FF2101704448FF2101704448FF210170EE
:103710004348FE21017000F05EF8012801D102202B
:1037200000E0002002BD30B4002480B24FF40065F8
:10373000684310FA81F0040003E020781870641CDC
:103740005B1C1000421E80B20028F6D1012030BC64
:10375000704770B582B014001D0089B2042291FB3D
:10376000F2F303FB1213002B01D0012032E0254AB3
:103770000623137080B24FF40062504310FA81F0B8
:103780000090002604E0361D0098001D00902D1DBD
:10379000A4B2A6421DD29DF802001B4908709DF8F4
:1037A00001001A4908701A489DF800100170E87865
:1037B00018490870A878184908706878174908707F
:1037C00017482978017000F006F80128DBD10220A3
:1037D00000E0002076BD0A483021017008488021B1
:1037E0000170074800780006FBD5054800783121B4
:1037F000084201D0012000E00020704704F00140A1
:10380000000002400700024006000240050002409E
:10381000040002400B0002400A000240090002407E
:103820000800024010B5164B1B684FF4007484402A
:103830002343134C2360C9B2C0B2124B53F820305B
:10384000D2B2140414F47024D2B2D209D2B22243F8
:1038500052F4817243F82120C0B20B4A52F8202062
:103860005269012313FA01F132EA0101C0B2064A9A
:1038700052F820205161C0B2573000F03EF810BD20
:10388000388004403884FF1F2484FF1F80B5164A07
:10389000126852F40002144B1A60144A126892081B
:1038A0009200124B1A60C0B20201114BD150C0B24B
:1038B0000F4911EB0011C96851F00101C0B20C4A67
:1038C00012EB0012D160C0B2094911EB00118968F6
:1038D00051F00301C0B2064A12EB00129160C0B26F
:1038E000443000F00AF801BD3C8004400070034001
:1038F0000071034025490860704710B504005C2C36
:1039000002DB2348FDF7CBFD202094FBF0F00028DC
:1039100003D0022827D013D337E00120202194FBC5
:10392000F1F202FB114290401A4908600120202167
:1039300094FBF1F202FB114290401749086024E029
:103940000120202194FBF1F202FB11429040134927
:1039500008600120202194FBF1F202FB114290400B
:103960000F49086011E00120202194FBF1F202FBD5
:10397000114290400B4908600120202194FBF1F294
:1039800002FB114290400849086010BD08ED00E0BC
:103990000C42000080E200E000E100E084E200E090
:1039A00004E100E088E200E008E100E0DFF800F078
:1039B000A585FF1F10B5C0B2002800F01481C0B269
:1039C000010030291ED032292CD0602931D0642941
:1039D00036D06E293BD0782940D07D2945D0822928
:1039E0004AD08C294FD0962954D0A02959D0AA2941
:1039F0005ED0B42963D0C82968D0E1296DD0FA29F6
:103A000072D078E0A64918220A70A54900224A70AF
:103A1000A34900228A70C0B2652870D2A049002252
:103A2000CA708CE09E4918220A709D4901224A7092
:103A3000EEE79B4918220A70994918224A70E7E775
:103A4000974918220A7096491A224A70E0E7944969
:103A500018220A7092491F224A70D9E7904913220E
:103A60000A708F4918224A70D2E78D4913220A70D2
:103A70008B491A224A70CBE7894913220A70884978
:103A80001C224A70C4E786490E220A708449122219
:103A90004A70BDE782490E220A70814915224A7098
:103AA000B6E77F490E220A707D4918224A70AFE7B7
:103AB0007B490E220A707A491B224A70A8E778498E
:103AC0000E220A7076491E224A70A1E774490C2220
:103AD0000A7073491C224A709AE771490B220A70D6
:103AE0006F491E224A7093E76D490A220A706C4999
:103AF0001F224A708CE76420FFF75CFFCEE0C0B263
:103B0000C92803D266490122CA7018E00100C9B26F
:103B100040F22D1289B2914203D261490222CA7049
:103B20000DE00100C9B240F2911289B2914203D274
:103B30005B490322CA7002E059490F22CA705849F2
:103B4000574AD2780A71C0B21F2803D254480021C4
:103B5000417148E0C0B23D2803D251480121417172
:103B600041E0C0B25B2803D24D48022141713AE0E6
:103B7000C0B2792803D24A480321417133E0C0B270
:103B8000972803D24648042141712CE0C0B2B528E1
:103B900003D243480521417125E0C0B2D32803D2A6
:103BA0003F48062141711EE0C0B2F12803D23C48D3
:103BB0000721417117E00100C9B240F20F1289B22A
:103BC000914203D23648082141710CE0C0B240F264
:103BD0002D1180B2884203D231480921417102E09F
:103BE0002F480F2141712E484078183080B2322181
:103BF00048432B490978491C89B290FBF1F42948C4
:103C0000002101702848006850F080502649086063
:103C10002648007850F080002449087024489821F4
:103C2000017024480078C006FBD422480078C0F315
:103C30008100C0B20228F8D11948007810F01F00A6
:103C40001D4908701D48002101701548437914482A
:103C500002791348C17812488078FFF7A7FE104810
:103C6000407810F01F0050F04000144908701148CF
:103C700000788006FBD50F4800784006FBD50C483D
:103C8000007810F03F000A4908700A480078C0F335
:103C90008100C0B20328F8D12000C0B210BD00BF1F
:103CA0008485FF1F014006403480044008C007405F
:103CB00000400640064006400440064005400640DD
:103CC000008003400090034000800B4000B00340A0
:103CD00000B00B4000F00F4040F00F4080F00F406C
:103CE000C0F00F4000F10F400090044000A00440DD
:103CF00000B0044000C0044000D004402C0100008B
:103D00005802000084030000B0040000DC0500003D
:103D10009AD82400906F28008894290042702A00C5
:103D2000000000005883010028A4010078D10100A0
:103D30003ED3010000000000080500000805000057
:103D400008050000080500000000000028880400A5
:103D50002888040028880400288804000000000047
:103D600008CF000008CF000008CF000008CF0000F7
:103D700000000000F8240100F824010050C30000F6
:103D8000187900000000000000000000F47E000030
:103D900044480000F22B000000000000C9040000AD
:103DA000C9040000C9040000C904000000000000AC
:103DB00038BFE43B38BFE43B8F28123C7901763CA6
:103DC00000000000190000001F00000019000000A2
:103DD0001900000000000000190000001F00000092
:103DE0001900000019000000000000008000000021
:103DF00080000000800000008000000080000000C3
:103E000003000000FA000000D007000003000000DB
:103E10000A000000D007000019000000190000008F
:103E2000800000007C0000007C0000007C0000009E
:103E3000F90000000B1F00000009000000A0064070
:103E400000B0064000C0064000D0064000A00E4072
:103E500000B00E4080B51C481C4988420BD00020A1
:103E600006E01949194A52F8202041F82020401C48
:103E7000B0F5826FF5D31448FFF73CFD1449154A9D
:103E80001548801A03E013780B70521C491C03007C
:103E9000581E002BF7D111491148401A02E00022A8
:103EA0000A70491C0200501E002AF8D10D490E4A22
:103EB0000E48801A03E013780B70521C491C030053
:103EC000581E002BF7D101BD0080FF1F000000002D
:103ED0001084FF1FC03C0000543E0000F085FF1F0F
:103EE0000E88FF1FA485FF1FE43F00003040000044
:103EF00080B51C48006850F478501A490860C82002
:103F0000FFF758FD18490860174800684FF47A71A8
:103F10004843164908601548006815490968C1F307
:103F20000361491CB0FBF1F01249086000F003F88E
:103F300000F00CF801BD1048006850F480500E49A4
:103F400008600E484FF4E061016070470C4800685B
:103F500050F001000A4908600A484FF4A06101606E
:103F600070470000388004400088FF1FFC87FF1F57
:103F7000448004400488FF1F0480044018900440DB
:103F8000408004400CB00440576520617265206E8B
:103F90006F7720696E206779726F2063616C696248
:103FA000726174696F6E206D6F64652C20506C6552
:103FB000617365206B656570206361722073746145
:103FC00074696F6E65727920616E642077616974BF
:103FD0002074696C6C206C6967687420646965730F
:103FE0000000000070B4104C24680F4D2D6855F48B
:103FF0007F050D4E3560090611F0706151EA0070C1
:10400000110511F470010843190411F470210843DB
:1040100006490860002000E0401CC0B29842FBD373
:104020000148046070BC704700F0014044800440C7
:10403000433A5C55736572735C4C6F7569734D6F71
:104040005C446F63756D656E74735C476974487525
:10405000625C555354536D6172746361725C737228
:10406000635C647269766572735C6770696F5C67C4
:1040700070696F2E63000000433A5C55736572737C
:104080005C4C6F7569734D6F5C446F63756D656EE5
:1040900074735C4769744875625C555354536D6121
:1040A00072746361725C7372635C64726976657268
:1040B000735C756172745C756172742E63000000CC
:1040C000433A5C55736572735C4C6F7569734D6FE1
:1040D0005C446F63756D656E74735C476974487595
:1040E000625C555354536D6172746361725C737298
:1040F000635C647269766572735C46544D5C4654C9
:104100004D2E6300433A5C55736572735C4C6F755A
:1041100069734D6F5C446F63756D656E74735C4756
:1041200069744875625C555354536D617274636170
:10413000725C7372635C647269766572735C6164ED
:10414000635C6164632E63000A0C596F7520656EB1
:1041500074657265643A25632C20506C65617365E3
:1041600020656E7465722061206E756D62657220C7
:1041700066726F6D20312D3720746F2073656C650A
:1041800063742061206D6F64650A0C000A57656CCA
:10419000636F6D6520746F2074686520536D617264
:1041A0007443617220323031332053656E736F7205
:1041B000207465616D20646576656C6F70656D65F2
:1041C0006E742073797374656D0A00003D3D3D3D4A
:1041D0003D3D3D3D3D3D3D3D3D3D3D3D3D3D3D3D0F
:1041E0003D3D3D3D3D3D3D3D3D3D3D3D3D3D3D3DFF
:1041F0003D3D3D3D3D3D3D3D3D3D3D3D3D3D3D3DEF
:104200003D3D3D3D3D3D3D3D3D3D0A000A4552524F
:104210002120496E76616C69642049525120766193
:104220006C75652070617373656420746F20656EB2
:1042300061626C65206972712066756E6374696F66
:104240006E210A0080B500F009F80A4800884FF690
:10425000FE7108400749088001BD000072B606489B
:104260004CF22051018004484DF62811018062B6BD
:1042700070470000002005400E200540506C65612D
:1042800073652073656C656374206D6F64653A0AAD
:104290002D2D2D2D2D2D2D2D2D2D2D2D2D2D2D2D4E
:1042A0002D2D2D2D2D2D2D2D2D2D2D0A0000000015
:1042B000546865206D6F6465206E6F772069732088
:1042C000313A20416363656C65726F6D6574657228
:1042D00020616E64204779726F73636F706520543C
:1042E000657374000A2A2A2A2A64656661756C74EB
:1042F0005F69737220656E7465726564206F6E20ED
:10430000766563746F722025642A2A2A2A2A0D0A88
:104310000A0000000A2A2A2A2A2A2A204C45465442
:104320002026205249474854206564676520706FF5
:10433000736974696F6E202A2A2A2A2A2A000000CB
:1043400010B5084979441C31074C7C441A34A14209
:1043500006D0081D0A68511888470146A142F8D1C5
:1043600010BD00BF0C01000018010000546865205A
:104370006D6F6465206E6F7720697320363A204D2B
:104380006F746F7220436F6E74726F6C20746573FC
:10439000740000000A20546865204D6F6465206930
:1043A00073206E6F7720373A2053797374656D4CA4
:1043B0006F6F70205465737400000000426F746862
:1043C0002073696465206465746563746564203A6C
:1043D000205354524149474854206C696E6500008F
:1043E0000A63757272656E745F6469725F6172638D
:1043F0005F76616C75655F6572726F722069733A82
:10440000202564000A45766572797468696E6720B4
:10441000496E697469616C697A656420616C72695E
:104420006768740A0000000077726974696E67201B
:1044300074686520753332203A2033313235207468
:104440006F206D656D6F727920310A007772697423
:10445000696E6720746865207533323A20313031D7
:104460003920746F206D656D6F727920320A0000FB
:10447000C3D3FFFF20020000F085FF1F00000000F3
:104480000A63757272656E745F6D69645F657272DE
:104490006F725F706F732069733A202564000000AB
:1044A0004C65667420736964652064657465637423
:1044B0006564203A204F4E452D4544474500000095
:1044C0005269676874207369646520646574656304
:1044D000746564203A204F4E452D45444745000001
:1044E000546865206D6F6465206E6F772069732056
:1044F000323A204C696E65617220434344000000EB
:10450000546865206D6F6465206E6F772069732035
:10451000333A466C617368204D656D6F72790A009D
:10452000546865206D6F6465206E6F772069732015
:10453000343A20656E636F6465722074657374002D
:1045400080B5FEF709FAFEF731FA03480178C9B2DF
:104550000248FCF7A4FF01BD04ED00E0E4420000C6
:104560000A63757272656E745F3173745F72696726
:1045700068745F656467653A202564000A63757234
:1045800072656E745F3173745F6C6566745F6564C9
:1045900067653A20256400000A2A2A2A2A2A2A2046
:1045A000444952204552524F52202A2A2A2A2A2A66
:1045B000000000000A63757272656E745F64697250
:1045C0005F6572726F722069733A20256400000083
:1045D0004E6F772072656164696E672066726F6DD9
:1045E000206D656D6F72790A000000000A0C204989
:1045F0006E70757420646972656374696F6E203AB9
:104600002030206F722031000A4576657279746817
:10461000696E6720696E6974656420616C72696790
:10462000687400000A0C675F753332656E636F64EF
:1046300065725F6C663A2564000000000A0C675FD3
:10464000753332656E636F6465725F72743A2564A8
:1046500000000000313A416363656C65726F6D65FF
:10466000746572266779726F0A000000363A4D6FE2
:10467000746F7220636F6E74726F6C2074657374E4
:104680000A000000466C617368204D656D6F727999
:1046900020696E6974206F6B0A0000000120C0461B
:1046A000002801D0FFF74CFE0020FEF73BFD00F094
:1046B00000F800F001B800000746384600F002F8A4
:1046C000FBE7000001491820ABBEFBE72600020013
:1046D0000A0A2A2A2A2A2A2A202A2A2A2A2A2A0AA4
:1046E000000000004E4F2045444745206465746536
:1046F0006374656400000000343A456E636F64655E
:10470000722074657374696E670A0000373A5379D2
:104710007374656D4C6F6F7020546573740A00007C
:1047200080B5FFF78FFDFFF795FBFFF7E1FBFEF785
:10473000F9FCFEE74343442053616D706C653A20F9
:10474000000000000A2A2A2A2A2A2A202A2A2A2A9B
:104750002A2A0A00323A4C696E6561724343440A60
:1047600000000000333A466C617368204D656D6F40
:1047700072790A004D656D6F727920313A25640AAD
:10478000000000004D656D6F727920323A25640A91
:104790000000000080B50100C9B20320FDF7ADFEA6
:1047A00001BDC046C046C046C046FFF777FF0000C7
:04000005000047A30D
:00000001FF
