:10000000F87F002011040000E5440000E5440000F2
:10001000E5440000E5440000E5440000E54400003C
:10002000E5440000E5440000E5440000E54400002C
:10003000E5440000E5440000E5440000E54400001C
:10004000E5440000E5440000E5440000E54400000C
:10005000E5440000E5440000E5440000E5440000FC
:10006000E5440000E5440000E5440000E5440000EC
:10007000E5440000E5440000E5440000E5440000DC
:10008000E5440000E5440000E5440000E5440000CC
:10009000E5440000E5440000E5440000E5440000BC
:1000A000E5440000E5440000E5440000E5440000AC
:1000B000E5440000E5440000E5440000E54400009C
:1000C000E5440000E5440000E5440000E54400008C
:1000D000E5440000E5440000E5440000E54400007C
:1000E000E5440000E5440000E5440000E54400006C
:1000F000E5440000E5440000E5440000E54400005C
:10010000E5440000E5440000E5440000E54400004B
:10011000E5440000E5440000E5440000E54400003B
:10012000E5440000E5440000E5440000E54400002B
:10013000E5440000E5440000E5440000E54400001B
:10014000E5440000E5440000E5440000E54400000B
:10015000FD0D00000D0E0000E54400004D04000000
:10016000E5440000E5440000E5440000E5440000EB
:10017000E5440000E5440000E5440000E5440000DB
:10018000E5440000E5440000E5440000E5440000CB
:10019000E5440000E5440000E5440000450E000091
:1001A000E5440000E5440000E5440000E5440000AB
:1001B000E5440000E5440000E5440000E54400009B
:1001C000E5440000E5440000E5440000E54400008B
:1001D000E5440000E5440000E5440000E54400007B
:10040000FFFFFFFFFFFFFFFFFFFFFFFFFEFFFFFFFD
:1004100062B64FF000004FF000014FF000024FF0C5
:1004200000034FF000044FF000054FF000064FF0BE
:1004300000074FF000084FF000094FF0000A4FF09E
:10044000000B4FF0000C04F03DF9FEE780B572B6EA
:10045000DFF87C0A0068002804D0022800F0CC8075
:1004600070D3FCE1DFF86C0A0068DFF86C1A0968E9
:10047000884207DADFF85C0A0068401CDFF8541A8B
:1004800008602CE0DFF8540A0068002827D1DFF864
:10049000440A0021016000F0EAFD0121DFF8400A72
:1004A00000F0C2FDDFF8380A00F0B6FEDFF8340ACB
:1004B0000068012801D100F075FFDFF82C0A006800
:1004C000012803D1DFF8180A00F082FEDFF81C0AC9
:1004D0000068012803D1DFF8080A00F08CFEDFF87D
:1004E000100A0078212814D3DFF8080A0068DFF822
:1004F000081A0968484342F2107190FBF1F0DFF8E6
:10050000FC190968401A212190FBF1F0DFF8F0197D
:100510000860DFF8E8090068DFF8E41909680818DE
:10052000DFF8D8190860DFF8DC090068DFF8D019B7
:100530000968401ADFF8CC190860DFF89409012136
:1005400001608CE1142301220621012001F020F931
:1005500080B2DFF8B4190968401ADFF87019086032
:10056000DFF8A809006841F28931884218D2DFF823
:100570009C090068401CDFF894190860DFF84C09FA
:10058000006801F091F9DFF8B828C2E90801DFF846
:100590003C09006801F088F9DFF8A428C2E90601E7
:1005A000142301220721012001F0F2F8DFF860197D
:1005B00011FA80F0DFF85C190860DFF810090068B4
:1005C000DFF854190968484342F2107190FBF1F0CA
:1005D000DFF840190968DFF844291268514342F2F4
:1005E000107291FBF2F1401ADFF834190860DFF85D
:1005F000E0080221016032E1DFF8F40800782128E8
:1006000007D2DFF8EC080078401CDFF8E418087027
:1006100067E0DFF8DC0800210170DFF808090068F6
:10062000DFF8041909680818DFF800190860DFF816
:1006300000090068DFF8F01809680818DFF8E41806
:100640000968401ADFF8E81808600020DFF8D818B9
:100650000860DFF8D0180860DFF8D8080068DFF815
:10066000D81809680818DFF8C4180968401ADFF8B4
:10067000CC180860DFF8C4080068DFF8C4180968FF
:1006800042F2107291FBF2F14843DFF8B8180860AB
:10069000DFF8A8080068DFF8B018096842F21072A5
:1006A00091FBF2F14843DFF8A4180860DFF8A008D6
:1006B0000068DFF8981809680818DFF894180860CF
:1006C000DFF880080068DFF8881809680818DFF884
:1006D00084180968401A212190FBF1F0DFF878189E
:1006E0000860DFF870080068DFF86C1809680818FF
:1006F000DFF860180860DFF86408006800281CD183
:10070000DFF81C080068DFF84C180968401ADFF8A9
:10071000EC1709680818DFF848180860DFF80008C7
:100720000068DFF830180968401ADFF8D817096840
:100730000818DFF83018086010E0DFF820080068BB
:1007400001280BD1DFF81808DFF8D4170968016019
:10075000DFF81008DFF8C81709680160DFF8000843
:100760000068012809DB00220721032001F00EF9AF
:10077000DFF8F4070121016012E0012207210320C4
:1007800001F004F9DFF8E0075FF0FF310160DFF806
:10079000D00700685FF0FF314843DFF8C4170860F6
:1007A000DFF8C0070068012809DB002209210320C7
:1007B00001F0ECF8DFF8B4070121016012E001223A
:1007C0000921032001F0E2F8DFF8A0075FF0FF3114
:1007D0000160DFF8900700685FF0FF314843DFF801
:1007E00084170860DFF878070068B0F5FA5F04DD69
:1007F000DFF86C074FF4FA510160DFF86807006812
:10080000B0F5FA5F04DDDFF85C074FF4FA510160E0
:10081000DFF85C07006800280ED1DFF844070268A3
:100820000021012001F08CFADFF83807026801216D
:10083000012001F085FA0EE0DFF834070068012896
:1008400009D100220021012001F07AFA00220121C1
:10085000012001F075FADFF8780600210160DFF869
:1008600014070068401CDFF80C170860DFF8040765
:100870000068DFF804170968884249D2082104207B
:1008800001F0C9F800281BD1DFF8F0060068002845
:1008900016D1DFF8EC060068401CDFF8E4160860AB
:1008A000DFF8E0060068DFF8D8160968884203DA46
:1008B000DFF8CC0600210160DFF8C00601210160ED
:1008C000DFF8B8060068012806D1DFF8BC0600682A
:1008D000401CDFF8B4160860DFF8AC060068C828D2
:1008E00007D1DFF8980600210160DFF89C0600219F
:1008F0000160DFF880060068C821B0FBF1F201FB5F
:100900001200002852D11B21042001F06CF84DE0A8
:10091000DFF860060068DFF860160968884245D194
:10092000DFF8140600210160DFF8EC05DFF85C1643
:1009300009680160DFF8E405DFF854160968016012
:10094000DFF8FC05DFF84C1609680160DFF8F805F0
:10095000DFF8441609680160DFF89C05DFF83C16F3
:1009600009680160DFF83806DFF8381609680160A9
:10097000DFF83406DFF8341609680160DFF8300666
:10098000DFF8301609680160DFF82C06DFF82C1656
:1009900009680160DFF82806DFF828160968016099
:1009A000DFF82406DFF8241609680160DFF8C805BF
:1009B0000068DFF81C1609680818B0F57A60DFF8DF
:1009C000B415096888427CD3DFF8080600680A215C
:1009D000B0FBF1F201FB1200002803D1DFF8F805AB
:1009E00000210160DFF8F0050068002854D10921DA
:1009F000042001F010F8002824D1DFF8E005006899
:100A0000401EDFF8D8150860DFF8D0054068401EAA
:100A1000DFF8C8154860DFF8C4058068401EDFF8BD
:100A2000BC158860DFF8B405C068401EDFF8AC155F
:100A3000C860DFF8A40501210160DFF898050021F6
:100A4000016029E00621042000F0E5FF002823D101
:100A5000DFF888050068401CDFF880150860DFF8C3
:100A60007C054068401CDFF874154860DFF86C05B1
:100A70008068401CDFF864158860DFF86005C06896
:100A8000401CDFF85815C860DFF84C0501210160F3
:100A9000DFF8400500210160DFF838050068401CE0
:100AA000DFF830150860DFF8CC0400683221B0FBB5
:100AB000F1F201FB1200002803D11B21042000F0F9
:100AC00092FFDFF8B0040068DFF804150968DFF86A
:100AD000A82412685118DFF808251268DFF80435D9
:100AE0001B6803FB0211884267D101221B210420ED
:100AF00000F04CFFDFF888040068DFF8E8140968AC
:100B000088425ADBDFF8DC040068DFF8DC1451F8B7
:100B10002000DFF824140860DFF8C8040068DFF85C
:100B20006C1451F82000DFF8F0130860DFF8B4040B
:100B30000068DFF85C1451F82000DFF8E01308606B
:100B4000DFF8A0040068DFF84C1451F82000DFF84B
:100B5000F0130860DFF88C040068DFF83C1451F8EB
:100B60002000DFF8E4130860DFF878040068DFF89D
:100B70002C1451F82000DFF880130860DFF86404BB
:100B80000068DFF8201451F82000DFF81414086022
:100B9000DFF850040068DFF8141451F82000DFF883
:100BA00008140860DFF83C040068401CDFF83414C7
:100BB0000860DFF8380401210160DFF830040068C4
:100BC000012868D1DFF8AC030068FA21B0FBF1F22C
:100BD00001FB120000285ED1DFF8A4030068DFF8F3
:100BE000081451F82000DFF850130860DFF8900374
:100BF0000068DFF8981351F82000C7490860DFF853
:100C000080030068DFF8881351F82000C3490860AA
:100C1000DFF86C030068DFF87C1351F82000C84946
:100C20000860DFF85C030068DFF86C1351F82000FF
:100C3000C5490860DFF848030068DFF8601351F821
:100C40002000AD490860CE480068DFF8581351F81D
:100C50002000DFF84C130860C9480068DFF84C1327
:100C600051F82000DFF840130860C5480068DFF83D
:100C7000441351F82000CE490860C1480068CF49AC
:100C800051F82000CC490860BD480068CD4951F8B2
:100C90002000CB490860BA48006800280FD1012223
:100CA0001821042000F072FE01221921042000F016
:100CB0006DFE00221A21042000F068FE3AE0B048E0
:100CC000006801280FD100221821042000F05EFEE8
:100CD00001221921042000F059FE01221A210420CA
:100CE00000F054FE26E0A648006802280FD1012239
:100CF0001821042000F04AFE00221921042000F0EF
:100D000045FE01221A21042000F040FE12E09C481A
:100D1000006803280ED100221821042000F036FEBE
:100D200001221921042000F031FE00221A210420A2
:100D300000F02CFE8F4800688F49096801F58C414E
:100D40005031884214D31521012000F064FE01289F
:100D50000ED11621012000F05EFE002808D11721D7
:100D6000012000F058FE012802D1A14801210160B4
:100D70009F480068012810D19E480068002807D1CC
:100D80009D480068401C9C4908609A480121016008
:100D90009A480068401C9949086098480068B0F576
:100DA000FA6F05D19248002101609248002101604C
:100DB0009148006892490968884204D191480068C6
:100DC000401C904908608F4800688F490968884234
:100DD00002D16B48002101608A4800688A4909688D
:100DE000B0EB410F02D166480421016087480068DA
:100DF00050F001008549086062B601BD8448006872
:100E000050F00100824908607047000080B572B65A
:100E1000444801687F4801F040FA434801687E4831
:100E200001F03BFA3F48002101603F48002101608A
:100E30007A48006850F001007849086062B601BD48
:100E40007885FF1F002006210800754909680122E6
:100E50008240114219D072490968012212FA00F049
:100E600008436F4908606F4880680069C0F340100C
:100E7000002805D02B480068401C2A49086004E07F
:100E800028480068401E274908600720644909680F
:100E900001228240114217D061490968012212FAE9
:100EA00000F008435E4908605E4880680069C0063B
:100EB00005D41D480068401C1B49086004E01A481E
:100EC0000068401E18490860704700008886FF1FB0
:100ED000D086FF1F8086FF1F6485FF1F1087FF1FBE
:100EE0001487FF1F4C86FF1F5086FF1F5486FF1F6D
:100EF0005888FF1F1488FF1F7486FF1F9486FF1FEA
:100F0000C886FF1F9886FF1F9C84FF1F0087FF1F56
:100F10006CF8FFFF8486FF1F5C86FF1F6086FF1F43
:100F20009C86FF1F3488FF1F3888FF1FB486FF1F71
:100F3000CC86FF1F6885FF1FC486FF1FA086FF1F8A
:100F40006C86FF1FAC86FF1F7086FF1FB086FF1FD9
:100F5000C086FF1FB886FF1FBC86FF1F5886FF1F75
:100F60008C86FF1F9086FF1FA486FF1FA886FF1F89
:100F7000E886FF1FD486FF1F6C85FF1FD886FF1FE2
:100F80005485FF1F5885FF1FDC86FF1F6084FF1FED
:100F90007484FF1FA084FF1FB484FF1FC884FF1F39
:100FA0007886FF1FDC84FF1F7C86FF1FF084FF1FF5
:100FB000B485FF1F1885FF1FB885FF1F2C85FF1FF5
:100FC000BC85FF1F4085FF1F0487FF1F0485FF1F8F
:100FD0006085FF1F6486FF1F6886FF1F8884FF1FD0
:100FE0005C85FF1FE086FF1F4C84FF1FF086FF1FFC
:100FF000E486FF1FF886FF1FF486FF1FFC86FF1F95
:101000007085FF1FEC86FF1F7485FF1F3C71034036
:101010000C710340C8450000E04500001C7103400E
:10102000A09004402484FF1F10B50400DFF81C04C6
:10103000016010E000F015F8200000F030F800F03A
:1010400042F8200000F050F8DFF804040088401C4B
:10105000DFF8FC130880DFF8F40300680128E9D00A
:1010600010BD80B50921012000F0BDFC01BD80B597
:10107000DFF8E0030068002810D1DFF8D803012171
:101080000160DFF8D40301210160DFF8C40300210F
:10109000018001220821012000F078FC01BD10B57B
:1010A00004000A21012000F0B6FC012805D1DFF878
:1010B000A00300885721015504E0DFF8940300885D
:1010C0006F21015510BD80B5DFF884030088012829
:1010D00009D1DFF880030068012804D1002208212B
:1010E000012000F053FC01BD10B50400DFF86003DF
:1010F0000088FF2811D1DFF85C0300210160DFF8D0
:10110000580300210160200000F017F8200000F0D3
:1011100030F8DFF838030021016010BD10B504007D
:101120009EA1032001F0B2F9DFF83013032001F093
:10113000ADF9200000F04CF810BD002105E089B2A7
:101140000A18927989B20A54491C89B2DFF810232F
:1011500012689142F3DBDFF80813096803E089B2F3
:1011600058220A54491C4FF4807289B29142F6D336
:10117000704710B400230021BA4A00241460BA4A10
:1011800000241460002205E092B2145C572C00D1B8
:10119000491C521C92B2B24C2468A24205DA92B2A7
:1011A000145C6F2CF0D15B1CF3E79BB2AC48006879
:1011B000834203D1AB480121016007E089B2A8480E
:1011C0000068814202D1A8480121016010BC70472B
:1011D00038B50400002505E0ADB2295D70A001F02E
:1011E0005CF86D1C4FF48070ADB28542F4D36BA0F7
:1011F00001F053F831BD38B50400002505E0ADB26B
:10120000295D67A001F049F82D1DADB2FA2DF6D386
:1012100062A001F042F831BD10B582B004009348DD
:10122000002101609248002101609248F321016091
:101230009148002101609148006800900EE00098FC
:10124000005D572807D18B4800990160874801212C
:101250000160012000900098401E00900098012835
:10126000EDDA8648006800900EE00098005D57288F
:1012700007D18148009901607D4801210160F32078
:1012800000900098401C00900098754909688842B9
:10129000EBDB7648006801280ED17548006801280C
:1012A0000AD174480068744909680818022190FB43
:1012B000F1F07349086031E06C480068012816D1EC
:1012C0006B480068002812D16A4800686D490968B7
:1012D00008186B4908606748006861490968491E39
:1012E00088421BD1664868490968016016E05F487A
:1012F0000068002812D15E48006801280ED15E48BF
:10130000006862490968401A5D4908605A480068E7
:10131000002803D15A485C490968016051480068B7
:10132000012803D156485849096801604E480068B1
:10133000012803D1524854490968016050480068A7
:1013400051490968401A524908605148006801F043
:10135000CBF85049096801F0D7F801F041F901F0E4
:1013600067F900224C4B01F0B3F901F083FA4B49C5
:1013700008604B4842490968016040484049096893
:101380000160200000F001F813BD3B4800683949B6
:101390000968401A43490860704700000A000000CD
:1013A0002563000080B5364801683F4800F075FFAE
:1013B0003E4800F072FF3E48FFF7B0FE3D4800F0A7
:1013C0006CFF2A480068012807D1294800680128D5
:1013D00003D1394800F061FF21E02448006801286A
:1013E00007D123480068002803D1344800F055FF96
:1013F00015E01E480068002807D11D480068012834
:1014000003D12F4800F049FF09E018480068184947
:1014100009680843002802D12A4800F03EFF2A4804
:1014200000F03BFF14480168284800F036FF1148DF
:101430000168274800F031FF264800F02EFF1448CD
:101440000168254800F029FF01BD00001087FF1F3B
:101450005488FF1F0887FF1F0C87FF1FD846000016
:10146000B085FF1F2C88FF1F3088FF1F2488FF1FB7
:101470002888FF1FCC85FF1F1C88FF1FC485FF1F06
:10148000C085FF1FB885FF1FBC85FF1FB485FF1FE8
:101490001488FF1F0487FF1F00408F401888FF1F1C
:1014A000C885FF1F2088FF1F24440000E846000075
:1014B0001487FF1F7446000084430000444400006A
:1014C0006444000088460000DC420000044500003F
:1014D000204500003C4500005845000038B5050097
:1014E0000C00EDB2002D04D1B4F10800C0B20B28FD
:1014F0000BD3EDB2012D03D1201FC0B20E2804D3AF
:101500002221DFF83C0301F0CBF9EDB2002D03D02E
:10151000012D00F08280FEE0DFF82803006850F023
:101520000060DFF820130860DFF81C03006830F06B
:101530009000DFF814130860DFF80C03002101604D
:10154000E4B22000083801280CD9801E01281BD9DC
:10155000801E01282BD9801E01283AD9C01E0128DF
:1015600049D959E0DFF8E402006850F48060DFF800
:10157000DC120860E4B2A00000F1804010F5942075
:10158000002140F8201CC6E0DFF8C00200684FF4DC
:1015900000710843DFF8B4120860E4B2A00000F163
:1015A000804010F59220002140F80C1CEBE7DFF89A
:1015B0009C02006850F48060DFF890120860E4B28A
:1015C000A00000F1804010F59420002140F8281C74
:1015D000D9E7DFF87802006850F40060DFF86C1299
:1015E0000860E4B2A00000F1804010F596200021D0
:1015F00040F8381CC7E7DFF85402006850F4005088
:10160000DFF848120860E4B2A00000F1804010F555
:101610009A200021C161B6E77DE0DFF8340200685E
:1016200050F00060DFF828120860DFF81C02006844
:1016300030F41040DFF810120860DFF80C020021CF
:101640000160E4B22000001F03280BD9001F01280D
:101650001AD9801E032829D9001F012838D9C01E95
:1016600048D057E0DFF8E401006850F40050DFF89C
:10167000DC110860E4B2A00000F1804010F59A206F
:10168000002140F8101C45E0DFF8C001006850F46C
:101690008060DFF8B8110860E4B2A00000F180407B
:1016A00010F59420002140F8201C33E0DFF89C0165
:1016B000006850F48060DFF894110860E4B2A00084
:1016C00000F1804010F59420002140F8181C21E022
:1016D000DFF87801006850F48060DFF8701108606E
:1016E000E4B2A00000F1804010F59420002140F801
:1016F000181C0FE0DFF8540100684FF40071084334
:10170000DFF848110860E4B2DFF84801002140F832
:101710002410FFE7FFE731BD70B504000D0016008F
:101720000020E4B2002C04D1B5F10800C0B20B28AF
:101730000BD3E4B2012C03D1281FC0B20E2804D36E
:101740008721DFF8FC0001F0ABF83200D2B22900AB
:10175000C9B22000C0B200F051F8E4B2DFF8F800DE
:1017600050F8240000680006F7D5E4B23A4850F873
:1017700024000069E4B2384951F82410096831F0B6
:101780008001E4B2344A52F82420116080B270BD66
:101790002DE9F84304000D0016001F005FF000085B
:1017A000E4B2002C04D1B5F10800C0B20B280AD372
:1017B000E4B2012C03D1281FC0B20E2803D3BE21EE
:1017C0001F4801F06DF85FF000090BE03200D2B263
:1017D0002900C9B22000C0B2FFF79EFF18FA80F8B6
:1017E00019F101095FFA89F9FFB2B945EED3FFB2E9
:1017F000B8FBF7F8404680B2BDE8F28380B511F03F
:101800001F0151F04001154B1972910011F00C01AC
:1018100051F05001114A1170104914224A700F49B9
:1018200041F234224A800D4945F278628A800B49A0
:10183000C0B2094A52F8200000F012F801BD0000C1
:10184000384000003C800440188004403880044048
:1018500030800440009004401C84FF1F3C86FF1F22
:101860000A7882604A78C2604A8882618A88C26146
:101870008A790262CA794262CA6802650A7A02609B
:10188000497A4160704750F8041B61B150F8042B4D
:10189000D30744BFA9F101039A18002342F8043B7F
:1018A000091FFAD1EFE77047010040F10780F446C5
:1018B000404200F003F851F00041604709D0B0FA0F
:1018C00080F18840C91CC1F58461090501EBD02174
:1018D00040057047F8B504000D0016001F00EDB27A
:1018E000202D02D2FFB2022F03D32421534800F04F
:1018F000D7FFEDB2E4B2524850F82400F6B24FF4EC
:101900008071314340F82510F00705D5F6B2032E5B
:1019100002D0F6B2132E0DD1E4B24A4850F824009A
:1019200040690121A9408843E4B2464951F8241096
:1019300048612AE0E4B2434850F82400406901219C
:10194000A9400843E4B23F4951F824104861FFB26E
:10195000012F0DD1E4B23B4850F82400006801216A
:10196000A9400843E4B2374951F8241008600CE05C
:10197000E4B2344850F8240000680121A9408843AB
:10198000E4B2304951F824100860F1BD70B504008C
:101990000D001600EDB2202D02D2F6B2022E03D3B6
:1019A0004B21264800F07CFFF6B2012E0DD1E4B2A7
:1019B000244850F8240000680121A9400843E4B2FB
:1019C000204951F8241008600CE0E4B21D4850F89A
:1019D000240000680121A9408843E4B2194951F864
:1019E0002410086070BD38B504000D00EDB2202D44
:1019F00003D36021114800F053FFE4B2114850F8BE
:101A0000240000680121A9404840E4B20D4951F882
:101A10002410086031BD38B504000D00EDB2202D52
:101A200003D37121054800F03BFFE4B2054850F8AC
:101A300024000069E84010F0010032BD8040000041
:101A40003884FF1F2484FF1F2DE9F04104000D009E
:101A500016001F00DFF8580300684FF47A714843FE
:101A60005FEA5008E4B2002C0DD0E4B2012C02D0A1
:101A7000E4B2012C02D1EDB2022D04D33821DFF8FB
:101A8000340300F00DFF5FEA5800B04204D2392160
:101A9000DFF8200300F004FF5FEA1840B0FBF6F126
:101AA000002000E0401C89B251FA00F2012AF9DA64
:101AB00038FA00F1B1FBF6F189B24A1C02FB07F2D9
:101AC00042F21073B2FBF3F2E4B2002C05D0022C08
:101AD00000F0B880C0F08980E1E0DFF8DC321B68FC
:101AE00053F08073DFF8D0623360EDB2002D0BD07D
:101AF000022D25D016D3042D3ED02FD3062D57D03E
:101B000048D3072D62D06FE0DFF8B0321B6853F482
:101B10000063DFF8A8623360DFF8A4324FF4806618
:101B20001E60BCE0DFF894321B6853F40063DFF8FA
:101B30008C623360DFF88C324FF480661E60F0E711
:101B4000DFF878321B6853F40063DFF870623360AB
:101B5000DFF874324FF480661E60E2E7DFF85C3233
:101B60001B6853F40063DFF854623360DFF85C32C3
:101B70004FF480661E60D4E7DFF840321B6853F4F0
:101B80008053DFF838623360DFF844324FF4806608
:101B90001E60C6E7DFF824321B6853F48053DFF879
:101BA0001C623360DFF82C324FF480661E60B8E7A9
:101BB000DFF808321B6853F48053DFF800623360AB
:101BC000DFF814324FF480661E60AAE7DFF8EC31CC
:101BD0001B6853F48053DFF8E4613360DFF8FC31B5
:101BE0004FF480661E609CE7A8E0DFF8CC311B68EC
:101BF00053F00073DFF8C0613360EDB2002D02D006
:101C0000012D0FD01DE0DFF8B4311B684FF40076D2
:101C10003343DFF8A8613360DFF8C4314FF4407616
:101C20001E603CE0DFF894311B684FF400763343CC
:101C3000DFF888613360DFF8AC314FF440761E6026
:101C4000EFE77BE0DFF8A0311B6853F08073DFF82B
:101C500098613360EDB2002D02D0012D0FD01DE050
:101C6000DFF858311B684FF400763343DFF84C61DE
:101C70003360DFF878314FF440761E600FE0DFF814
:101C80003C311B684FF400763343DFF8306133603A
:101C9000DFF85C314FF440761E60EFE74EE0EDB2C6
:101CA000E4B2DFF8503153F8243013EBC503EDB242
:101CB000E4B2DFF8406156F8246016EBC506F6681A
:101CC00036F00406DE60EDB2E4B2DFF8283153F8F6
:101CD000243013EBC5032826DE60E4B2DFF81431AC
:101CE00053F82430C0B210F0070050F028001860FC
:101CF000E4B2DFF8000150F824000023C364E4B22A
:101D0000DFF8F00050F8240089B28160E4B2DFF817
:101D1000E40050F824000021C164EDB2E4B2DFF821
:101D2000D40050F8240010EBC50092B20261E4B276
:101D3000DFF8C00050F8240000214160BDE8F081C8
:101D400070B504000D001600E4B2002C0ED0E4B211
:101D5000012C02D0E4B2012C02D1EDB2022D05D348
:101D600040F27911DFF84C0000F09AFD42F2117058
:101D7000864205D34FF4BD71DFF8380000F090FDC6
:101D8000E4B2DFF8700050F824008068401C00FBCB
:101D900006F042F21071B0FBF1F0EDB2E4B2DFF800
:101DA000541051F8241011EBC501086170BD0000FA
:101DB0005088FF1FF03F00003C8004403880044002
:101DC00004B0044008B004400CB0044010B004401B
:101DD00010C0044014C0044018C004401CC004409B
:101DE0002090044024900440308004402890044017
:101DF0002C9004401084FF1F10B50C0011680129BD
:101E000002D0022904D009E0C0B25168884705E039
:101E1000916808709068401C9060FFE72068401C43
:101E2000206010BD30B41C00002300250570401C4C
:101E3000002A19D0096800290AD1302101705B1CE1
:101E4000180030BC7047303511000570401C5B1C19
:101E50000029F5D091FBF4F204FB1215002DF2D508
:101E6000E94311F13105EFE70968002908D1302174
:101E700001705B1CE4E7373511000570401C5B1CEA
:101E80000029DDD0B1FBF4F204FB12150A2DF2D2C9
:101E90003035F1E7F8B504000D0016001F0005E02D
:101EA0003A0031003020FFF7A7FF641CAC42F7DB9B
:101EB000F1BDF8B504000D0016001F0005E03A0062
:101EC00031002020FFF798FF641CAC42F7DBF1BD26
:101ED0002DE9F04F8DB005001600002000900C0099
:101EE00005E02A0000A91800FFF786FF641C23788C
:101EF000002B00F0CE81252B12D00A2B05D02A0012
:101F000000A91800FFF778FF09E02A0000A90D20BA
:101F1000FFF772FF2A0000A90A20FFF76DFFE5E72F
:101F20000027002101E057F0010700291BD1641CA4
:101F3000207820280BD023280FD02B2804D02D2840
:101F4000F1D0302806D00BE057F00207EDE757F04C
:101F50000407EAE757F00807E7E757F01007E4E758
:101F6000641E0121E1E75FF00008002104E00A207F
:101F700000FB0830B0F13008002908D1641C237838
:101F8000180030380928F2D9641E0121F4E7641CD6
:101F900020782E280BD10021FFE7002908D1641CEE
:101FA000207830380928F8D9641E0121F5E7641E2D
:101FB000641C20784C2806D0682802D06C2801D0F8
:101FC00002E002E001E000E0641E641C23781800D7
:101FD000582878D0622800F0DA80632800F0248145
:101FE000642813D0692811D06E2800F04D816F2825
:101FF00000F0C280702800F0D580732800F01B81AB
:10200000752800F0DA8078285DD06AE730680390A0
:10201000361D0A23012203A904A8FFF703FF824605
:1020200004A81AEB00090398002804D52D2002907B
:102030001AF1010A11E03800800704D52B20029024
:102040001AF1010A09E03800400704D52020029067
:102050001AF1010A01E0002002905FF0000B380045
:10206000000711D50298002804D02A0000A9029880
:10207000FFF7C2FE5FF0010B2B0000AA414650465D
:10208000FFF708FFC24612E03800C0070FD42B004C
:1020900000AA41465046FFF70CFF0298002804D0E2
:1020A0002A0000A90298FFF7A7FE5FF0010BBBF121
:1020B000000F07D10298002804D02A0000A9029836
:1020C000FFF79AFEA3E030680190361D102300222E
:1020D00001A904A8FFF7A6FE824604A81AEB00098E
:1020E0005FF0000B3800000716D53800C0060BD58E
:1020F0002A0000A93020FFF77FFE2A0000A97820DF
:10210000FFF77AFE5FF0010B2B0000AA4146504614
:10211000FFF7C0FEC2461CE03800C00719D43800E3
:10212000C00601D51AF1020A2B0000AA414650460A
:10213000FFF7BFFE3800C0060BD52A0000A93020EB
:10214000FFF75AFE2A0000A97820FFF755FE5FF03E
:10215000010B3800C0060ED5BBF1000F0BD12A00D1
:1021600000A93020FFF748FE2A0000A97820FFF7D9
:1021700043FE1AF1020A4AE030680190361D082336
:10218000002201A904A8FFF74DFE82461FE0306837
:102190000190361D0223002201A904A8FFF742FE88
:1021A000824614E030680190361D1023002201A9F8
:1021B00004A8FFF737FE824609E030680190361D1B
:1021C0000A23002201A904A8FFF72CFE824604A8D6
:1021D0001AEB00093800000707D52B0000AA41467A
:1021E0005046FFF757FEC24611E03800C0070ED434
:1021F0002B0000AA41465046FFF75BFE07E02A008D
:1022000000A999F80000FFF7F7FDB9F1010999F865
:1022100000000028F3D1F80705D52B0000AA41469D
:102220005046FFF746FE61E63078361D2A0000A9C9
:10223000FFF7E2FD5AE6D6F80090361DB9F1000F1F
:1022400021D0484600F032FB82463800C0070ED449
:102250002B0000AA41465046FFF72BFE07E02A005C
:1022600000A999F80000FFF7C7FD19F1010999F8D5
:1022700000000028F3D1F80705D52B0000AA41463D
:102280005046FFF716FE31E63068361D00990160B2
:102290002CE600980DB0BDE8F08F0EB400B584B008
:1022A000012100910449019105AA010000A8FFF74E
:1022B0000FFE04B05DF810FB3947000038B504008C
:1022C0000D00E4B2002C08D0022C24D014D3042C2E
:1022D0003FD02FD3052C4BD059E03321724800F06A
:1022E000DFFA3E21704800F0DBFA7048006850F4D5
:1022F00080606E4908604AE06D484FF440710160AB
:102300006C484FF4407101606848006850F4006008
:10231000664908603BE068484FF4407101606748D7
:102320004FF4407101606148006850F480505F498B
:1023300008602CE062484FF44071016061484FF43E
:10234000407101605948006850F4005057490860D6
:102350001DE05D484FF4407101605C484FF44071EE
:1023600001605B48006850F48060594908600EE0E5
:1023700058484FF44071016057484FF44071016074
:102380005348006850F4006051490860FFE7E4B228
:10239000524850F82400C07810F0F300E4B24F49DE
:1023A00051F82410C870E4B24C4850F824000021C1
:1023B0008170E4B2002C08D00020E4B2012C04D0DB
:1023C00050F00000C0B2002805D0454800684FF426
:1023D0007A71484304E0434800684FF47A714843F7
:1023E0002901B0FBF1F1E4B23C4A52F82420127802
:1023F00012F0E00289B20B0A13F01F031A43E4B291
:10240000364B53F824301A70E4B2344A52F8242080
:10241000517040012A01B0FBF2F089B2B0EB4110DB
:10242000E4B22E4951F82410897A11F0E002E4B2A6
:102430002A4951F8241010F01F0010438872E4B2AA
:10244000264850F82400C07850F00C00E4B223492C
:1024500051F82410C87031BDC0B2204951F8201085
:1024600009798906F8D5C0B21C4951F82000C07915
:102470007047C0B2194A52F8202012791206F8D5D6
:10248000C0B2164A52F82000C171704738B5040036
:102490000D0005E029782000C0B2FFF7EAFF6D1CAF
:1024A00028780028F6D131BDC840000034800440AF
:1024B0000CB0044010B004400CC0044008C00440FC
:1024C00014D0044010D0044064D0044060D00440D4
:1024D0002880044024D0044020D00440D885FF1F29
:1024E0004888FF1F5088FF1F002800BF0AD0B0FA9D
:1024F00080F18840D1F19D01C905020672F10042C8
:1025000041EB102070470000FF2212EAD05C1DBF93
:1025100012EAD153944593422BE09C44D30780EABE
:1025200001021A4043EA002043EA0121A1FB0030E6
:10253000410038BF40007CF17F010BDBFE294ADA05
:102540005B0842EAC15153EA006373F1004C51EB5E
:1025500010207047D1F1080CDCF120012FDB5B0863
:1025600010FA01F10B4373F1004120FA0CF05041D5
:10257000704794451CBF02EAD153934280EA01029E
:1025800002F000421DD0400019D0490017D05BB9BD
:10259000634514D00902B1FA81F39940BCEB030CF6
:1025A000C00140F00040C1E70002B0FA80FC10FA20
:1025B0000CF0B3EB0C0CC90141F00041B6E7100080
:1025C000704740000AD0490008D010F1807F94BFC6
:1025D00011F1807F02E042F0FF407047D043704726
:1025E0005FF0FF0C1CEAD05114BF614506E0C1103A
:1025F000400721F0E04101F16051704779B900F0E6
:10260000004100020AD0B0FA80FC00FA0CF001F19F
:102610006051A1EB0C5101EBD02140057047410204
:102620000CBF40F4E0016FF0000100207047000093
:1026300013B5DDE90001C1F30A5240F2FF74A24272
:1026400008D0002A04BF090350EA11300ED1DDE999
:1026500000011CBD090350EA1130F8D1019800288F
:10266000174801D517491CBD17491CBDDDE90001FC
:102670000022002300F028F907D2DDE9000181F0F3
:102680000041CDE90001082400E00024DDE900015B
:1026900001220E4B00F030F909D800201946DDE97F
:1026A000002300F041F9CDE9000184F00204224644
:1026B000DDE9000102B0BDE8104000F089BA00BFBA
:1026C000182D4454FB21F9BFFB21F93F0000F03FD6
:1026D000B0B581EA030C0CF0004C40F2FF7515EA2E
:1026E00011541DBF15EA1357AC42AF4239E0E4194B
:1026F00023EA455343F48013C90241F0004141EA03
:10270000505EC7021100A7FB020200284FF0000034
:10271000EEFB01204FF00001E3FB072118BF42F060
:102720000102401800214941E3FB0E01A4F5806439
:102730000F0302D252004041494154F101046CDDC3
:10274000470872F1004250F1000051EB0451A1F52D
:1027500080115CBF41EA0C01B0BD4CEA055100207C
:10276000B0BD05EA1357AC4214BFAF4241E050EA96
:10277000410E1CBF52EA430E02E061460020B0BD8C
:1027800024423C441BD15FEA070EF6D0090302BF86
:1027900001460020AEF1140EB1FA81F7AEEB07044A
:1027A00001FA07FE0C37C7F1200100FA07F7C8400D
:1027B0004EEA000E23EA455343F48013A2E733F0B8
:1027C0000043B3FA83F704BFB2FA82FE77440B3FAB
:1027D000E41BB7F1200E2FBF02FA0EF3BB40C7F186
:1027E000200E22FA0EFE38BF43EA0E03BA40641CE4
:1027F00082E750EA410E14BF52EA430E6FF0000127
:102800004FF4001717EB430F8ABF194617EB410F20
:10281000B5E74CEA05510020B0BDD4F10104B4F194
:1028200020070FDAC4F12007520828BF42F0010246
:1028300010FA07F501FA07F7E1BF2A43E0403843F1
:10284000E1400FE0352C98DCC7F1200452EA400249
:1028500020FA07F218BF42F0010231FA07F0A14056
:102860000A43002172F1004250F1000051EB0C01CB
:10287000B0BD0000400D40EAC120490080F00D804D
:1028800040F00040490DA1F58061491C05D4D1F10B
:102890001F0154BFC840C01770474FF00000704779
:1028A00080B500F091FA00F0B9FAFCE700210028A9
:1028B00002D1002006E0491C0200501C1278002AB8
:1028C000F9D10800704700004FF4001C1CEB410FC9
:1028D00094BF1CEB430F09E041EA030C50EA4C0C97
:1028E00052EA0C0C03D2994208BF9042704714BFC1
:1028F0008B428242704700004FF4001C1CEB410FDA
:1029000094BF1CEB430F09E041EA030C50EA4C0C66
:1029100052EA0C0C03D28B4208BF8242704714BFAC
:102920009942904270470000F0B540F2FF7581EA8D
:10293000030C0CF0004C15EA11541DBF15EA135797
:10294000AC42AF42E5E0BC41C1F31301C3F3130352
:10295000801A994143F4801304D2641E4000494117
:1029600080185941C90241EA5051B1FBF3F603FB0B
:102970001611A2FB0675D7EBC020A94102D2761E24
:1029800080185941C90241EA5051B1FBF3FE03FBE3
:102990001E11A2FB0E75D7EBC020A94103D2AEF1E8
:1029A000010E80185941890241EA9051760546EAA4
:1029B0008E2EB1FBF3F603FB1611A2FB0675D7EBC7
:1029C0008020A94102D2761E80185941C90241EAED
:1029D00050514EEA060EB1FBF3F603FB1611A2FBB3
:1029E0000675D7EBC020A94102D2761E8018594146
:1029F000C90241EA5051B1FBF3F703FB1711A2FBE7
:102A00000735D3EBC020A94167F100070CBF004296
:102A100047F0010766F3D5274FEA1E31B80814F5D1
:102A2000806412DDBD0775F1004250EB0E5051EB92
:102A3000045111F5801F5CBF41EA0C01F0BD4CF060
:102A40007F6141F0E0410020F0BDBD076D0840EA24
:102A50000E5041F48011D4F10104B4F120060ADAD9
:102A6000C4F120060200E04001FA06F3E1401843F9
:102A7000B24015430EE0342C13DCC6F1200445EAC5
:102A800040056D0820FA06F2154321FA06F0A14030
:102A90000D43002175F1004250F1000051EB0C0193
:102AA000F0BD00205FEA0C01F0BDCFB992185B4188
:102AB000B3FA83F704BFB2FA82F6BF190B3FB7F13E
:102AC00020062FBF02FA06F3BB40C7F1200622FA08
:102AD00006F638BF3343BA401CB1E419641E33E72D
:102AE0007F4231F00041B1FA81F404BFB0FA80F6C0
:102AF000A4190B3CB4F120062FBF00FA06F1A14047
:102B0000C4F1200620FA06F638BF3143A0403C1B32
:102B10001AE7AC421ABF05EA1357AF4212E050EA77
:102B200041061CBF52EA4306BFE750EA4107304660
:102B300061461CBF41EA0551F0BD52EA430C08BF93
:102B4000C143F0BD00204FF4001616EB410F98BFB3
:102B500016EB430F08BF16EB410F24BFC14305E03E
:102B600016EB430F0CBF61464CEA0551F0BD000067
:102B7000576520617265206E6F7720696E206779D6
:102B8000726F2063616C6962726174696F6E206D2F
:102B90006F64652C20506C65617365206B65657092
:102BA000206361722073746174696F6E657279203D
:102BB000616E6420776169742074696C6C206C6943
:102BC00067687420646965730000000000000000FD
:102BD0002DE9FC4D04460D461646554A554BFFF768
:102BE0008BFE1CD8544FDFF854813A464346FFF71A
:102BF0006FFD0022524B00F041F982468B4622467F
:102C00002B463846414600F039F902460B465046FD
:102C10005946FFF789FE04460D4646F00106204658
:102C200029460022474BFFF74FFE05D301224FF004
:102C30007953FFF761FE5DD822462B46FFF748FD2A
:102C400082468B4652465B4620462946FFF740FDAA
:102C5000074688463C483D4952465B46FFF738FDEB
:102C60003B4A3C4B00F00AF952465B46FFF730FD09
:102C7000394A3A4B00F002F93A464346FFF728FD3D
:102C800002460B462046294600F0F8F804460D4659
:102C90003348344952465B46FFF71AFD02460B465D
:102CA0003148324900F0EAF852465B46FFF710FD22
:102CB00002460B462E482F4900F0E0F852465B468C
:102CC000FFF706FD02460B462B482C4900F0D6F8CC
:102CD00002460B4650465946FFF7FAFC0022284BA5
:102CE00000F0CCF802460B4620462946FFF71CFEB2
:102CF00004460D46B00748BF85F0004516F00702B0
:102D00000BD0204629460FF2800303EBC204D4E91E
:102D1000002300F0B3F804460D46300748BF85F0A5
:102D20000045CDE90045DDE90001BDE8FC8D00006E
:102D300057CD9E5E1426D13FAA4C58E87AB6FB3F89
:102D40000000F0BF000040BE845D57134B57B03FFA
:102D5000B2934C19ED5EE43FBEDE02B90240F83F8B
:102D6000DE39028FC7C0743F8AAB1283000CC83FA4
:102D700024D7E508B6D8F03F0F34580E5895FD3FDC
:102D80000000F03F00000000000000000000000014
:102D900066732D3852C1E03F182D4454FB21F93F92
:102DA00066732D3852C1F03F182D4454FB21F93F72
:102DB00066732D3852C10040182D4454FB21094040
:102DC0003FD038C6A6F1044080B501230122182166
:102DD0000420FEF77FFD0123012219210420FEF7C4
:102DE00079FD012301221A210420FEF773FD01233E
:102DF00001221B210420FEF76DFD01BD1E4A126950
:102E00001268012383409A43C9B211F0010111FAFB
:102E100000F01043184909690860704710B5012394
:102E2000012218210420FEF755FD0123012219215A
:102E30000420FEF74FFD012301221A210420FEF792
:102E400049FD012301221B210420FEF743FD182424
:102E50000DE000212000C0B2FFF7D0FF642000F099
:102E600081F801212000C0B2FFF7C8FF641CE4B262
:102E70001C2CEED310BD00002484FF1F70B44FF053
:102E8000004591EA030C44BF6B4000F07BB800BFE3
:102E9000841A71EB030603D2001BB141121973416E
:102EA0004FF4001C1CEB410F34BF7CEB430443E0A8
:102EB0000C0DA4EB1356352E50DC45EAC323DB0A78
:102EC00045EAC121C912B6F120050DDD63FA05F608
:102ED000EB4086EA0305124218BF45F00105C01811
:102EE00051F100010CD213E062FA06F5F2405540B0
:102EF000F3415A40B340F3405A408018594107D338
:102F000049085FEA30005FEA350528BF45F0010552
:102F100001F58011420875F1004250F1000041EBCB
:102F2000045170BC4FF4001C1CEB410F38BF7047BC
:102F30000020090D090570471CEB410F10D252EA21
:102F400043060BD0BCEB410F05D80C0DAB43661EFE
:102F5000342EB5DD02E0AB438018594170BC704798
:102F600070BC7047002104E000BF521E002AFBD154
:102F7000491C814202D2024A1268F7E770470000FA
:102F80005088FF1F841A71EB030604D26E40001BA9
:102F9000B141121973414FF4001C1CEB410F34BFB7
:102FA0007CEB430684E00C0DA4EB1356362E7DDC3F
:102FB000012E43DC45EAC32343EA525312BFD20237
:102FC00092025B08240545EAC12141EA5051D2EB47
:102FD000C020994125D407D1B0FA80F610FA06F145
:102FE00064D00020203608E0B1FA81F6B140C6F185
:102FF000200220FA02F21143B0404FEAF474B4EB1D
:10300000465434F001064FEA74040AD8D6F5001687
:10301000760D04F00044F04061FA06F25040F140B1
:103020004840C00A40EA415021F0004128BF5FEA11
:10303000500550F1000044EBD12137E045EAC323AD
:10304000DB0A45EAC121C90AB6F120050EDD42EAD4
:103050000242120CC5F1200603FA06F6EB4042EAE2
:1030600006056D42984161F100010DE062FA06F536
:10307000F240554063FA06FC82EA0C02F3405A40E3
:103080006D42904161EB030111F4801F05D1641E74
:10309000620502D06D004041494121F4801143088E
:1030A00075F1004350F1000041EB045170BC7047D2
:1030B0001CEB410F15D223F0004352EA43060BD01C
:1030C0004FEA4C0CBCEB410F04D80C0D661E342E9D
:1030D000B7DDEBE7801A994150EA410608BF0021AD
:1030E000E4E708BF1CEB430F28BF6FF00001DDE7EA
:1030F00080B55FF4E1310320FFF7E0F80023002200
:1031000006210420FEF7E6FBCE48FFF7C6F804E0F0
:10311000CD480178CD48FFF7C0F8CD48FFF7BDF89E
:10312000CC48FFF7BAF8CC48FFF7B7F8CB48FFF721
:10313000B4F8CB48FFF7B1F8CA48FFF7AEF8CA4871
:10314000FFF7ABF8C948FFF7A8F84FF49670FFF700
:1031500009FF06210420FEF75EFC00284FD105215F
:103160000120FEF7BBF907210120FEF7B7F9C0489F
:10317000FFF793F80023012218210420FEF7AAFB91
:103180000023012219210420FEF7A4FB00230122C1
:103190001A210420FEF79EFB002301221B2104209C
:1031A000FEF798FB40F6B830FFF7DCFE1023012253
:1031B00005210120FEF7ECFAAE4908601023012238
:1031C00007210120FEF7E4FAAB490860A94800682E
:1031D00000F0F4F9A848006800F00CFA1821042067
:1031E000FEF701FC19210420FEF7FDFB1A21042043
:1031F000FEF7F9FB1B210420FEF7F5FBFEE79248E2
:10320000372101709048007830280ED031281FD027
:1032100032284CD0332854D0342879D0362800F0C6
:103220009480372800F0CD8072E70E210020FEF751
:1032300055F94FF4FA70FFF795FE03220E21002096
:10324000FEF76AFA010089B27DA0FFF726F8F0E7E1
:103250008A490320FFF71AF906210120FEF73EF9FB
:1032600007210120FEF73AF90E210020FEF736F97A
:1032700004210120FEF732F90A2301220E21002049
:10328000FEF786FA7E4908607E48FFF706F80823B5
:10329000012206210120FEF77BFA80B2B0F56B71A6
:1032A00067A0FEF7FAFF3220FFF75CFEEFE77649F2
:1032B0000320FFF7EBF800F005F97248FEF7EDFF89
:1032C000FEE772490320FFF7E1F800F0C5F9704806
:1032D000FEF7E3FF6F48FEF7E0FF40F6354000F0F1
:1032E0006DF96D48FEF7D9FF40F2FB3000F082F92E
:1032F0006A48FEF7D2FF00F071F901006848FEF756
:10330000CCFF00F087F901006648FEF7C6FFFEE734
:1033100065490320FFF7BAF872B68922062100201A
:1033200000F066FA89220721002000F061FA5F4868
:1033300000684FF4FA7101FB00F1012000F08CFAF3
:1033400062B65048FEF7A9FFFEE759490320FFF790
:103350009DF800F0FFF84B48FEF79FFF4FF47A709E
:10336000FFF700FE09E0012209210320FEF70EFB12
:10337000012207210320FEF709FB4FF4FA62002126
:103380000120FEF7DDFC4FF4FA6201210120FEF777
:10339000D7FC4848FEF781FF0320FFF75DF830387F
:1033A00045490880444800880028DCD100220921D2
:1033B0000320FEF7EBFA002201210320FEF7E6FAD4
:1033C000DBE73E48FEF769FF06210120FEF786F89D
:1033D00007210120FEF782F80E210020FEF77EF87B
:1033E00005210120FEF77AF800F0F8F8214908607D
:1033F00000F010F92049086000F0ACF80022092123
:103400000320FEF7C3FA002207210320FEF7BEFACD
:1034100040F6B83200210120FEF792FC40F6B832A7
:1034200001210120FEF78CFC00F04CF81F480168D8
:10343000032000F011FA2248FEF72FFFFEE70000FC
:103440000A256400544100005988FF1F1041000004
:103450009441000044420000F8450000F846000096
:10346000084700009C46000010460000B0460000DF
:10347000702B00004088FF1F3C88FF1F784200002F
:103480004488FF1FA843000084440000A4440000B7
:1034900028460000CC430000F043000074450000C3
:1034A0001847000028470000C44400005088FF1F50
:1034B00034430000904500005688FF1F5C43000025
:1034C000AC45000080B572B600F006F80A21002075
:1034D00000F0C2F962B601BD80B5012301220821C6
:1034E0000120FEF7F7F90123012209210120FEF74F
:1034F000F1F9012300220A210120FEF7EBF9002354
:10350000002208210420FEF7E5F90023002209210A
:103510000420FEF7DFF9FFF757FC00F006F8002261
:103520001A210420FEF732FA01BD80B501230122E1
:1035300015210120FEF7CEF90123012216210120D9
:10354000FEF7C8F90123002217210120FEF7C2F976
:1035500001BD000080B5002342F21072002101205D
:10356000FEF772FA002342F2107201210120FEF7E9
:103570006BFA0023012209210320FEF7ABF9002397
:10358000012207210320FEF7A5F9012303220421CC
:103590000220FEF79FF90123032205210220FEF7F6
:1035A00099F972B689220621002000F021F98922BA
:1035B0000721002000F01CF962B601BD1CB5040013
:1035C000642000F057F800A9200000F02FF800ABAD
:1035D00006220021642000F0A2F813BD00B583B0DC
:1035E00000AB06220021642000F083F800A800F060
:1035F00025F80EBD1CB50400652000F03BF800A9BD
:10360000200000F013F800AB06220021652000F036
:1036100086F813BD00B583B000AB062200216520FB
:1036200000F067F800A800F009F80EBD020E0A705D
:10363000020C4A70020A8A70C87070470021027832
:1036400011EB0261427811EB0241827811EB022109
:10365000C0780918080070475B48006850F40020E3
:1036600059490860594800780006FBD55748302171
:103670000170704780B580B24FF4006148430090FC
:103680005348092101709DF80200524908709DF8C5
:1036900001005149087051489DF80010017000F078
:1036A00080F8012801D1012022E00098B0F5006FD8
:1036B0001DD8474806210170464800210170464840
:1036C0000421017045480C2101704548FF2101701B
:1036D0004448FF2101704448FF2101704348FE2106
:1036E000017000F05EF8012801D1022000E0002006
:1036F00002BD30B4002480B24FF40065684310FA74
:1037000081F0040003E020781870641C5B1C10003A
:10371000421E80B20028F6D1012030BC704770B53F
:1037200082B014001D0089B2042291FBF2F303FB66
:103730001213002B01D0012032E0254A062313701A
:1037400080B24FF40062504310FA81F000900026DE
:1037500004E0361D0098001D00902D1DA4B2A64265
:103760001DD29DF802001B4908709DF801001A49FE
:1037700008701A489DF800100170E8781849087020
:10378000A878184908706878174908701748297888
:10379000017000F006F80128DBD1022000E00020D3
:1037A00076BD0A4830210170084880210170074821
:1037B00000780006FBD5054800783121084201D089
:1037C000012000E00020704704F0014000000240AA
:1037D00007000240060002400500024004000240CB
:1037E0000B0002400A0002400900024008000240AB
:1037F00010B5164B1B684FF4007484402343134CE0
:103800002360C9B2C0B2124B53F82030D2B21404B4
:1038100014F47024D2B2D209D2B2224352F481728B
:1038200043F82120C0B20B4A52F8202052690123EC
:1038300013FA01F132EA0101C0B2064A52F820201F
:103840005161C0B2573000F03EF810BD38800440DE
:103850003884FF1F2484FF1F80B5164A126852F473
:103860000002144B1A60144A126892089200124B1C
:103870001A60C0B20201114BD150C0B20F4911EB16
:103880000011C96851F00101C0B20C4A12EB0012DC
:10389000D160C0B2094911EB0011896851F00301F0
:1038A000C0B2064A12EB00129160C0B2443000F080
:1038B0000AF801BD3C8004400070034000710340E1
:1038C00025490860704710B504005C2C02DB2348D2
:1038D000FEF7E3FC202094FBF0F0002803D0022840
:1038E00027D013D337E00120202194FBF1F202FB13
:1038F000114290401A4908600120202194FBF1F206
:1039000002FB114290401749086024E00120202169
:1039100094FBF1F202FB1142904013490860012030
:10392000202194FBF1F202FB114290400F49086004
:1039300011E00120202194FBF1F202FB11429040A2
:103940000B4908600120202194FBF1F202FB114297
:1039500090400849086010BD08ED00E0D441000027
:1039600080E200E000E100E084E200E004E100E049
:1039700088E200E008E100E0DFF800F0F185FF1FD9
:1039800010B5C0B2002800F01481C0B20100302987
:103990001ED032292CD0602931D0642936D06E292E
:1039A0003BD0782940D07D2945D082294AD08C2926
:1039B0004FD0962954D0A02959D0AA295ED0B42935
:1039C00063D0C82968D0E1296DD0FA2972D078E097
:1039D000A64918220A70A54900224A70A34900226C
:1039E0008A70C0B2652870D2A0490022CA708CE0EB
:1039F0009E4918220A709D4901224A70EEE79B49B0
:103A000018220A70994918224A70E7E79749182244
:103A10000A7096491A224A70E0E7944918220A70FF
:103A200092491F224A70D9E7904913220A708F49A0
:103A300018224A70D2E78D4913220A708B491A2244
:103A40004A70CBE7894913220A7088491C224A70C0
:103A5000C4E786490E220A70844912224A70BDE7E3
:103A600082490E220A70814915224A70B6E77F49C1
:103A70000E220A707D4918224A70AFE77B490E2258
:103A80000A707A491B224A70A8E778490E220A7008
:103A900076491E224A70A1E774490C220A707349C4
:103AA0001C224A709AE771490B220A706F491E2244
:103AB0004A7093E76D490A220A706C491F224A70C6
:103AC0008CE76420FFF75CFFCEE0C0B2C92803D2C8
:103AD00066490122CA7018E00100C9B240F22D12F5
:103AE00089B2914203D261490222CA700DE00100FD
:103AF000C9B240F2911289B2914203D25B490322CA
:103B0000CA7002E059490F22CA705849574AD27800
:103B10000A71C0B21F2803D254480021417148E005
:103B2000C0B23D2803D251480121417141E0C0B2E9
:103B30005B2803D24D48022141713AE0C0B2792896
:103B400003D24A480321417133E0C0B2972803D21F
:103B50004648042141712CE0C0B2B52803D2434845
:103B60000521417125E0C0B2D32803D23F48062188
:103B700041711EE0C0B2F12803D23C4807214171D7
:103B800017E00100C9B240F20F1289B2914203D28C
:103B90003648082141710CE0C0B240F22D1180B2CC
:103BA000884203D231480921417102E02F480F2198
:103BB00041712E484078183080B2322148432B4959
:103BC0000978491C89B290FBF1F429480021017061
:103BD0002848006850F08050264908602648007840
:103BE00050F080002449087024489821017024482E
:103BF0000078C006FBD422480078C0F38100C0B230
:103C00000228F8D11948007810F01F001D490870EB
:103C10001D48002101701548437914480279134862
:103C2000C17812488078FFF7A7FE1048407810F05E
:103C30001F0050F0400014490870114800788006B9
:103C4000FBD50F4800784006FBD50C48007810F0F3
:103C50003F000A4908700A480078C0F38100C0B2EA
:103C60000328F8D12000C0B210BD00BFD085FF1FCF
:103C7000014006403480044008C007400040064030
:103C800006400640044006400540064000800340D0
:103C90000090034000800B4000B0034000B00B4098
:103CA00000F00F4040F00F4080F00F40C0F00F4098
:103CB00000F10F400090044000A0044000B0044018
:103CC00000C0044000D004402C0100005802000055
:103CD00084030000B0040000000000004AF7280040
:103CE00000F22B008894290042702A004AF728002D
:103CF00050AE010070FC010078D101003ED30100FC
:103D0000306001009C0400009C040000B00400002E
:103D1000B00400009C040000B0040000305705000F
:103D200028880400288804002888040030570500EB
:103D30001027000008CF000008CF000008CF0000C7
:103D40001027000078B0090078B0090020A1070012
:103D50001879000010EB09000000000000000000CE
:103D600044480000F22B00000000000000000000AA
:103D70005203000052030000520300000000000044
:103D80000AD7233C0AD7233C0AD7233C0AD7233C33
:103D90000AD7233C690000006900000019000000F8
:103DA000190000006E0000006900000069000000BA
:103DB00019000000190000006E00000079000000EA
:103DC000790000007900000079000000790000000F
:103DD0000100000003000000F40100007017000063
:103DE000030000000A000000E803000001000000DA
:103DF000F4010000FCA9F1D24D62403F0000000038
:103E00000000494000000000000000000000000029
:103E100000000000000000000000000000000000A2
:103E20000000F03F0000000000000000F40000006F
:103E3000190000001900000079000000790000005E
:103E40007900000079000000F30000000B1F000063
:103E50000009000000A0064000B0064000C0064077
:103E600000D0064000A00E4000B00E400000000050
:103E700080B51C481C4988420BD0002006E0194937
:103E8000194A52F8202041F82020401CB0F5826FDA
:103E9000F5D31448FFF714FD1449154A1548801A44
:103EA00003E013780B70521C491C0300581E002BB2
:103EB000F7D111491148401A02E000220A70491C4A
:103EC0000200501E002AF8D10D490E4A0E48801AF1
:103ED00003E013780B70521C491C0300581E002B82
:103EE000F7D101BD0080FF1F000000001084FF1FFC
:103EF0008C3C0000703E00003C86FF1F5A88FF1F6C
:103F0000F085FF1FA43F0000F03F000080B51C4873
:103F1000006850F478501A490860C820FFF730FD57
:103F200018490860174800684FF47A7148431649E9
:103F300008601548006815490968C1F30361491C08
:103F4000B0FBF1F01249086000F003F800F00CF843
:103F500001BD1048006850F480500E4908600E48BA
:103F60004FF4E061016070470C48006850F00100B8
:103F70000A4908600A484FF4A061016070470000D8
:103F8000388004404C88FF1F4888FF1F448004404D
:103F90005088FF1F04800440189004404080044073
:103FA0000CB0044070B4104C24680F4D2D6855F4CB
:103FB0007F050D4E3560090611F0706151EA007001
:103FC000110511F470010843190411F4702108431C
:103FD00006490860002000E0401CC0B29842FBD3B4
:103FE0000148046070BC704700F001404480044008
:103FF000433A5C55736572735C4C6F7569734D6FB2
:104000005C446F63756D656E74735C476974487565
:10401000625C696E6E6F2D4941522D323031335CD6
:104020007372635C647269766572735C46544D5C4E
:1040300046544D2E63000000433A5C55736572731D
:104040005C4C6F7569734D6F5C446F63756D656E25
:1040500074735C4769744875625C696E6E6F2D4954
:1040600041522D323031335C7372635C6472697615
:104070006572735C6164635C6164632E630000005D
:10408000433A5C55736572735C4C6F7569734D6F21
:104090005C446F63756D656E74735C4769744875D5
:1040A000625C696E6E6F2D4941522D323031335C46
:1040B0007372635C647269766572735C6770696F52
:1040C0005C6770696F2E6300433A5C557365727369
:1040D0005C4C6F7569734D6F5C446F63756D656E95
:1040E00074735C4769744875625C696E6E6F2D49C4
:1040F00041522D323031335C7372635C6472697685
:104100006572735C756172745C756172742E6300A4
:104110000A0C596F7520656E74657265643A256383
:104120002C20506C6561736520656E74657220612A
:10413000206E756D6265722066726F6D20312D374D
:1041400020746F2073656C6563742061206D6F64EB
:10415000650A0C000A57656C636F6D6520746F20EB
:1041600074686520536D617274436172203230311E
:10417000332053656E736F72207465616D206465C2
:1041800076656C6F70656D656E7420737973746598
:104190006D0A00003D3D3D3D3D3D3D3D3D3D3D3DCC
:1041A0003D3D3D3D3D3D3D3D3D3D3D3D3D3D3D3D3F
:1041B0003D3D3D3D3D3D3D3D3D3D3D3D3D3D3D3D2F
:1041C0003D3D3D3D3D3D3D3D3D3D3D3D3D3D3D3D1F
:1041D0003D3D0A000A4552522120496E76616C69C4
:1041E00064204952512076616C756520706173734B
:1041F000656420746F20656E61626C652069727100
:104200002066756E6374696F6E210A0080B500F0D8
:1042100009F80A4800884FF6FE71084007490880EF
:1042200001BD000072B606484CF2205101800448DE
:104230004DF62811018062B670470000002005404D
:104240000E200540506C656173652073656C656375
:1042500074206D6F64653A0A2D2D2D2D2D2D2D2D79
:104260002D2D2D2D2D2D2D2D2D2D2D2D2D2D2D2D7E
:104270002D2D2D0A00000000546865206D6F6465C7
:10428000206E6F7720697320313A20416363656C3B
:1042900065726F6D6574657220616E642047797216
:1042A0006F73636F70652054657374000A2A2A2A3D
:1042B0002A64656661756C745F69737220656E74DB
:1042C00065726564206F6E20766563746F72202559
:1042D000642A2A2A2A2A0D0A0A0000000A2A2A2AFF
:1042E0002A2A2A204C454654202620524947485421
:1042F000206564676520706F736974696F6E202A2A
:104300002A2A2A2A2A00000010B5084979441C31BB
:10431000074C7C441A34A14206D0081D0A68511883
:1043200088470146A142F8D110BD00BFE800000057
:10433000F4000000546865206D6F6465206E6F772F
:1043400020697320363A204D6F746F7220436F6E70
:1043500074726F6C20746573740000000A205468D6
:1043600065204D6F6465206973206E6F7720373A42
:104370002053797374656D4C6F6F7020546573743E
:1043800000000000426F74682073696465206465F2
:10439000746563746564203A205354524149474818
:1043A00054206C696E6500000A4576657279746800
:1043B000696E6720496E697469616C697A65642009
:1043C000616C72696768740A000000007772697432
:1043D000696E672074686520753332203A20333166
:1043E000323520746F206D656D6F727920310A004F
:1043F00077726974696E6720746865207533323A24
:10440000203130313920746F206D656D6F727920E5
:10441000320A000073D4FFFF200200003C86FF1F19
:10442000000000000A63757272656E745F6D6964E6
:104430005F6572726F725F706F732069733A2025C7
:10444000640000004C6566742073696465206465CF
:10445000746563746564203A204F4E452D4544478A
:1044600045000000526967687420736964652064C0
:1044700065746563746564203A204F4E452D45444C
:1044800047450000546865206D6F6465206E6F7746
:1044900020697320323A204C696E65617220434373
:1044A00044000000546865206D6F6465206E6F776E
:1044B00020697320333A466C617368204D656D6FD7
:1044C00072790A00546865206D6F6465206E6F779D
:1044D00020697320343A20656E636F6465722074BE
:1044E0006573740080B5FEF76FFCFEF797FC034818
:1044F0000178C9B20248FDF7D0FE01BD04ED00E02D
:10450000AC4200000A63757272656E745F31737439
:104510005F72696768745F656467653A2025640047
:104520000A63757272656E745F3173745F6C656671
:10453000745F656467653A20256400000A2A2A2AA8
:104540002A2A2A20444952204552524F52202A2AD0
:104550002A2A2A2A000000000A63757272656E74A6
:104560005F6469725F6572726F722069733A2025A9
:104570006C6400004E6F772072656164696E67201D
:1045800066726F6D206D656D6F72790A00000000B4
:104590000A0C20496E7075742064697265637469D1
:1045A0006F6E203A2030206F722031000A45766508
:1045B00072797468696E6720696E697465642061D8
:1045C0006C726967687400000A0C675F7533326546
:1045D0006E636F6465725F6C663A256C6400000000
:1045E0000A0C675F753332656E636F6465725F7264
:1045F000743A256C64000000313A416363656C6570
:10460000726F6D65746572266779726F0A000000BB
:10461000363A4D6F746F7220636F6E74726F6C20D8
:10462000746573740A000000466C617368204D6500
:104630006D6F727920696E6974206F6B0A000000DB
:104640000120C046002801D0FFF75EFE0020FEF7E3
:104650004FFD00F000F800F001B8000007463846B2
:1046600000F002F8FBE7000001491820ABBEFBE7B1
:10467000260002000A0A2A2A2A2A2A2A202A2A2A64
:104680002A2A2A0A000000004E4F204544474520B0
:10469000646574656374656400000000343A456EB7
:1046A000636F6465722074657374696E670A0000D5
:1046B000373A53797374656D4C6F6F70205465731E
:1046C000740A000080B5FFF7A1FDFFF7D1FBFFF7EB
:1046D0001DFCFEF70DFDFEE74343442053616D7062
:1046E0006C653A20000000000A2A2A2A2A2A2A2079
:1046F0002A2A2A2A2A2A0A00323A4C696E656172ED
:104700004343440A00000000333A466C617368205A
:104710004D656D6F72790A004D656D6F727920314C
:104720003A25640A000000004D656D6F72792032F1
:104730003A25640A0000000080B50100C9B20320D8
:10474000FDF797FE01BDC046C046C046C046FFF714
:0447500077FF0000EF
:040000050000474769
:00000001FF
