:10000000F87F002011040000A1440000A14400007A
:10001000A1440000A1440000A1440000A14400004C
:10002000A1440000A1440000A1440000A14400003C
:10003000A1440000A1440000A1440000A14400002C
:10004000A1440000A1440000A1440000A14400001C
:10005000A1440000A1440000A1440000A14400000C
:10006000A1440000A1440000A1440000A1440000FC
:10007000A1440000A1440000A1440000A1440000EC
:10008000A1440000A1440000A1440000A1440000DC
:10009000A1440000A1440000A1440000A1440000CC
:1000A000A1440000A1440000A1440000A1440000BC
:1000B000A1440000A1440000A1440000A1440000AC
:1000C000A1440000A1440000A1440000A14400009C
:1000D000A1440000A1440000A1440000A14400008C
:1000E000A1440000A1440000A1440000A14400007C
:1000F000A1440000A1440000A1440000A14400006C
:10010000A1440000A1440000A1440000A14400005B
:10011000A1440000A1440000A1440000A14400004B
:10012000A1440000A1440000A1440000A14400003B
:10013000A1440000A1440000A1440000A14400002B
:10014000A1440000A1440000A1440000A14400001B
:100150004D04000061040000A14400004D050000B2
:10016000A1440000A1440000A1440000A1440000FB
:10017000A1440000A1440000A1440000A1440000EB
:10018000A1440000A1440000A1440000A1440000DB
:10019000A1440000A1440000A1440000A504000007
:1001A000A1440000A1440000A1440000A1440000BB
:1001B000A1440000A1440000A1440000A1440000AB
:1001C000A1440000A1440000A1440000A14400009B
:1001D000A1440000A1440000A1440000A14400008B
:10040000FFFFFFFFFFFFFFFFFFFFFFFFFEFFFFFFFD
:1004100062B64FF000004FF000014FF000024FF0C5
:1004200000034FF000044FF000054FF000064FF0BE
:1004300000074FF000084FF000094FF0000A4FF09E
:10044000000B4FF0000C04F01BF9FEE7DFF8A80AE0
:10045000006850F00100DFF8A01A08607047000043
:1004600080B572B6DFF8940A0168DFF8940A01F0EB
:1004700040F8DFF8900A0168DFF88C0A01F039F8DB
:10048000DFF8780A00210160DFF8780A00210160B6
:10049000DFF8780A006850F00100DFF8701A086091
:1004A00062B601BD002006210800DFF8641A096861
:1004B00001228240114220D0DFF8541A096801223B
:1004C00012FA00F00843DFF8481A0860DFF8440A1F
:1004D00080680069C0F34010002807D0DFF81C0ACC
:1004E0000068401CDFF8141A086006E0DFF80C0A08
:1004F0000068401EDFF8041A08600720DFF8101AB1
:1005000009680122824011421ED0DFF8041A0968EE
:10051000012212FA00F00843DFF8F4190860DFF84E
:10052000F40980680069C00607D4DFF8D8090068BC
:10053000401CDFF8D019086006E0DFF8C809006841
:10054000401EDFF8C01908607047000080B572B621
:10055000DFF8C4090068002804D0022800F0AC804D
:1005600070D3DCE1DFF8B4090068DFF8B41909687A
:10057000884207DADFF8A4090068401CDFF89C19FC
:1005800008602CE0DFF89C090068002827D1DFF81C
:100590008C090021016000F0E0FF0121DFF88809EB
:1005A00000F0B8FFDFF8800901F0ACF8DFF87C0953
:1005B0000068012801D101F06BF9DFF874090068C7
:1005C000012803D1DFF8600901F078F8DFF8640949
:1005D0000068012803D1DFF8500901F082F8DFF844
:1005E00058090078212814D3DFF850090068DFF893
:1005F00050190968484342F2107190FBF1F0DFF89E
:1006000044190968401A212190FBF1F0DFF83819EC
:100610000860DFF830090068DFF82C19096808184D
:10062000DFF820190860DFF824090068DFF81819DE
:100630000968401ADFF814190860DFF8DC080121A6
:1006400001606CE1142301220621012001F016FB58
:1006500080B2DFF8FC180968401ADFF8F818086063
:10066000142301220721012001F008FBDFF8E8181C
:1006700011FA80F0DFF8E4180860DFF8D8080068A5
:10068000DFF8DC180968484342F2107190FBF1F082
:10069000DFF8C8180968DFF8CC281268514342F225
:1006A000107291FBF2F1401ADFF8BC180860DFF815
:1006B00068080221016032E1DFF87C080078212817
:1006C00007D2DFF874080078401CDFF86C18087057
:1006D00067E0DFF8640800210170DFF82008006897
:1006E000DFF8201809680818DFF880180860DFF8BC
:1006F00080080068DFF80C1809680818DFF8FC1794
:100700000968401ADFF8681808600020DFF8F4175D
:100710000860DFF8E8170860DFF858080068DFF8BD
:10072000581809680818DFF844180968401ADFF8F3
:100730004C180860DFF844080068DFF844180968BE
:1007400042F2107291FBF2F14843DFF8381808606A
:10075000DFF828080068DFF83018096842F21072E4
:1007600091FBF2F14843DFF824180860DFF8200815
:100770000068DFF8181809680818DFF8141808600E
:10078000DFF800080068DFF8081809680818DFF8C3
:1007900004180968401A212190FBF1F0DFF8F817DE
:1007A0000860DFF8F0070068DFF8EC170968081840
:1007B000DFF8E0170860DFF8E407006800281CD1C4
:1007C000DFF8A4070068DFF8CC170968401ADFF8E3
:1007D000741709680818DFF8C8170860DFF8880779
:1007E0000068DFF8B0170968401ADFF86017096879
:1007F0000818DFF8B017086010E0DFF8A0070068FD
:1008000001280BD1DFF89807DFF85C170968016051
:10081000DFF89007DFF8501709680160DFF88007FC
:100820000068012809DB00220721032001F00EFBEC
:10083000DFF874070121016012E001220721032083
:1008400001F004FBDFF860075FF0FF310160DFF8C3
:10085000500700685FF0FF314843DFF84417086035
:10086000DFF840070068012809DB00220921032086
:1008700001F0ECFADFF834070121016012E00122F7
:100880000921032001F0E2FADFF820075FF0FF31D1
:100890000160DFF8100700685FF0FF314843DFF8C0
:1008A00004170860DFF8F8060068B0F5FA5F04DDA9
:1008B000DFF8EC064FF4FA510160DFF8E806006853
:1008C000B0F5FA5F04DDDFF8DC064FF4FA510160A1
:1008D000DFF8DC06006800280ED1DFF8C4060268E5
:1008E0000021012001F08CFCDFF8B806026801212C
:1008F000012001F085FC0EE0DFF8B4060068012855
:1009000009D100220021012001F07AFC00220121FE
:10091000012001F075FCDFF8000600210160DFF81E
:1009200094060068401CDFF88C160860DFF8840627
:100930000068DFF884160968884249D2082104203B
:1009400001F0C9FA00281BD1DFF870060068002802
:1009500016D1DFF86C060068401CDFF864160860EA
:10096000DFF860060068DFF858160968884203DA85
:10097000DFF84C0600210160DFF84006012101602C
:10098000DFF838060068012806D1DFF83C06006869
:10099000401CDFF834160860DFF82C060068C82811
:1009A00007D1DFF8180600210160DFF81C060021DE
:1009B0000160DFF800060068C821B0FBF1F201FB1E
:1009C0001200002852D11B21042001F06CFA4DE0E6
:1009D000DFF8E0050068DFF8E0150968884245D1D6
:1009E000DFF8940500210160DFF87405DFF8DC15FD
:1009F00009680160DFF86C05DFF8D415096801604B
:100A0000DFF87C05DFF8CC1509680160DFF87805B0
:100A1000DFF8C41509680160DFF82405DFF8BC15AC
:100A200009680160DFF8B805DFF8B81509680160EA
:100A3000DFF8B405DFF8B41509680160DFF8B00528
:100A4000DFF8B01509680160DFF8AC05DFF8AC1518
:100A500009680160DFF8A805DFF8A81509680160DA
:100A6000DFF8A405DFF8A41509680160DFF8480580
:100A70000068DFF89C1509680818B0F57A60DFF89F
:100A80003415096888427CD3DFF8880500680A219C
:100A9000B0FBF1F201FB1200002803D1DFF878056A
:100AA00000210160DFF870050068002854D1092199
:100AB000042001F010FA002824D1DFF86005006856
:100AC000401EDFF858150860DFF850054068401EEA
:100AD000DFF848154860DFF844058068401EDFF8FD
:100AE0003C158860DFF83405C068401EDFF82C151F
:100AF000C860DFF8240501210160DFF81805002136
:100B0000016029E00621042001F0E5F9002823D145
:100B1000DFF808050068401CDFF800150860DFF802
:100B2000FC044068401CDFF8F4144860DFF8EC0473
:100B30008068401CDFF8E4148860DFF8E004C068D7
:100B4000401CDFF8D814C860DFF8CC040121016034
:100B5000DFF8C00400210160DFF8B8040068401C21
:100B6000DFF8B0140860DFF84C0400683221B0FBF5
:100B7000F1F201FB1200002803D11B21042001F037
:100B800092F9DFF830040068DFF884140968DFF8B0
:100B9000282412685118DFF888241268DFF884349A
:100BA0001B6803FB0211884240F0908001221B2148
:100BB000042001F04BF9DFF808040068DFF8641442
:100BC00009688842C0F28280DFF858040068DFF8C4
:100BD000581451F82000DFF8A0130860DFF844042F
:100BE0000068DFF8E81351F82000DFF8741308609C
:100BF000DFF830040068DFF8D81351F82000DFF880
:100C000064130860DFF81C040068DFF8C81351F8AB
:100C10002000DFF86C130860DFF808040068DFF8D4
:100C2000B81351F82000DFF860130860DFF8F40310
:100C30000068DFF8A81351F82000C1490860DFF808
:100C4000E4030068DFF89C1351F82000DFF89013EC
:100C50000860DFF8D0030068DFF8901351F8200037
:100C6000DFF884130860DFF8BC030068DFF8841342
:100C700051F82000DFF878130860DFF8A803006857
:100C8000DFF8781351F82000DFF86C130860DFF804
:100C900094030068DFF86C1351F82000DFF860134C
:100CA0000860DFF880030068DFF8601351F8200067
:100CB000DFF854130860DFF86C030068401CDFF8AD
:100CC00064130860DFF8640301210160DFF85C034E
:100CD000006801285CD1B7480068FA21B0FBF1F246
:100CE00001FB1200002853D1B5480068CE4951F8E5
:100CF0002000A1490860B2480068B44951F82000BA
:100D000097490860AE480068B14951F820009549FC
:100D10000860AB480068AF4951F820009849086066
:100D2000A7480068AC4951F8200097490860A448DA
:100D30000068AA4951F8200081490860A04800686D
:100D4000A84951F82000A64908609D480068A749B5
:100D500051F82000A449086099480068A54951F855
:100D60002000A349086096480068A44951F8200073
:100D7000A149086092480068A24951F82000A049A2
:100D800008608F480068A14951F820009E4908601A
:100D90008B48006800280FD101221821042001F09F
:100DA00055F801221921042001F050F800221A21DF
:100DB000042001F04BF83AE08148006801280FD187
:100DC00000221821042001F041F8012219210420F9
:100DD00001F03CF801221A21042001F037F826E046
:100DE0007748006802280FD101221821042001F061
:100DF0002DF800221921042001F028F801221A21DF
:100E0000042001F023F812E06D48006803280ED199
:100E100000221821042001F019F8012219210420D0
:100E200001F014F800221A21042001F00FF86148A3
:100E300000686149096801F58C415031884214D33A
:100E40001521012001F047F801280ED116210120BB
:100E500001F041F8002808D11721012001F03BF8EA
:100E6000012802D1724801210160714800680128FF
:100E700010D170480068002807D16F480068401CF6
:100E80006D4908606B48012101606C480068401C96
:100E90006A49086069480068B0F5FA6F05D164488E
:100EA00000210160634800210160634800686449D3
:100EB0000968884204D163480068401C61490860A1
:100EC0006048006860490968884202D13C480021B6
:100ED00001605C4800685C490968B0EB410F02D1D1
:100EE0003748042101605948006850F00100574913
:100EF000086062B601BD00000C710340F887FF1F57
:100F000084450000FC87FF1F9C4500001C710340C6
:100F1000A09004402484FF1F9886FF1F4886FF1F6F
:100F20006085FF1FD486FF1FD886FF1F1086FF1F16
:100F30001486FF1F1886FF1F1C88FF1FD887FF1FFE
:100F40003C86FF1F5C86FF1F9086FF1F6086FF1F89
:100F50009C84FF1F5086FF1F6CF8FFFF4C86FF1F0D
:100F60002486FF1F2886FF1F6486FF1F7C86FF1FC5
:100F70009486FF1F6485FF1F8C86FF1F6886FF1FF6
:100F80003486FF1F7486FF1F3886FF1F7886FF1F79
:100F90008886FF1F8086FF1F8486FF1F1C86FF1F19
:100FA0005486FF1F5886FF1F6C86FF1F7086FF1F29
:100FB000B086FF1F9C86FF1F6885FF1FA086FF1F4E
:100FC0002086FF1F5485FF1FA486FF1F6084FF1F1C
:100FD0007484FF1FA084FF1FB484FF1FC884FF1FF9
:100FE0004086FF1FDC84FF1F4486FF1FF084FF1F25
:100FF0007885FF1F1885FF1F7C85FF1F2C85FF1F2D
:101000008085FF1F4085FF1FC886FF1F0485FF1FC7
:101010005C85FF1F2C86FF1F3086FF1F8884FF1F03
:101020005885FF1FA886FF1F4C84FF1FB886FF1F2F
:10103000AC86FF1FC086FF1FBC86FF1FC486FF1F34
:101040006C85FF1FB486FF1F7085FF1F3C71034036
:1010500010B50C001168012902D0022904D009E062
:10106000C0B25168884705E0916808709068401CDC
:101070009060FFE72068401C206010BD30B41C0069
:10108000002300250570401C002A19D0096800299A
:101090000AD1302101705B1C180030BC704730351C
:1010A00011000570401C5B1C0029F5D091FBF4F287
:1010B00004FB1215002DF2D5E94311F13105EFE7DC
:1010C0000968002908D1302101705B1CE4E737353D
:1010D00011000570401C5B1C0029DDD0B1FBF4F24F
:1010E00004FB12150A2DF2D23035F1E7F8B50400F1
:1010F0000D0016001F0005E03A0031003020FFF718
:10110000A7FF641CAC42F7DBF1BDF8B504000D008D
:1011100016001F0005E03A0031002020FFF798FF7D
:10112000641CAC42F7DBF1BD2DE9F04F8DB005003A
:101130001600002000900C0005E02A0000A918000D
:10114000FFF786FF641C2378002B00F0CE81252B4F
:1011500012D00A2B05D02A0000A91800FFF778FF4B
:1011600009E02A0000A90D20FFF772FF2A0000A95C
:101170000A20FFF76DFFE5E70027002101E057F0A7
:10118000010700291BD1641C207820280BD02328BC
:101190000FD02B2804D02D28F1D0302806D00BE01A
:1011A00057F00207EDE757F00407EAE757F00807A2
:1011B000E7E757F01007E4E7641E0121E1E75FF07D
:1011C0000008002104E00A2000FB0830B0F13008DC
:1011D000002908D1641C2378180030380928F2D976
:1011E000641E0121F4E7641C20782E280BD1002115
:1011F000FFE7002908D1641C207830380928F8D985
:10120000641E0121F5E7641E641C20784C2806D07A
:10121000682802D06C2801D002E002E001E000E082
:10122000641E641C23781800582878D0622800F0C7
:10123000DA80632800F02481642813D0692811D053
:101240006E2800F04D816F2800F0C280702800F0F9
:10125000D580732800F01B81752800F0DA8078288B
:101260005DD06AE730680390361D0A23012203A986
:1012700004A8FFF703FF824604A81AEB00090398AD
:10128000002804D52D2002901AF1010A11E038003F
:10129000800704D52B2002901AF1010A09E03800DA
:1012A000400704D5202002901AF1010A01E0002035
:1012B00002905FF0000B3800000711D5029800285B
:1012C00004D02A0000A90298FFF7C2FE5FF0010BCC
:1012D0002B0000AA41465046FFF708FFC24612E025
:1012E0003800C0070FD42B0000AA41465046FFF734
:1012F0000CFF0298002804D02A0000A90298FFF7EA
:10130000A7FE5FF0010BBBF1000F07D10298002888
:1013100004D02A0000A90298FFF79AFEA3E03068E3
:101320000190361D1023002201A904A8FFF7A6FE94
:10133000824604A81AEB00095FF0000B3800000792
:1013400016D53800C0060BD52A0000A93020FFF7BB
:101350007FFE2A0000A97820FFF77AFE5FF0010BDC
:101360002B0000AA41465046FFF7C0FEC2461CE0D3
:101370003800C00719D43800C00601D51AF1020A96
:101380002B0000AA41465046FFF7BFFE3800C006BA
:101390000BD52A0000A93020FFF75AFE2A0000A929
:1013A0007820FFF755FE5FF0010B3800C0060ED520
:1013B000BBF1000F0BD12A0000A93020FFF748FE37
:1013C0002A0000A97820FFF743FE1AF1020A4AE03A
:1013D00030680190361D0823002201A904A8FFF7F8
:1013E0004DFE82461FE030680190361D0223002228
:1013F00001A904A8FFF742FE824614E0306801907C
:10140000361D1023002201A904A8FFF737FE8246EB
:1014100009E030680190361D0A23002201A904A8C2
:10142000FFF72CFE824604A81AEB000938000007DB
:1014300007D52B0000AA41465046FFF757FEC2468B
:1014400011E03800C0070ED42B0000AA41465046D8
:10145000FFF75BFE07E02A0000A999F80000FFF7FC
:10146000F7FDB9F1010999F800000028F3D1F80758
:1014700005D52B0000AA41465046FFF746FE61E61F
:101480003078361D2A0000A9FFF7E2FD5AE6D6F8AB
:101490000090361DB9F1000F21D0484600F00CFF36
:1014A00082463800C0070ED42B0000AA41465046A1
:1014B000FFF72BFE07E02A0000A999F80000FFF7CC
:1014C000C7FD19F1010999F800000028F3D1F807C8
:1014D00005D52B0000AA41465046FFF716FE31E61F
:1014E0003068361D009901602CE600980DB0BDE80B
:1014F000F08F0EB400B584B0012100910449019130
:1015000005AA010000A8FFF70FFE04B05DF810FB6C
:10151000F546000010B50400DFF81C04016010E07F
:1015200000F015F8200000F030F800F042F820003C
:1015300000F050F8DFF804040088401CDFF8FC13CA
:101540000880DFF8F40300680128E9D010BD80B5F9
:101550000921012000F0A7FC01BD80B5DFF8E00300
:101560000068002810D1DFF8D80301210160DFF8FE
:10157000D40301210160DFF8C403002101800122AE
:101580000821012000F062FC01BD10B504000A2111
:10159000012000F0A0FC012805D1DFF8A00300889D
:1015A0005721015504E0DFF8940300886F210155AD
:1015B00010BD80B5DFF884030088012809D1DFF869
:1015C00080030068012804D100220821012000F0D6
:1015D0003DFC01BD10B50400DFF860030088FF2862
:1015E00011D1DFF85C0300210160DFF8580300210E
:1015F0000160200000F017F8200000F030F8DFF85C
:1016000038030021016010BD10B504009EA1032025
:1016100000F048FFDFF83013032000F043FF200004
:1016200000F04CF810BD002105E089B20A1892794B
:1016300089B20A54491C89B2DFF81023126891421A
:10164000F3DBDFF80813096803E089B258220A5473
:10165000491C4FF4807289B29142F6D3704710B49E
:1016600000230021BA4A00241460BA4A00241460FE
:10167000002205E092B2145C572C00D1491C521C88
:1016800092B2B24C2468A24205DA92B2145C6F2C7A
:10169000F0D15B1CF3E79BB2AC480068834203D1F6
:1016A000AB480121016007E089B2A8480068814287
:1016B00002D1A8480121016010BC704738B5040070
:1016C000002505E0ADB2295D70A0FFF712FF6D1C8B
:1016D0004FF48070ADB28542F4D36BA0FFF709FFE1
:1016E00031BD38B50400002505E0ADB2295D67A025
:1016F000FFF7FFFE2D1DADB2FA2DF6D362A0FFF766
:10170000F8FE31BD10B582B004009348002101609D
:101710009248002101609248F32101609148002124
:1017200001609148006800900EE00098005D572825
:1017300007D18B4800990160874801210160012091
:1017400000900098401E009000980128EDDA86482D
:10175000006800900EE00098005D572807D181488E
:10176000009901607D4801210160F32000900098FC
:10177000401C00900098754909688842EBDB764868
:10178000006801280ED17548006801280AD1744804
:101790000068744909680818022190FBF1F0734948
:1017A000086031E06C480068012816D16B48006879
:1017B000002812D16A4800686D49096808186B4909
:1017C00008606748006861490968491E88421BD162
:1017D000664868490968016016E05F4800680028AB
:1017E00012D15E48006801280ED15E480068624947
:1017F0000968401A5D4908605A480068002803D10A
:101800005A485C490968016051480068012803D1C1
:1018100056485849096801604E480068012803D1BC
:1018200052485449096801605048006851490968A4
:10183000401A524908605148006800F061FE504962
:10184000096800F06DFE00F0D7FE00F0FDFE0022FA
:101850004C4B00F049FF01F019F84B4908604B4828
:101860004249096801604048404909680160200018
:1018700000F001F813BD3B48006839490968401A77
:1018800043490860704700000A000000256300001B
:1018900080B5364801683F48FFF72BFE3E48FFF70A
:1018A00028FE3E48FFF7B0FE3D48FFF722FE2A48DB
:1018B0000068012807D129480068012803D1394868
:1018C000FFF717FE21E024480068012807D12348CC
:1018D0000068002803D13448FFF70BFE15E01E48CE
:1018E0000068002807D11D480068012803D12F484F
:1018F000FFF7FFFD09E01848006818490968084328
:10190000002802D12A48FFF7F4FD2A48FFF7F1FD2D
:10191000144801682848FFF7ECFD11480168274882
:10192000FFF7E7FD2648FFF7E4FD14480168254866
:10193000FFF7DFFD01BD0000D486FF1F1888FF1FE1
:10194000CC86FF1FD086FF1F944600007485FF1FC2
:10195000F087FF1FF487FF1FE887FF1FEC87FF1F3B
:101960009085FF1FE087FF1F8885FF1F8485FF1F6D
:101970007C85FF1F8085FF1F7885FF1FD887FF1F8D
:10198000C886FF1F00408F40DC87FF1F8C85FF1F2C
:10199000E487FF1FE0430000A4460000D886FF1F35
:1019A0003046000040430000004400002044000096
:1019B0004446000098420000C0440000DC4400009F
:1019C000F84400001445000038B505000C00EDB2E5
:1019D000002D04D1B4F10800C0B20B280BD3EDB236
:1019E000012D03D1201FC0B20E2804D32221DFF81D
:1019F0003C0300F061FFEDB2002D03D0012D00F09B
:101A00008280FEE0DFF82803006850F00060DFF815
:101A100020130860DFF81C03006830F09000DFF846
:101A200014130860DFF80C0300210160E4B2200009
:101A3000083801280CD9801E01281BD9801E0128D6
:101A40002BD9801E01283AD9C01E012849D959E056
:101A5000DFF8E402006850F48060DFF8DC12086010
:101A6000E4B2A00000F1804010F59420002140F87D
:101A7000201CC6E0DFF8C00200684FF40071084384
:101A8000DFF8B4120860E4B2A00000F1804010F565
:101A90009220002140F80C1CEBE7DFF89C02006864
:101AA00050F48060DFF890120860E4B2A00000F10A
:101AB000804010F59420002140F8281CD9E7DFF879
:101AC0007802006850F40060DFF86C120860E4B23D
:101AD000A00000F1804010F59620002140F8381C4D
:101AE000C7E7DFF85402006850F40050DFF84812EE
:101AF0000860E4B2A00000F1804010F59A200021B7
:101B0000C161B6E77DE0DFF83402006850F00060A4
:101B1000DFF828120860DFF81C02006830F410407B
:101B2000DFF810120860DFF80C0200210160E4B257
:101B30002000001F03280BD9001F01281AD9801E7E
:101B4000032829D9001F012838D9C01E48D057E0E2
:101B5000DFF8E401006850F40050DFF8DC110860A1
:101B6000E4B2A00000F1804010F59A20002140F876
:101B7000101C45E0DFF8C001006850F48060DFF819
:101B8000B8110860E4B2A00000F1804010F5942084
:101B9000002140F8201C33E0DFF89C01006850F47D
:101BA0008060DFF894110860E4B2A00000F180408A
:101BB00010F59420002140F8181C21E0DFF878018E
:101BC000006850F48060DFF870110860E4B2A00093
:101BD00000F1804010F59420002140F8181C0FE01F
:101BE000DFF8540100684FF400710843DFF8481132
:101BF0000860E4B2DFF84801002140F82410FFE754
:101C0000FFE731BD70B504000D0016000020E4B2FE
:101C1000002C04D1B5F10800C0B20B280BD3E4B2FC
:101C2000012C03D1281FC0B20E2804D38721DFF86E
:101C3000FC0000F041FE3200D2B22900C9B22000FF
:101C4000C0B200F051F8E4B2DFF8F80050F8240018
:101C500000680006F7D5E4B23A4850F8240000695D
:101C6000E4B2384951F82410096831F08001E4B237
:101C7000344A52F82420116080B270BD2DE9F84337
:101C800004000D0016001F005FF00008E4B2002CF5
:101C900004D1B5F10800C0B20B280AD3E4B2012C7C
:101CA00003D1281FC0B20E2803D3BE211F4800F065
:101CB00003FE5FF000090BE03200D2B22900C9B286
:101CC0002000C0B2FFF79EFF18FA80F819F1010951
:101CD0005FFA89F9FFB2B945EED3FFB2B8FBF7F866
:101CE000404680B2BDE8F28380B511F01F0151F08B
:101CF0004001154B1972910011F00C0151F0500187
:101D0000114A1170104914224A700F4941F23422CD
:101D10004A800D4945F278628A800B49C0B2094A6F
:101D200052F8200000F012F801BD0000F43F00005E
:101D30003C800440188004403880044030800440D7
:101D4000009004401C84FF1F0086FF1F0A788260F9
:101D50004A78C2604A8882618A88C2618A7902624E
:101D6000CA794262CA6802650A7A0260497A4160A9
:101D7000704750F8041B61B150F8042BD30744BFDF
:101D8000A9F101039A18002342F8043B091FFAD174
:101D9000EFE77047F8B504000D0016001F00EDB224
:101DA000202D02D2FFB2022F03D32421534800F08A
:101DB00083FDEDB2E4B2524850F82400F6B24FF47D
:101DC0008071314340F82510F00705D5F6B2032E97
:101DD00002D0F6B2132E0DD1E4B24A4850F82400D6
:101DE00040690121A9408843E4B2464951F82410D2
:101DF00048612AE0E4B2434850F8240040690121D8
:101E0000A9400843E4B23F4951F824104861FFB2A9
:101E1000012F0DD1E4B23B4850F8240000680121A5
:101E2000A9400843E4B2374951F8241008600CE097
:101E3000E4B2344850F8240000680121A9408843E6
:101E4000E4B2304951F824100860F1BD70B50400C7
:101E50000D001600EDB2202D02D2F6B2022E03D3F1
:101E60004B21264800F028FDF6B2012E0DD1E4B238
:101E7000244850F8240000680121A9400843E4B236
:101E8000204951F8241008600CE0E4B21D4850F8D5
:101E9000240000680121A9408843E4B2194951F89F
:101EA0002410086070BD38B504000D00EDB2202D7F
:101EB00003D36021114800F0FFFCE4B2114850F850
:101EC000240000680121A9404840E4B20D4951F8BE
:101ED0002410086031BD38B504000D00EDB2202D8E
:101EE00003D37121054800F0E7FCE4B2054850F83F
:101EF00024000069E84010F0010032BD3C400000C1
:101F00003884FF1F2484FF1F2DE9F04104000D00D9
:101F100016001F00DFF8580300684FF47A71484339
:101F20005FEA5008E4B2002C0DD0E4B2012C02D0DC
:101F3000E4B2012C02D1EDB2022D04D33821DFF836
:101F4000340300F0B9FC5FEA5800B04204D23921F2
:101F5000DFF8200300F0B0FC5FEA1840B0FBF6F1B8
:101F6000002000E0401C89B251FA00F2012AF9DA9F
:101F700038FA00F1B1FBF6F189B24A1C02FB07F214
:101F800042F21073B2FBF3F2E4B2002C05D0022C43
:101F900000F0B880C0F08980E1E0DFF8DC321B6837
:101FA00053F08073DFF8D0623360EDB2002D0BD0B8
:101FB000022D25D016D3042D3ED02FD3062D57D079
:101FC00048D3072D62D06FE0DFF8B0321B6853F4BE
:101FD0000063DFF8A8623360DFF8A4324FF4806654
:101FE0001E60BCE0DFF894321B6853F40063DFF836
:101FF0008C623360DFF88C324FF480661E60F0E74D
:10200000DFF878321B6853F40063DFF870623360E6
:10201000DFF874324FF480661E60E2E7DFF85C326E
:102020001B6853F40063DFF854623360DFF85C32FE
:102030004FF480661E60D4E7DFF840321B6853F42B
:102040008053DFF838623360DFF844324FF4806643
:102050001E60C6E7DFF824321B6853F48053DFF8B4
:102060001C623360DFF82C324FF480661E60B8E7E4
:10207000DFF808321B6853F48053DFF800623360E6
:10208000DFF814324FF480661E60AAE7DFF8EC3107
:102090001B6853F48053DFF8E4613360DFF8FC31F0
:1020A0004FF480661E609CE7A8E0DFF8CC311B6827
:1020B00053F00073DFF8C0613360EDB2002D02D041
:1020C000012D0FD01DE0DFF8B4311B684FF400760E
:1020D0003343DFF8A8613360DFF8C4314FF4407652
:1020E0001E603CE0DFF894311B684FF40076334308
:1020F000DFF888613360DFF8AC314FF440761E6062
:10210000EFE77BE0DFF8A0311B6853F08073DFF866
:1021100098613360EDB2002D02D0012D0FD01DE08B
:10212000DFF858311B684FF400763343DFF84C6119
:102130003360DFF878314FF440761E600FE0DFF84F
:102140003C311B684FF400763343DFF83061336075
:10215000DFF85C314FF440761E60EFE74EE0EDB201
:10216000E4B2DFF8503153F8243013EBC503EDB27D
:10217000E4B2DFF8406156F8246016EBC506F66855
:1021800036F00406DE60EDB2E4B2DFF8283153F831
:10219000243013EBC5032826DE60E4B2DFF81431E7
:1021A00053F82430C0B210F0070050F02800186037
:1021B000E4B2DFF8000150F824000023C364E4B265
:1021C000DFF8F00050F8240089B28160E4B2DFF853
:1021D000E40050F824000021C164EDB2E4B2DFF85D
:1021E000D40050F8240010EBC50092B20261E4B2B2
:1021F000DFF8C00050F8240000214160BDE8F08104
:1022000070B504000D001600E4B2002C0ED0E4B24C
:10221000012C02D0E4B2012C02D1EDB2022D05D383
:1022200040F27911DFF84C0000F046FB42F21170E9
:10223000864205D34FF4BD71DFF8380000F03CFB57
:10224000E4B2DFF8700050F824008068401C00FB06
:1022500006F042F21071B0FBF1F0EDB2E4B2DFF83B
:10226000541051F8241011EBC501086170BD000035
:102270001488FF1FAC3F00003C80044038800440BD
:1022800004B0044008B004400CB0044010B0044056
:1022900010C0044014C0044018C004401CC00440D6
:1022A0002090044024900440308004402890044052
:1022B0002C9004401084FF1F0021002802D1002030
:1022C00006E0491C0200501C1278002AF9D10800CF
:1022D0007047000038B504000D00E4B2002C08D0AF
:1022E000022C24D014D3042C3FD02FD3052C4BD058
:1022F00059E03321724800F0DFFA3E21704800F0C7
:10230000DBFA7048006850F480606E4908604AE06B
:102310006D484FF4407101606C484FF440710160AA
:102320006848006850F40060664908603BE068480F
:102330004FF44071016067484FF44071016061489B
:10234000006850F480505F4908602CE062484FF408
:102350004071016061484FF4407101605948006864
:1023600050F40050574908601DE05D484FF440713B
:1023700001605C484FF4407101605B48006850F4B4
:102380008060594908600EE058484FF44071016080
:1023900057484FF4407101605348006850F40060A2
:1023A00051490860FFE7E4B2524850F82400C07871
:1023B00010F0F300E4B24F4951F82410C870E4B2B1
:1023C0004C4850F8240000218170E4B2002C08D061
:1023D0000020E4B2012C04D050F00000C0B200286C
:1023E00005D0454800684FF47A71484304E04348FB
:1023F00000684FF47A7148432901B0FBF1F1E4B26F
:102400003C4A52F82420127812F0E00289B20B0AFA
:1024100013F01F031A43E4B2364B53F824301A70FA
:10242000E4B2344A52F82420517040012A01B0FB32
:10243000F2F089B2B0EB4110E4B22E4951F8241009
:10244000897A11F0E002E4B22A4951F8241010F020
:102450001F0010438872E4B2264850F82400C07868
:1024600050F00C00E4B2234951F82410C87031BD7B
:10247000C0B2204951F8201009798906F8D5C0B2B8
:102480001C4951F82000C0797047C0B2194A52F86F
:10249000202012791206F8D5C0B2164A52F8200050
:1024A000C171704738B504000D0005E0297820009F
:1024B000C0B2FFF7EAFF6D1C28780028F6D131BDC5
:1024C00084400000348004400CB0044010B004404C
:1024D0000CC0044008C0044014D0044010D0044094
:1024E00064D0044060D004402880044024D00440DC
:1024F00020D004409C85FF1F0C88FF1F1488FF1FFD
:10250000002800BF0AD0B0FA80F18840D1F19D01C7
:10251000C905020672F1004241EB1020704700002D
:10252000FF2212EAD05C1DBF12EAD15394459342B8
:102530002BE09C44D30780EA01021A4043EA0020C2
:1025400043EA0121A1FB0030410038BF40007CF18B
:102550007F010BDBFE294ADA5B0842EAC15153EAEC
:10256000006373F1004C51EB10207047D1F1080C5F
:10257000DCF120012FDB5B0810FA01F10B4373F152
:10258000004120FA0CF05041704794451CBF02EA0C
:10259000D153934280EA010202F000421DD0400074
:1025A00019D0490017D05BB9634514D00902B1FABC
:1025B00081F39940BCEB030CC00140F00040C1E73F
:1025C0000002B0FA80FC10FA0CF0B3EB0C0CC9015D
:1025D00041F00041B6E71000704740000AD04900C2
:1025E00008D010F1807F94BF11F1807F02E042F0AB
:1025F000FF407047D04370475FF0FF0C1CEAD0519A
:1026000014BF614506E0C110400721F0E04101F12F
:102610006051704779B900F0004100020AD0B0FA69
:1026200080FC00FA0CF001F16051A1EB0C5101EBC0
:10263000D0214005704741020CBF40F4E0016FF02B
:10264000000100207047000013B5DDE90001C1F36F
:102650000A5240F2FF74A24208D0002A04BF0903C4
:1026600050EA11300ED1DDE900011CBD090350EA2A
:102670001130F8D101980028174801D517491CBD21
:1026800017491CBDDDE900010022002300F01AF902
:1026900007D2DDE9000181F00041CDE90001082405
:1026A00000E00024DDE9000101220E4B00F022F9D8
:1026B00009D800201946DDE9002300F033F9CDE9FF
:1026C000000184F002042246DDE9000102B0BDE809
:1026D000104000F04DBA00BF182D4454FB21F9BF43
:1026E000FB21F93F0000F03FB0B581EA030C0CF08C
:1026F000004C40F2FF7515EA11541DBF15EA13573F
:10270000AC42AF4239E0E41923EA455343F4801365
:10271000C90241F0004141EA505EC7021100A7FB27
:10272000020200284FF00000EEFB01204FF00001F4
:10273000E3FB072118BF42F0010240180021494184
:10274000E3FB0E01A4F580640F0302D25200404166
:10275000494154F101046CDD470872F1004250F127
:10276000000051EB0451A1F580115CBF41EA0C015E
:10277000B0BD4CEA05510020B0BD05EA1357AC428C
:1027800014BFAF4241E050EA410E1CBF52EA430E73
:1027900002E061460020B0BD24423C441BD15FEA08
:1027A000070EF6D0090302BF01460020AEF1140E59
:1027B000B1FA81F7AEEB070401FA07FE0C37C7F157
:1027C000200100FA07F7C8404EEA000E23EA4553FD
:1027D00043F48013A2E733F00043B3FA83F704BF56
:1027E000B2FA82FE77440B3FE41BB7F1200E2FBFF5
:1027F00002FA0EF3BB40C7F1200E22FA0EFE38BFDC
:1028000043EA0E03BA40641C82E750EA410E14BF4B
:1028100052EA430E6FF000014FF4001717EB430F1D
:102820008ABF194617EB410FB5E74CEA0551002066
:10283000B0BDD4F10104B4F120070FDAC4F12007D0
:10284000520828BF42F0010210FA07F501FA07F713
:10285000E1BF2A43E0403843E1400FE0352C98DCEB
:10286000C7F1200452EA400220FA07F218BF42F0F2
:10287000010231FA07F0A1400A43002172F100423F
:1028800050F1000051EB0C01B0BD0000400D40EADA
:10289000C120490080F00D8040F00040490DA1F5B5
:1028A0008061491C05D4D1F11F0154BFC840C01735
:1028B00070474FF00000704780B500F055FA00F007
:1028C0007DFAFCE74FF4001C1CEB410F94BF1CEB9E
:1028D000430F09E041EA030C50EA4C0C52EA0C0C9D
:1028E00003D2994208BF9042704714BF8B42824284
:1028F000704700004FF4001C1CEB410F94BF1CEB11
:10290000430F09E041EA030C50EA4C0C52EA0C0C6C
:1029100003D28B4208BF8242704714BF9942904253
:1029200070470000F0B540F2FF7581EA030C0CF02F
:10293000004C15EA11541DBF15EA1357AC42AF42C3
:10294000E5E0BC41C1F31301C3F31303801A9941BD
:1029500043F4801304D2641E400049418018594159
:10296000C90241EA5051B1FBF3F603FB1611A2FB79
:102970000675D7EBC020A94102D2761E80185941B6
:10298000C90241EA5051B1FBF3FE03FB1E11A2FB49
:102990000E75D7EBC020A94103D2AEF1010E80180D
:1029A0005941890241EA9051760546EA8E2EB1FBE3
:1029B000F3F603FB1611A2FB0675D7EB8020A941A5
:1029C00002D2761E80185941C90241EA50514EEA9E
:1029D000060EB1FBF3F603FB1611A2FB0675D7EB4F
:1029E000C020A94102D2761E80185941C90241EA8D
:1029F0005051B1FBF3F703FB1711A2FB0735D3EBE3
:102A0000C020A94167F100070CBF004247F0010751
:102A100066F3D5274FEA1E31B80814F5806412DD3D
:102A2000BD0775F1004250EB0E5051EB045111F50A
:102A3000801F5CBF41EA0C01F0BD4CF07F6141F0AA
:102A4000E0410020F0BDBD076D0840EA0E5041F4A2
:102A50008011D4F10104B4F120060ADAC4F1200691
:102A60000200E04001FA06F3E1401843B24015438A
:102A70000EE0342C13DCC6F1200445EA40056D0855
:102A800020FA06F2154321FA06F0A1400D43002179
:102A900075F1004250F1000051EB0C01F0BD002037
:102AA0005FEA0C01F0BDCFB992185B41B3FA83F72E
:102AB00004BFB2FA82F6BF190B3FB7F120062FBF51
:102AC00002FA06F3BB40C7F1200622FA06F638BF29
:102AD0003343BA401CB1E419641E33E77F4231F03E
:102AE0000041B1FA81F404BFB0FA80F6A4190B3C9E
:102AF000B4F120062FBF00FA06F1A140C4F1200670
:102B000020FA06F638BF3143A0403C1B1AE7AC421E
:102B10001ABF05EA1357AF4212E050EA41061CBF44
:102B200052EA4306BFE750EA4107304661461CBF00
:102B300041EA0551F0BD52EA430C08BFC143F0BD64
:102B400000204FF4001616EB410F98BF16EB430F11
:102B500008BF16EB410F24BFC14305E016EB430F3E
:102B60000CBF61464CEA0551F0BD000000000000BA
:102B70002DE9FC4D04460D461646554A554BFFF7C8
:102B8000B9FE1CD8544FDFF854813A464346FFF74C
:102B9000ABFD0022524B00F041F982468B462246A3
:102BA0002B463846414600F039F902460B4650465E
:102BB0005946FFF7B7FE04460D4646F0010620468B
:102BC00029460022474BFFF77DFE05D301224FF037
:102BD0007953FFF78FFE5DD822462B46FFF784FD21
:102BE00082468B4652465B4620462946FFF77CFDCF
:102BF000074688463C483D4952465B46FFF774FD10
:102C00003B4A3C4B00F00AF952465B46FFF76CFD2D
:102C1000394A3A4B00F002F93A464346FFF764FD61
:102C200002460B462046294600F0F8F804460D46B9
:102C30003348344952465B46FFF756FD02460B4681
:102C40003148324900F0EAF852465B46FFF74CFD46
:102C500002460B462E482F4900F0E0F852465B46EC
:102C6000FFF742FD02460B462B482C4900F0D6F8F0
:102C700002460B4650465946FFF736FD0022284BC8
:102C800000F0CCF802460B4620462946FFF74AFEE4
:102C900004460D46B00748BF85F0004516F0070210
:102CA0000BD0204629460FF2800303EBC204D4E97F
:102CB000002300F0B3F804460D46300748BF85F006
:102CC0000045CDE90045DDE90001BDE8FC8D0000CF
:102CD00057CD9E5E1426D13FAA4C58E87AB6FB3FEA
:102CE0000000F0BF000040BE845D57134B57B03F5B
:102CF000B2934C19ED5EE43FBEDE02B90240F83FEC
:102D0000DE39028FC7C0743F8AAB1283000CC83F04
:102D100024D7E508B6D8F03F0F34580E5895FD3F3C
:102D20000000F03F00000000000000000000000074
:102D300066732D3852C1E03F182D4454FB21F93FF2
:102D400066732D3852C1F03F182D4454FB21F93FD2
:102D500066732D3852C10040182D4454FB210940A0
:102D60003FD038C6A6F1044080B5012301221821C6
:102D70000420FFF70FF80123012219210420FFF797
:102D800009F8012301221A210420FFF703F8012387
:102D900001221B210420FEF7FDFF01BD1E4A12691E
:102DA0001268012383409A43C9B211F0010111FA5C
:102DB00000F01043184909690860704710B50123F5
:102DC000012218210420FEF7E5FF01230122192129
:102DD0000420FEF7DFFF012301221A210420FEF761
:102DE000D9FF012301221B210420FEF7D3FF182461
:102DF0000DE000212000C0B2FFF7D0FF642000F0FA
:102E000081F801212000C0B2FFF7C8FF641CE4B2C2
:102E10001C2CEED310BD00002484FF1F70B44FF0B3
:102E2000004591EA030C44BF6B4000F07BB800BF43
:102E3000841A71EB030603D2001BB14112197341CE
:102E40004FF4001C1CEB410F34BF7CEB430443E008
:102E50000C0DA4EB1356352E50DC45EAC323DB0AD8
:102E600045EAC121C912B6F120050DDD63FA05F668
:102E7000EB4086EA0305124218BF45F00105C01871
:102E800051F100010CD213E062FA06F5F240554010
:102E9000F3415A40B340F3405A408018594107D398
:102EA00049085FEA30005FEA350528BF45F00105B3
:102EB00001F58011420875F1004250F1000041EB2C
:102EC000045170BC4FF4001C1CEB410F38BF70471D
:102ED0000020090D090570471CEB410F10D252EA82
:102EE00043060BD0BCEB410F05D80C0DAB43661E5F
:102EF000342EB5DD02E0AB438018594170BC7047F9
:102F000070BC7047002104E000BF521E002AFBD1B4
:102F1000491C814202D2024A1268F7E7704700005A
:102F20001488FF1F841A71EB030604D26E40001B45
:102F3000B141121973414FF4001C1CEB410F34BF17
:102F40007CEB430684E00C0DA4EB1356362E7DDC9F
:102F5000012E43DC45EAC32343EA525312BFD20297
:102F600092025B08240545EAC12141EA5051D2EBA7
:102F7000C020994125D407D1B0FA80F610FA06F1A5
:102F800064D00020203608E0B1FA81F6B140C6F1E5
:102F9000200220FA02F21143B0404FEAF474B4EB7D
:102FA000465434F001064FEA74040AD8D6F50016E8
:102FB000760D04F00044F04061FA06F25040F14012
:102FC0004840C00A40EA415021F0004128BF5FEA72
:102FD000500550F1000044EBD12137E045EAC3230E
:102FE000DB0A45EAC121C90AB6F120050EDD42EA35
:102FF0000242120CC5F1200603FA06F6EB4042EA43
:1030000006056D42984161F100010DE062FA06F596
:10301000F240554063FA06FC82EA0C02F3405A4043
:103020006D42904161EB030111F4801F05D1641ED4
:10303000620502D06D004041494121F480114308EE
:1030400075F1004350F1000041EB045170BC704732
:103050001CEB410F15D223F0004352EA43060BD07C
:103060004FEA4C0CBCEB410F04D80C0D661E342EFD
:10307000B7DDEBE7801A994150EA410608BF00210D
:10308000E4E708BF1CEB430F28BF6FF00001DDE74A
:1030900080B55FF4E1310320FFF71CF90023002223
:1030A00006210420FEF776FECE48FEF722FA04E061
:1030B000CD480178CD48FEF71CFACD48FEF719FA45
:1030C000CC48FEF716FACC48FEF713FACB48FEF7C9
:1030D00010FACB48FEF70DFACA48FEF70AFACA48BA
:1030E000FEF707FAC948FEF704FA4FF49670FFF7A7
:1030F00009FF06210420FEF7EEFE00284FD105212E
:103100000120FEF761FC07210120FEF75DFCC048AD
:10311000FEF7EFF90023012218210420FEF73AFE02
:103120000023012219210420FEF734FE002301228E
:103130001A210420FEF72EFE002301221B21042069
:10314000FEF728FE40F6B830FFF7DCFE1023012220
:1031500005210120FEF792FDAE49086010230122EF
:1031600007210120FEF78AFDAB490860A9480068E5
:1031700000F0F4F9A848006800F00CFA18210420C7
:10318000FEF791FE19210420FEF78DFE1A2104207E
:10319000FEF789FE1B210420FEF785FEFEE792481C
:1031A000372101709048007830280ED031281FD088
:1031B00032284CD0332854D0342879D0362800F027
:1031C0009480372800F0CD8072E70E210020FEF7B2
:1031D000FBFB4FF4FA70FFF795FE03220E2100204F
:1031E000FEF710FD010089B27DA0FEF782F9F0E73D
:1031F0008A490320FFF756F906210120FEF7E4FB78
:1032000007210120FEF7E0FB0E210020FEF7DCFB8A
:1032100004210120FEF7D8FB0A2301220E21002001
:10322000FEF72CFD7E4908607E48FEF762F9082310
:10323000012206210120FEF721FD80B2B0F56B715D
:1032400067A0FEF756F93220FFF75CFEEFE77649FC
:103250000320FFF727F900F005F97248FEF749F956
:10326000FEE772490320FFF71DF900F0C5F9704829
:10327000FEF73FF96F48FEF73CF940F6354000F0A5
:103280006DF96D48FEF735F940F2FB3000F082F938
:103290006A48FEF72EF900F071F901006848FEF760
:1032A00028F900F087F901006648FEF722F9FEE7E9
:1032B00065490320FFF7F6F872B68922062100203F
:1032C00000F066FA89220721002000F061FA5F48C9
:1032D00000684FF4FA7101FB00F1012000F08CFA54
:1032E00062B65048FEF705F9FEE759490320FFF79B
:1032F000D9F800F0FFF84B48FEF7FBF84FF47A706E
:10330000FFF700FE09E0012209210320FEF79EFDE0
:10331000012207210320FEF799FD4FF4FA620021F4
:103320000120FEF76DFF4FF4FA6201210120FEF744
:1033300067FF4848FEF7DDF80320FFF799F83038BB
:1033400045490880444800880028DCD10022092132
:103350000320FEF77BFD002201210320FEF776FD0E
:10336000DBE73E48FEF7C5F806210120FEF72CFBFF
:1033700007210120FEF728FB0E210020FEF724FB89
:1033800005210120FEF720FB00F0F8F82149086034
:1033900000F010F92049086000F0ACF80022092183
:1033A0000320FEF753FD002207210320FEF74EFD08
:1033B00040F6B83200210120FEF722FF40F6B83275
:1033C00001210120FEF71CFF00F04CF81F480168A6
:1033D000032000F011FA2248FEF78BF8FEE7000008
:1033E0000A256400104100001D88FF1FCC4000002A
:1033F0005041000000420000B4450000B446000007
:10340000C446000058460000CC4500006C46000051
:10341000043F00000488FF1F0088FF1F34420000A3
:103420000888FF1F6443000040440000604400001F
:10343000E445000088430000AC4300003045000034
:10344000D4460000E4460000804400001488FF1FBA
:10345000F04200004C4500001A88FF1F184300008E
:103460006845000080B572B600F006F80A21002019
:1034700000F0C2F962B601BD80B501230122082126
:103480000120FEF787FC0123012209210120FEF71C
:1034900081FC012300220A210120FEF77BFC00238E
:1034A000002208210420FEF775FC002300220921D8
:1034B0000420FEF76FFCFFF757FC00F006F800222F
:1034C0001A210420FEF7C2FC01BD80B501230122B0
:1034D00015210120FEF75EFC0123012216210120A7
:1034E000FEF758FC0123002217210120FEF752FCB1
:1034F00001BD000080B5002342F2107200210120BE
:10350000FEF702FD002342F2107201210120FEF7B6
:10351000FBFC0023012209210320FEF73BFC0023D2
:10352000012207210320FEF735FC01230322042199
:103530000220FEF72FFC0123032205210220FEF7C3
:1035400029FC72B689220621002000F021F9892287
:103550000721002000F01CF962B601BD1CB5040073
:10356000642000F057F800A9200000F02FF800AB0D
:1035700006220021642000F0A2F813BD00B583B03C
:1035800000AB06220021642000F083F800A800F0C0
:1035900025F80EBD1CB50400652000F03BF800A91D
:1035A000200000F013F800AB06220021652000F097
:1035B00086F813BD00B583B000AB0622002165205C
:1035C00000F067F800A800F009F80EBD020E0A70BE
:1035D000020C4A70020A8A70C87070470021027893
:1035E00011EB0261427811EB0241827811EB02216A
:1035F000C0780918080070475B48006850F4002044
:1036000059490860594800780006FBD557483021D1
:103610000170704780B580B24FF40061484300905C
:103620005348092101709DF80200524908709DF825
:1036300001005149087051489DF80010017000F0D8
:1036400080F8012801D1012022E00098B0F5006F38
:103650001DD84748062101704648002101704648A0
:103660000421017045480C2101704548FF2101707B
:103670004448FF2101704448FF2101704348FE2166
:10368000017000F05EF8012801D1022000E0002066
:1036900002BD30B4002480B24FF40065684310FAD4
:1036A00081F0040003E020781870641C5B1C10009B
:1036B000421E80B20028F6D1012030BC704770B5A0
:1036C00082B014001D0089B2042291FBF2F303FBC7
:1036D0001213002B01D0012032E0254A062313707B
:1036E00080B24FF40062504310FA81F0009000263F
:1036F00004E0361D0098001D00902D1DA4B2A642C6
:103700001DD29DF802001B4908709DF801001A495E
:1037100008701A489DF800100170E8781849087080
:10372000A8781849087068781749087017482978E8
:10373000017000F006F80128DBD1022000E0002033
:1037400076BD0A4830210170084880210170074881
:1037500000780006FBD5054800783121084201D0E9
:10376000012000E00020704704F00140000002400A
:10377000070002400600024005000240040002402B
:103780000B0002400A00024009000240080002400B
:1037900010B5164B1B684FF4007484402343134C40
:1037A0002360C9B2C0B2124B53F82030D2B2140415
:1037B00014F47024D2B2D209D2B2224352F48172EC
:1037C00043F82120C0B20B4A52F82020526901234D
:1037D00013FA01F132EA0101C0B2064A52F8202080
:1037E0005161C0B2573000F03EF810BD388004403F
:1037F0003884FF1F2484FF1F80B5164A126852F4D4
:103800000002144B1A60144A126892089200124B7C
:103810001A60C0B20201114BD150C0B20F4911EB76
:103820000011C96851F00101C0B20C4A12EB00123C
:10383000D160C0B2094911EB0011896851F0030150
:10384000C0B2064A12EB00129160C0B2443000F0E0
:103850000AF801BD3C800440007003400071034041
:1038600025490860704710B504005C2C02DB234832
:10387000FDF73FFE202094FBF0F0002803D0022843
:1038800027D013D337E00120202194FBF1F202FB73
:10389000114290401A4908600120202194FBF1F266
:1038A00002FB114290401749086024E001202021CA
:1038B00094FBF1F202FB1142904013490860012091
:1038C000202194FBF1F202FB114290400F49086065
:1038D00011E00120202194FBF1F202FB1142904003
:1038E0000B4908600120202194FBF1F202FB1142F8
:1038F00090400849086010BD08ED00E090410000CC
:1039000080E200E000E100E084E200E004E100E0A9
:1039100088E200E008E100E0DFF800F0B585FF1F75
:1039200010B5C0B2002800F01481C0B201003029E7
:103930001ED032292CD0602931D0642936D06E298E
:103940003BD0782940D07D2945D082294AD08C2986
:103950004FD0962954D0A02959D0AA295ED0B42995
:1039600063D0C82968D0E1296DD0FA2972D078E0F7
:10397000A64918220A70A54900224A70A3490022CC
:103980008A70C0B2652870D2A0490022CA708CE04B
:103990009E4918220A709D4901224A70EEE79B4910
:1039A00018220A70994918224A70E7E797491822A5
:1039B0000A7096491A224A70E0E7944918220A7060
:1039C00092491F224A70D9E7904913220A708F4901
:1039D00018224A70D2E78D4913220A708B491A22A5
:1039E0004A70CBE7894913220A7088491C224A7021
:1039F000C4E786490E220A70844912224A70BDE744
:103A000082490E220A70814915224A70B6E77F4921
:103A10000E220A707D4918224A70AFE77B490E22B8
:103A20000A707A491B224A70A8E778490E220A7068
:103A300076491E224A70A1E774490C220A70734924
:103A40001C224A709AE771490B220A706F491E22A4
:103A50004A7093E76D490A220A706C491F224A7026
:103A60008CE76420FFF75CFFCEE0C0B2C92803D228
:103A700066490122CA7018E00100C9B240F22D1255
:103A800089B2914203D261490222CA700DE001005D
:103A9000C9B240F2911289B2914203D25B4903222A
:103AA000CA7002E059490F22CA705849574AD27861
:103AB0000A71C0B21F2803D254480021417148E066
:103AC000C0B23D2803D251480121417141E0C0B24A
:103AD0005B2803D24D48022141713AE0C0B27928F7
:103AE00003D24A480321417133E0C0B2972803D280
:103AF0004648042141712CE0C0B2B52803D24348A6
:103B00000521417125E0C0B2D32803D23F480621E8
:103B100041711EE0C0B2F12803D23C480721417137
:103B200017E00100C9B240F20F1289B2914203D2EC
:103B30003648082141710CE0C0B240F22D1180B22C
:103B4000884203D231480921417102E02F480F21F8
:103B500041712E484078183080B2322148432B49B9
:103B60000978491C89B290FBF1F4294800210170C1
:103B70002848006850F080502649086026480078A0
:103B800050F080002449087024489821017024488E
:103B90000078C006FBD422480078C0F38100C0B290
:103BA0000228F8D11948007810F01F001D4908704C
:103BB0001D480021017015484379144802791348C3
:103BC000C17812488078FFF7A7FE1048407810F0BF
:103BD0001F0050F04000144908701148007880061A
:103BE000FBD50F4800784006FBD50C48007810F054
:103BF0003F000A4908700A480078C0F38100C0B24B
:103C00000328F8D12000C0B210BD00BF9485FF1F6B
:103C1000014006403480044008C007400040064090
:103C20000640064004400640054006400080034030
:103C30000090034000800B4000B0034000B00B40F8
:103C400000F00F4040F00F4080F00F40C0F00F40F8
:103C500000F10F400090044000A0044000B0044078
:103C600000C0044000D004402C01000058020000B5
:103C700084030000B0040000000000004AF72800A0
:103C800000F22B008894290042702A004AF728008D
:103C900050AE010070FC010078D101003ED301005C
:103CA000306001009C0400009C040000B00400008F
:103CB000B00400009C040000B00400003057050070
:103CC000288804002888040028880400305705004C
:103CD0001027000008CF000008CF000008CF000028
:103CE0001027000078B0090078B0090020A1070073
:103CF0001879000010EB090000000000000000002F
:103D000044480000F22B000000000000000000000A
:103D100052030000520300005203000000000000A4
:103D20000AD7233C0AD7233C0AD7233C0AD7233C93
:103D30000AD7233C69000000690000001900000058
:103D4000190000006E00000069000000690000001A
:103D500019000000190000006E000000790000004A
:103D6000790000007900000079000000790000006F
:103D700003000000F40100007017000003000000C1
:103D80000A000000E803000001000000F401000048
:103D9000F400000019000000190000007900000084
:103DA000790000007900000079000000F3000000B5
:103DB0000B1F00000009000000A0064000B00640F4
:103DC00000C0064000D0064000A00E4000B00E40EB
:103DD00080B51C481C4988420BD0002006E01949D8
:103DE000194A52F8202041F82020401CB0F5826F7B
:103DF000F5D31448FFF734FD1449154A1548801AC5
:103E000003E013780B70521C491C0300581E002B52
:103E1000F7D111491148401A02E000220A70491CEA
:103E20000200501E002AF8D10D490E4A0E48801A91
:103E300003E013780B70521C491C0300581E002B22
:103E4000F7D101BD0080FF1F000000001084FF1F9C
:103E50002C3C0000D03D00000086FF1F1E88FF1F85
:103E6000B485FF1F603F0000AC3F000080B51C48D8
:103E7000006850F478501A490860C820FFF750FDD8
:103E800018490860174800684FF47A71484316498A
:103E900008601548006815490968C1F30361491CA9
:103EA000B0FBF1F01249086000F003F800F00CF8E4
:103EB00001BD1048006850F480500E4908600E485B
:103EC0004FF4E061016070470C48006850F0010059
:103ED0000A4908600A484FF4A06101607047000079
:103EE000388004401088FF1F0C88FF1F4480044066
:103EF0001488FF1F04800440189004404080044050
:103F00000CB00440576520617265206E6F772069A0
:103F10006E206779726F2063616C69627261746987
:103F20006F6E206D6F64652C20506C656173652029
:103F30006B656570206361722073746174696F6E64
:103F400065727920616E6420776169742074696C90
:103F50006C206C69676874206469657300000000F8
:103F600070B4104C24680F4D2D6855F47F050D4E2C
:103F70003560090611F0706151EA0070110511F405
:103F800070010843190411F47021084306490860C0
:103F9000002000E0401CC0B29842FBD301480460FE
:103FA00070BC704700F0014044800440433A5C55C7
:103FB000736572735C4C6F7569734D6F5C446F63AE
:103FC000756D656E74735C4769744875625C696E83
:103FD0006E6F2D4941522D323031335C7372635C08
:103FE000647269766572735C46544D5C46544D2E1E
:103FF00063000000433A5C55736572735C4C6F75E7
:1040000069734D6F5C446F63756D656E74735C4767
:1040100069744875625C696E6E6F2D4941522D322C
:104020003031335C7372635C647269766572735CA1
:104030006164635C6164632E63000000433A5C5515
:10404000736572735C4C6F7569734D6F5C446F631D
:10405000756D656E74735C4769744875625C696EF2
:104060006E6F2D4941522D323031335C7372635C77
:10407000647269766572735C6770696F5C6770699A
:104080006F2E6300433A5C55736572735C4C6F75B9
:1040900069734D6F5C446F63756D656E74735C47D7
:1040A00069744875625C696E6E6F2D4941522D329C
:1040B0003031335C7372635C647269766572735C11
:1040C000756172745C756172742E63000A0C596FAD
:1040D0007520656E74657265643A25632C20506C9A
:1040E0006561736520656E7465722061206E756D03
:1040F0006265722066726F6D20312D3720746F20DB
:1041000073656C6563742061206D6F64650A0C00D3
:104110000A57656C636F6D6520746F207468652045
:10412000536D6172744361722032303133205365B4
:104130006E736F72207465616D20646576656C6F57
:1041400070656D656E742073797374656D0A000017
:104150003D3D3D3D3D3D3D3D3D3D3D3D3D3D3D3D8F
:104160003D3D3D3D3D3D3D3D3D3D3D3D3D3D3D3D7F
:104170003D3D3D3D3D3D3D3D3D3D3D3D3D3D3D3D6F
:104180003D3D3D3D3D3D3D3D3D3D3D3D3D3D0A00CF
:104190000A4552522120496E76616C696420495269
:1041A000512076616C75652070617373656420744D
:1041B0006F20656E61626C65206972712066756E34
:1041C0006374696F6E210A0080B500F009F80A482F
:1041D00000884FF6FE7108400749088001BD0000C5
:1041E00072B606484CF22051018004484DF6281161
:1041F000018062B670470000002005400E20054097
:10420000506C656173652073656C656374206D6FB8
:1042100064653A0A2D2D2D2D2D2D2D2D2D2D2D2D75
:104220002D2D2D2D2D2D2D2D2D2D2D2D2D2D2D0AE1
:1042300000000000546865206D6F6465206E6F7724
:1042400020697320313A20416363656C65726F6D3C
:104250006574657220616E64204779726F73636F55
:1042600070652054657374000A2A2A2A2A646566D8
:1042700061756C745F69737220656E7465726564D4
:10428000206F6E20766563746F722025642A2A2A57
:104290002A2A0D0A0A0000000A2A2A2A2A2A2A2083
:1042A0004C454654202620524947485420656467AF
:1042B0006520706F736974696F6E202A2A2A2A2A12
:1042C0002A00000010B5084979441C31074C7C4491
:1042D0001A34A14206D0081D0A68511888470146C1
:1042E000A142F8D110BD00BFE8000000F4000000BA
:1042F000546865206D6F6465206E6F772069732048
:10430000363A204D6F746F7220436F6E74726F6C0B
:1043100020746573740000000A20546865204D6F96
:104320006465206973206E6F7720373A2053797364
:1043300074656D4C6F6F70205465737400000000DD
:10434000426F746820736964652064657465637482
:104350006564203A205354524149474854206C69BF
:104360006E6500000A45766572797468696E67202B
:10437000496E697469616C697A656420616C7269FF
:104380006768740A0000000077726974696E6720BC
:1043900074686520753332203A2033313235207409
:1043A0006F206D656D6F727920310A0077726974C4
:1043B000696E6720746865207533323A2031303178
:1043C0003920746F206D656D6F727920320A00009C
:1043D000A3D9FFFF200200000086FF1F000000009D
:1043E0000A63757272656E745F6D69645F6572727F
:1043F0006F725F706F732069733A2025640000004C
:104400004C656674207369646520646574656374C3
:104410006564203A204F4E452D4544474500000035
:1044200052696768742073696465206465746563A4
:10443000746564203A204F4E452D454447450000A1
:10444000546865206D6F6465206E6F7720697320F6
:10445000323A204C696E656172204343440000008B
:10446000546865206D6F6465206E6F7720697320D6
:10447000333A466C617368204D656D6F72790A003E
:10448000546865206D6F6465206E6F7720697320B6
:10449000343A20656E636F646572207465737400CE
:1044A00080B5FEF761FCFEF789FC03480178C9B2CC
:1044B0000248FDF71EF801BD04ED00E0684200006F
:1044C0000A63757272656E745F3173745F726967C7
:1044D00068745F656467653A202564000A637572D5
:1044E00072656E745F3173745F6C6566745F65646A
:1044F00067653A20256400000A2A2A2A2A2A2A20E7
:10450000444952204552524F52202A2A2A2A2A2A06
:10451000000000000A63757272656E745F646972F0
:104520005F6572726F722069733A20256C640000B7
:104530004E6F772072656164696E672066726F6D79
:10454000206D656D6F72790A000000000A0C204929
:104550006E70757420646972656374696F6E203A59
:104560002030206F722031000A45766572797468B8
:10457000696E6720696E6974656420616C72696731
:10458000687400000A0C675F753332656E636F6490
:1045900065725F6C663A256C640000000A0C675F08
:1045A000753332656E636F6465725F72743A256C41
:1045B00064000000313A416363656C65726F6D653C
:1045C000746572266779726F0A000000363A4D6F83
:1045D000746F7220636F6E74726F6C207465737485
:1045E0000A000000466C617368204D656D6F72793A
:1045F00020696E6974206F6B0A0000000120C046BC
:10460000002801D0FFF75EFE0020FEF741FD00F01C
:1046100000F800F001B800000746384600F002F844
:10462000FBE7000001491820ABBEFBE726000200B3
:104630000A0A2A2A2A2A2A2A202A2A2A2A2A2A0A44
:10464000000000004E4F20454447452064657465D6
:104650006374656400000000343A456E636F6465FE
:10466000722074657374696E670A0000373A537973
:104670007374656D4C6F6F7020546573740A00001D
:1046800080B5FFF7A1FDFFF7A3FBFFF7EFFBFEF7F8
:10469000FFFCFEE74343442053616D706C653A2094
:1046A000000000000A2A2A2A2A2A2A202A2A2A2A3C
:1046B0002A2A0A00323A4C696E6561724343440A01
:1046C00000000000333A466C617368204D656D6FE1
:1046D00072790A004D656D6F727920313A25640A4E
:1046E000000000004D656D6F727920323A25640A32
:1046F0000000000080B50100C9B20320FDF7C5FE2F
:1047000001BDC046C046C046C046FFF777FF000067
:0400000500004703AD
:00000001FF
