:10000000F87F002011040000E5360000E53600000E
:10001000E5360000E5360000E5360000E536000074
:10002000E5360000E5360000E5360000E536000064
:10003000E5360000E5360000E5360000E536000054
:10004000E5360000E5360000E5360000E536000044
:10005000E5360000E5360000E5360000E536000034
:10006000E5360000E5360000E5360000E536000024
:10007000E5360000E5360000E5360000E536000014
:10008000E5360000E5360000E5360000E536000004
:10009000E5360000E5360000E5360000E5360000F4
:1000A000E5360000E5360000E5360000E5360000E4
:1000B000E5360000E5360000E5360000E5360000D4
:1000C000E5360000E5360000E5360000E5360000C4
:1000D000E5360000E5360000E5360000E5360000B4
:1000E000E5360000E5360000E5360000E5360000A4
:1000F000E5360000E5360000E5360000E536000094
:10010000E5360000E5360000E5360000E536000083
:10011000E5360000E5360000E5360000E536000073
:10012000E5360000E5360000E5360000E536000063
:10013000E5360000E5360000E5360000E536000053
:10014000E5360000E5360000E5360000E536000043
:10015000CF0D0000DD0D0000E53600004D0400006D
:10016000E5360000E5360000E5360000E536000023
:10017000E5360000E5360000E5360000E536000013
:10018000E5360000E5360000E5360000E536000003
:10019000E5360000E5360000E5360000110E0000EF
:1001A000E5360000E5360000E5360000E5360000E3
:1001B000E5360000E5360000E5360000E5360000D3
:1001C000E5360000E5360000E5360000E5360000C3
:1001D000E5360000E5360000E5360000E5360000B3
:10040000FFFFFFFFFFFFFFFFFFFFFFFFFEFFFFFFFD
:1004100062B64FF000004FF000014FF000024FF0C5
:1004200000034FF000044FF000054FF000064FF0BE
:1004300000074FF000084FF000094FF0000A4FF09E
:10044000000B4FF0000C03F03DFAFEE780B572B6EA
:10045000DFF84C0A0068002804D0022800F0C380AE
:1004600067D3FDE1DFF83C0A0068DFF83C1A096851
:10047000884207DADFF82C0A0068401CDFF8241AEB
:10048000086023E0DFF8240A006800281ED1DFF8A6
:10049000140A0021016000F0ADFDDFF8140A0068C5
:1004A000012801D100F0F6FDDFF8080A00680128F4
:1004B00003D1DFF8040A00F0C4FDDFF8000A006889
:1004C000012803D1DFF8F00900F0CEFDDFF8F009D4
:1004D0000078212814D3DFF8EC090068DFF8E81968
:1004E0000968484342F2107190FBF1F0DFF8DC1923
:1004F0000968401A212190FBF1F0DFF8D419086057
:10050000DFF8C8090068DFF8C81909680818DFF8BB
:10051000BC190860DFF8BC090068DFF8B419096885
:10052000401ADFF8B0190860DFF874090121016092
:1005300096E1142301220621012000F087FF80B2FA
:10054000DFF894190968401ADFF850190860DFF8DD
:100550008C09006841F28931884218D2DFF87C09A1
:100560000068401CDFF874190860DFF83009006883
:1005700000F0F8FFDFF82029C2E90801DFF81C09C4
:10058000006800F0EFFFDFF81029C2E9060114232C
:1005900001220721012000F059FFDFF8441911FA68
:1005A00080F0DFF840190860DFF8F0080068DFF835
:1005B00038190968484342F2107190FBF1F0DFF8F6
:1005C00024190968DFF824291268514342F2107295
:1005D00091FBF2F1401ADFF818190860DFF8C00843
:1005E000022101603CE1DFF8D8080078212807D219
:1005F000DFF8CC080078401CDFF8C418087071E000
:10060000DFF8BC0800210170DFF8E8080068DFF8B7
:10061000E81809680818DFF8E4180860DFF8E0084F
:100620000068DFF8D41809680818DFF8D4180860E3
:10063000DFF8D0080068DFF8C01809680818DFF88C
:10064000B4180968401ADFF8BC1808600020DFF809
:10065000A8180860DFF89C180860DFF8AC0800688C
:10066000DFF8A81809680818DFF890180968401A18
:10067000DFF89C180860DFF898080068DFF8941825
:10068000096842F2107291FBF2F14843DFF88818D2
:100690000860DFF87C080068DFF88018096842F21B
:1006A000107291FBF2F14843DFF874180860DFF82C
:1006B00074080068DFF8681809680818DFF864181B
:1006C0000860DFF854080068DFF85818096808184F
:1006D000DFF854180968401A212190FBF1F0DFF887
:1006E0004C180860DFF840080068DFF84018096817
:1006F0000818DFF834180860DFF8340800680028AC
:100700001CD1DFF8EC070068DFF81C180968401AF4
:10071000DFF8B81709680818DFF818180860DFF85C
:10072000D0070068DFF800180968401ADFF8A4173E
:1007300009680818DFF80018086010E0DFF8F00713
:10074000006801280BD1DFF8EC07DFF8A41709686F
:100750000160DFF8E407DFF8981709680160DFF847
:10076000D4070068012809DB00220721032000F0DC
:100770006BFFDFF8C8070121016012E001220721A9
:10078000032000F061FFDFF8B4075FF0FF31016084
:10079000DFF8A00700685FF0FF314843DFF89417E7
:1007A0000860DFF894070068012809DB00220921AE
:1007B000032000F049FFDFF888070121016012E003
:1007C00001220921032000F03FFFDFF874075FF0EA
:1007D000FF310160DFF8600700685FF0FF314843D8
:1007E000DFF854170860DFF84C070068B0F5FA5FCF
:1007F00004DDDFF840074FF4FA510160DFF83807F5
:100800000068B0F5FA5F04DDDFF82C074FF4FA5109
:100810000160DFF83007006800280ED1DFF8140708
:1008200002680021012001F0E9F8DFF80C070268F6
:100830000121012001F0E2F80EE0DFF8080700686E
:10084000012809D100220021012001F0D7F800225F
:100850000121012001F0D2F8DFF8440600210160F7
:10086000DFF8E4060068401CDFF8DC160860DFF8FB
:10087000D8060068DFF8D4160968884227D2DFF866
:10088000D0060068012806D1DFF8C8060068401CC1
:10089000DFF8C0160860DFF8BC060068C82807D17A
:1008A000DFF8AC0600210160DFF8A8060021016036
:1008B000DFF894060068C821B0FBF1F201FB1200DA
:1008C000002874D11B21042000F0EBFE6FE0DFF85C
:1008D00078060068DFF874160968884267D1DFF887
:1008E0002C0600210160DFF870060068DFF86C1646
:1008F00051F82000DFF8F0150860DFF85C060068AA
:10090000DFF85C1651F82000DFF8E0150860DFF82A
:1009100048060068DFF84C1651F82000DFF8F4159F
:100920000860DFF834060068DFF83C1651F8200054
:10093000DFF8E8150860DFF820060068DFF82C16FD
:1009400051F82000DFF880150860DFF80C06006819
:10095000DFF81C1651F82000DFF818160860DFF8E1
:10096000F8050068DFF8101651F82000DFF80C16C3
:100970000860DFF8E4050068DFF8041651F820008D
:10098000DFF800160860DFF8D0050068DFF8F8151A
:1009900051F82000DFF8F4150860DFF8BC050068A6
:1009A000DFF8EC1551F82000DFF8E81508600921A0
:1009B000042000F08EFE002804D1DFF8DC050121C0
:1009C00001601CE00621042000F083FE002808D10D
:1009D000DFF8C40502210160DFF87C050021016019
:1009E0000DE00821042000F074FE002807D1DFF894
:1009F000A80502210160DFF8600504210160DFF82D
:100A000048050068DFF894150968DFF8402512688A
:100A10005118DFF88C251268DFF888351B6803FB56
:100A20000211884267D101221B21042000F00CFE34
:100A3000DFF824050068DFF86C15096888425ADB86
:100A4000DFF860050068DFF8601551F82000DFF876
:100A5000BC140860DFF84C050068DFF8001551F899
:100A60002000DFF884140860DFF838050068DFF83C
:100A7000F01451F82000DFF874140860DFF8240542
:100A80000068DFF8E01451F82000DFF888140860EF
:100A9000DFF810050068DFF8D01451F82000DFF807
:100AA0007C140860DFF8FC040068DFF8C01451F81B
:100AB0002000DFF814140860DFF8E8040068DFF8AD
:100AC000B01451F82000DFF8AC140860DFF8D4044B
:100AD0000068DFF8A41451F82000DFF8A0140860C3
:100AE000DFF8C0040068401CDFF8B8140860DFF8C5
:100AF000BC0401210160DFF8B4040068012877D14B
:100B0000DFF844040068FA21B0FBF1F201FB1200A7
:100B100000286DD1DFF840040068DFF88C1451F82C
:100B20002000DFF8E8130860DFF82C040068DFF825
:100B30002C1451F82000DFF8B0130860DFF8180417
:100B40000068DFF81C1451F82000DFF8A0130860DB
:100B5000DFF804040068DFF80C1451F82000DFF817
:100B6000B4130860DFF8F0030068DFF8FC1351F8F5
:100B70002000DFF8A8130860DFF8DC030068DFF866
:100B8000EC1351F82000DFF840130860DFF8C803C9
:100B90000068DFF8DC1351F82000DFF8D813086094
:100BA000DFF8B4030068DFF8D01351F82000DFF855
:100BB000CC130860DFF8A0030068DFF8C41351F815
:100BC0002000DFF8C0130860DFF88C030068DFF84E
:100BD000B81351F82000DFF8B4130860DFF8780389
:100BE0000068DFF8AC1351F82000DFF8A8130860A4
:100BF000DFF86403006800280FD1012218210420C7
:100C000000F022FD01221921042000F01DFD002228
:100C10001A21042000F018FD3BE0DFF83C030068D7
:100C200001280FD100221821042000F00DFD01221F
:100C30001921042000F008FD01221A21042000F0EF
:100C400003FD26E0C448006802280FD101221821C4
:100C5000042000F0F9FC00221921042000F0F4FC2B
:100C600001221A21042000F0EFFC12E0BA480068CB
:100C700003280ED100221821042000F0E5FC0122F7
:100C80001921042000F0E0FC00221A21042000F0C9
:100C9000DBFCC1480068012805D100221B2104208B
:100CA00000F0D2FC10E0BC48006802280CD1A64835
:100CB00000683221B0FBF1F201FB1200002803D1E1
:100CC0001B21042000F0EDFCB3480068012805D189
:100CD000A148002101607B4819210160AE480068ED
:100CE00002281BD17748002101609748006840F234
:100CF000DC51B0FBF1F201FB120000280ED1964846
:100D00000068002803D194480521016006E092485C
:100D10000068052802D1904800210160A4480068BD
:100D2000012810D1A3480068002807D1A248006814
:100D3000401CA14908609F48012101609F4800684C
:100D4000401C9E4908609D480068B0F5FA6F05D1C7
:100D5000974800210160974800210160964800688B
:100D600097490968884204D196480068401C954913
:100D700008609448006894490968884202D176481E
:100D8000002101608F4800688F490968B0EB410F6E
:100D900002D17148042101608548006801280ED104
:100DA0008A48012101608A480068401C884908601F
:100DB000884800885049096808188649088086488C
:100DC000006850F001008449086062B601BD8348A4
:100DD000006850F0010081490860704780B572B624
:100DE000444801687E4801F0B6F8434801687D48F0
:100DF00001F0B1F83F48002101603F480021016047
:100E00007948006850F001007749086062B601BD7A
:100E1000002006210800754909680122824011421C
:100E200019D072490968012212FA00F008436F498B
:100E300008606F4880680069C0F34010002805D042
:100E40002C480068401C2B49086004E029480068D1
:100E5000401E284908600720644909680122824031
:100E6000114217D061490968012212FA00F00843C3
:100E70005E4908605E4880680069C00605D41E4867
:100E80000068401C1C49086004E01B480068401EC4
:100E900019490860704700007885FF1F7886FF1F9A
:100EA000C086FF1F7086FF1F6085FF1F0887FF1F1A
:100EB0004086FF1F4486FF1F0C87FF1F4886FF1FC9
:100EC0004288FF1F0C88FF1F6486FF1F8486FF1F58
:100ED000B886FF1F8886FF1F9484FF1FFC86FF1FB4
:100EE0006CF8FFFF7486FF1F5486FF1F5886FF1F94
:100EF0008C86FF1F1C88FF1F2088FF1FA486FF1FF2
:100F0000F086FF1FBC86FF1F6485FF1FB486FF1F8E
:100F10009086FF1F5C86FF1F9C86FF1F6086FF1F59
:100F2000A086FF1FB086FF1FA886FF1FAC86FF1F8D
:100F30004C86FF1F7C86FF1F8086FF1F9486FF1F45
:100F40009886FF1FD886FF1FC486FF1F6885FF1F76
:100F5000C886FF1FCC86FF1F5086FF1F6484FF1FBB
:100F60007C84FF1F9884FF1FB084FF1FC884FF1F6D
:100F7000E084FF1F6886FF1FF884FF1F6C86FF1F39
:100F80001085FF1FB085FF1F2885FF1FB485FF1F39
:100F90004085FF1FB885FF1F7485FF1F5C85FF1FFD
:100FA0005885FF1FD086FF1F4C84FF1FE086FF1F60
:100FB000D486FF1FE886FF1FE486FF1FEC86FF1F15
:100FC0006C85FF1FDC86FF1F7085FF1FF486FF1FE7
:100FD000F886FF1F3C88FF1F3C7103400C710340E3
:100FE000C8370000E03700001C710340A0900440A7
:100FF0002484FF1F80B5DFF848010068002810D165
:10100000DFF83C0101210160DFF8380101210160B6
:10101000DFF828010021018001220821012000F0D1
:1010200013FB01BD10B5040018A1032001F08CF8DA
:10103000DFF81411032001F087F8200000F001F818
:1010400010BD38B50400002505E0ADB2295D10A043
:1010500000F081FF6D1C4FF48070ADB28542F4D377
:101060000AA000F078FF31BD38B50400002505E086
:10107000ADB2295D06A000F06EFF2D1DADB2FA2DB8
:10108000F6D302A000F067FF31BD00000A000000A7
:101090002563000080B531480168324800F05BFFED
:1010A000314800F058FF3148FFF7BCFF304800F0EE
:1010B00052FF26480068012807D12548006801280A
:1010C00003D12C4800F047FF21E0204800680128A8
:1010D00007D11F480068002803D1274800F03BFFD4
:1010E00015E01A480068002807D11948006801284F
:1010F00003D1224800F02FFF09E01448006814498A
:1011000009680843002802D11D4800F024FF1D484B
:1011100000F021FF104801681B4800F01CFF0D483B
:1011200001681A4800F017FF194800F014FF0C4836
:101130000168184800F00FFF01BD00003E88FF1F46
:101140000087FF1F0487FF1FD83800001488FF1F87
:101150001888FF1FC085FF1F1088FF1FBC85FF1F59
:101160000C88FF1F24360000E83800000C87FF1FA2
:1011700074380000843500004436000064360000F6
:1011800088380000DC3400000437000020370000FD
:101190003C3700005837000038B505000C00EDB2B0
:1011A000002D04D1B4F10800C0B20B280BD3EDB26E
:1011B000012D03D1201FC0B20E2804D32221DFF855
:1011C0003C0300F0EFFFEDB2002D03D0012D00F045
:1011D0008280FEE0DFF82803006850F00060DFF84E
:1011E00020130860DFF81C03006830F09000DFF87F
:1011F00014130860DFF80C0300210160E4B2200042
:10120000083801280CD9801E01281BD9801E01280E
:101210002BD9801E01283AD9C01E012849D959E08E
:10122000DFF8E402006850F48060DFF8DC12086048
:10123000E4B2A00000F1804010F59420002140F8B5
:10124000201CC6E0DFF8C00200684FF400710843BC
:10125000DFF8B4120860E4B2A00000F1804010F59D
:101260009220002140F80C1CEBE7DFF89C0200689C
:1012700050F48060DFF890120860E4B2A00000F142
:10128000804010F59420002140F8281CD9E7DFF8B1
:101290007802006850F40060DFF86C120860E4B275
:1012A000A00000F1804010F59620002140F8381C85
:1012B000C7E7DFF85402006850F40050DFF8481226
:1012C0000860E4B2A00000F1804010F59A200021EF
:1012D000C161B6E77DE0DFF83402006850F00060DD
:1012E000DFF828120860DFF81C02006830F41040B4
:1012F000DFF810120860DFF80C0200210160E4B290
:101300002000001F03280BD9001F01281AD9801EB6
:10131000032829D9001F012838D9C01E48D057E01A
:10132000DFF8E401006850F40050DFF8DC110860D9
:10133000E4B2A00000F1804010F59A20002140F8AE
:10134000101C45E0DFF8C001006850F48060DFF851
:10135000B8110860E4B2A00000F1804010F59420BC
:10136000002140F8201C33E0DFF89C01006850F4B5
:101370008060DFF894110860E4B2A00000F18040C2
:1013800010F59420002140F8181C21E0DFF87801C6
:10139000006850F48060DFF870110860E4B2A000CB
:1013A00000F1804010F59420002140F8181C0FE057
:1013B000DFF8540100684FF400710843DFF848116A
:1013C0000860E4B2DFF84801002140F82410FFE78C
:1013D000FFE731BD70B504000D0016000020E4B237
:1013E000002C04D1B5F10800C0B20B280BD3E4B235
:1013F000012C03D1281FC0B20E2804D38721DFF8A7
:10140000FC0000F0CFFE3200D2B22900C9B22000A9
:10141000C0B200F051F8E4B2DFF8F80050F8240050
:1014200000680006F7D5E4B23A4850F82400006995
:10143000E4B2384951F82410096831F08001E4B26F
:10144000344A52F82420116080B270BD2DE9F8436F
:1014500004000D0016001F005FF00008E4B2002C2D
:1014600004D1B5F10800C0B20B280AD3E4B2012CB4
:1014700003D1281FC0B20E2803D3BE211F4800F09D
:1014800091FE5FF000090BE03200D2B22900C9B230
:101490002000C0B2FFF79EFF18FA80F819F1010989
:1014A0005FFA89F9FFB2B945EED3FFB2B8FBF7F89E
:1014B000404680B2BDE8F28380B511F01F0151F0C3
:1014C0004001154B1972910011F00C0151F05001BF
:1014D000114A1170104914224A700F4941F2342206
:1014E0004A800D4945F278628A800B49C0B2094AA8
:1014F00052F8200000F012F801BD00003832000060
:101500003C8004401880044038800440308004400F
:10151000009004401C84FF1F3086FF1F0A78826001
:101520004A78C2604A8882618A88C2618A79026286
:10153000CA794262CA6802650A7A0260497A4160E1
:10154000704750F8041B61B150F8042BD30744BF17
:10155000A9F101039A18002342F8043B091FFAD1AC
:10156000EFE77047010040F10780F446404200F089
:1015700003F851F00041604709D0B0FA80F188408B
:10158000C91CC1F58461090501EBD02140057047F4
:10159000F8B504000D0016001F00EDB2202D02D298
:1015A000FFB2022F03D32421534800F0FBFDEDB21C
:1015B000E4B2524850F82400F6B24FF4807131433F
:1015C00040F82510F00705D5F6B2032E02D0F6B28A
:1015D000132E0DD1E4B24A4850F82400406901218D
:1015E000A9408843E4B2464951F8241048612AE0F2
:1015F000E4B2434850F8240040690121A94008435F
:10160000E4B23F4951F824104861FFB2012F0DD1D7
:10161000E4B23B4850F8240000680121A940084387
:10162000E4B2374951F8241008600CE0E4B23448C1
:1016300050F8240000680121A9408843E4B23049F1
:1016400051F824100860F1BD70B504000D001600BB
:10165000EDB2202D02D2F6B2022E03D34B21264842
:1016600000F0A0FDF6B2012E0DD1E4B2244850F8EE
:10167000240000680121A9400843E4B2204951F840
:10168000241008600CE0E4B21D4850F82400006803
:101690000121A9408843E4B2194951F82410086097
:1016A00070BD38B504000D00EDB2202D03D36021CC
:1016B000114800F077FDE4B2114850F824000068AA
:1016C0000121A9404840E4B20D4951F824100860B6
:1016D00031BD38B504000D00EDB2202D03D37121CA
:1016E000054800F05FFDE4B2054850F824000069A9
:1016F000E84010F0010032BD803200003884FF1F46
:101700002484FF1F2DE9F04104000D0016001F0086
:10171000DFF8580300684FF47A7148435FEA5008D5
:10172000E4B2002C0DD0E4B2012C02D0E4B2012CC2
:1017300002D1EDB2022D04D33821DFF8340300F0DA
:1017400031FD5FEA5800B04204D23921DFF82003AE
:1017500000F028FD5FEA1840B0FBF6F1002000E041
:10176000401C89B251FA00F2012AF9DA38FA00F184
:10177000B1FBF6F189B24A1C02FB07F242F2107388
:10178000B2FBF3F2E4B2002C05D0022C00F0B880DA
:10179000C0F08980E1E0DFF8DC321B6853F0807331
:1017A000DFF8D0623360EDB2002D0BD0022D25D0D2
:1017B00016D3042D3ED02FD3062D57D048D3072D56
:1017C00062D06FE0DFF8B0321B6853F40063DFF8DB
:1017D000A8623360DFF8A4324FF480661E60BCE07C
:1017E000DFF894321B6853F40063DFF88C623360D7
:1017F000DFF88C324FF480661E60F0E7DFF8783255
:101800001B6853F40063DFF870623360DFF87432F2
:101810004FF480661E60E2E7DFF85C321B6853F429
:101820000063DFF854623360DFF85C324FF48066A7
:101830001E60D4E7DFF840321B6853F48053DFF8B2
:1018400038623360DFF844324FF480661E60C6E7CA
:10185000DFF824321B6853F48053DFF81C623360D6
:10186000DFF82C324FF480661E60B8E7DFF80832EC
:101870001B6853F48053DFF800623360DFF81432E2
:101880004FF480661E60AAE7DFF8EC311B6853F462
:101890008053DFF8E4613360DFF8FC314FF4806699
:1018A0001E609CE7A8E0DFF8CC311B6853F00073A2
:1018B000DFF8C0613360EDB2002D02D0012D0FD0F2
:1018C0001DE0DFF8B4311B684FF400763343DFF8D6
:1018D000A8613360DFF8C4314FF440761E603CE00D
:1018E000DFF894311B684FF400763343DFF88861EA
:1018F0003360DFF8AC314FF440761E60EFE77BE0F9
:10190000DFF8A0311B6853F08073DFF89861336013
:10191000EDB2002D02D0012D0FD01DE0DFF85831BF
:101920001B684FF400763343DFF84C613360DFF817
:1019300078314FF440761E600FE0DFF83C311B68D1
:101940004FF400763343DFF830613360DFF85C3109
:101950004FF440761E60EFE74EE0EDB2E4B2DFF800
:10196000503153F8243013EBC503EDB2E4B2DFF885
:10197000406156F8246016EBC506F66836F004069A
:10198000DE60EDB2E4B2DFF8283153F8243013EB17
:10199000C5032826DE60E4B2DFF8143153F82430A2
:1019A000C0B210F0070050F028001860E4B2DFF871
:1019B000000150F824000023C364E4B2DFF8F00013
:1019C00050F8240089B28160E4B2DFF8E40050F8F6
:1019D00024000021C164EDB2E4B2DFF8D40050F875
:1019E000240010EBC50092B20261E4B2DFF8C0003F
:1019F00050F8240000214160BDE8F08170B504007A
:101A00000D001600E4B2002C0ED0E4B2012C02D07E
:101A1000E4B2012C02D1EDB2022D05D340F27911CE
:101A2000DFF84C0000F0BEFB42F21170864205D395
:101A30004FF4BD71DFF8380000F0B4FBE4B2DFF81A
:101A4000700050F824008068401C00FB06F042F251
:101A50001071B0FBF1F0EDB2E4B2DFF8541051F8C0
:101A6000241011EBC501086170BD00003888FF1F0C
:101A7000F03100003C8004403880044004B0044051
:101A800008B004400CB0044010B0044010C0044042
:101A900014C0044018C004401CC0044020900440FE
:101AA0002490044030800440289004402C9004404E
:101AB0001084FF1F10B50C001168012902D0022903
:101AC00004D009E0C0B25168884705E09168087009
:101AD0009068401C9060FFE72068401C206010BDAB
:101AE00030B41C00002300250570401C002A19D0CA
:101AF000096800290AD1302101705B1C180030BC34
:101B00007047303511000570401C5B1C0029F5D072
:101B100091FBF4F204FB1215002DF2D5E94311F10B
:101B20003105EFE70968002908D1302101705B1CFD
:101B3000E4E7373511000570401C5B1C0029DDD03F
:101B4000B1FBF4F204FB12150A2DF2D23035F1E7A5
:101B5000F8B504000D0016001F0005E03A00310042
:101B60003020FFF7A7FF641CAC42F7DBF1BDF8B5EE
:101B700004000D0016001F0005E03A00310020208F
:101B8000FFF798FF641CAC42F7DBF1BD2DE9F04F85
:101B90008DB005001600002000900C0005E02A0022
:101BA00000A91800FFF786FF641C2378002B00F0C3
:101BB000CE81252B12D00A2B05D02A0000A91800AF
:101BC000FFF778FF09E02A0000A90D20FFF772FF58
:101BD0002A0000A90A20FFF76DFFE5E70027002192
:101BE00001E057F0010700291BD1641C2078202850
:101BF0000BD023280FD02B2804D02D28F1D030284B
:101C000006D00BE057F00207EDE757F00407EAE7CC
:101C100057F00807E7E757F01007E4E7641E0121D3
:101C2000E1E75FF00008002104E00A2000FB083033
:101C3000B0F13008002908D1641C2378180030382E
:101C40000928F2D9641E0121F4E7641C20782E28AB
:101C50000BD10021FFE7002908D1641C207830381F
:101C60000928F8D9641E0121F5E7641E641C207858
:101C70004C2806D0682802D06C2801D002E002E08F
:101C800001E000E0641E641C23781800582878D016
:101C9000622800F0DA80632800F02481642813D0E1
:101CA000692811D06E2800F04D816F2800F0C280A5
:101CB000702800F0D580732800F01B81752800F093
:101CC000DA8078285DD06AE730680390361D0A23F1
:101CD000012203A904A8FFF703FF824604A81AEB18
:101CE00000090398002804D52D2002901AF1010A5A
:101CF00011E03800800704D52B2002901AF1010A68
:101D000009E03800400704D5202002901AF1010AAA
:101D100001E0002002905FF0000B3800000711D5B1
:101D20000298002804D02A0000A90298FFF7C2FEFA
:101D30005FF0010B2B0000AA41465046FFF708FF59
:101D4000C24612E03800C0070FD42B0000AA41465B
:101D50005046FFF70CFF0298002804D02A0000A983
:101D60000298FFF7A7FE5FF0010BBBF1000F07D150
:101D70000298002804D02A0000A90298FFF79AFED2
:101D8000A3E030680190361D1023002201A904A8A9
:101D9000FFF7A6FE824604A81AEB00095FF0000BCD
:101DA0003800000716D53800C0060BD52A0000A958
:101DB0003020FFF77FFE2A0000A97820FFF77AFE87
:101DC0005FF0010B2B0000AA41465046FFF7C0FE12
:101DD000C2461CE03800C00719D43800C00601D53F
:101DE0001AF1020A2B0000AA41465046FFF7BFFE37
:101DF0003800C0060BD52A0000A93020FFF75AFE94
:101E00002A0000A97820FFF755FE5FF0010B38008B
:101E1000C0060ED5BBF1000F0BD12A0000A930205F
:101E2000FFF748FE2A0000A97820FFF743FE1AF1C9
:101E3000020A4AE030680190361D0823002201A9F9
:101E400004A8FFF74DFE82461FE030680190361D62
:101E50000223002201A904A8FFF742FE824614E0F3
:101E600030680190361D1023002201A904A8FFF755
:101E700037FE824609E030680190361D0A230022B1
:101E800001A904A8FFF72CFE824604A81AEB00095A
:101E90003800000707D52B0000AA41465046FFF73F
:101EA00057FEC24611E03800C0070ED42B0000AA2E
:101EB00041465046FFF75BFE07E02A0000A999F86B
:101EC0000000FFF7F7FDB9F1010999F800000028BB
:101ED000F3D1F80705D52B0000AA41465046FFF77D
:101EE00046FE61E63078361D2A0000A9FFF7E2FDC4
:101EF0005AE6D6F80090361DB9F1000F21D04846B9
:101F000000F056F982463800C0070ED42B0000AA14
:101F100041465046FFF72BFE07E02A0000A999F83A
:101F20000000FFF7C7FD19F1010999F8000000282A
:101F3000F3D1F80705D52B0000AA41465046FFF71C
:101F400016FE31E63068361D009901602CE60098D7
:101F50000DB0BDE8F08F0EB400B584B00121009142
:101F60000449019105AA010000A8FFF70FFE04B083
:101F70005DF810FB3939000038B504000D00E4B2FB
:101F8000002C08D0022C24D014D3042C3FD02FD303
:101F9000052C4BD059E03321724800F003F93E2163
:101FA000704800F0FFF87048006850F480606E4997
:101FB00008604AE06D484FF4407101606C484FF48E
:101FC000407101606848006850F40060664908602C
:101FD0003BE068484FF44071016067484FF440713E
:101FE00001606148006850F480505F4908602CE04F
:101FF00062484FF44071016061484FF440710160E4
:102000005948006850F40050574908601DE05D4889
:102010004FF4407101605C484FF4407101605B48CF
:10202000006850F48060594908600EE058484FF449
:102030004071016057484FF4407101605348006897
:1020400050F4006051490860FFE7E4B2524850F88C
:102050002400C07810F0F300E4B24F4951F8241086
:10206000C870E4B24C4850F8240000218170E4B2FA
:10207000002C08D00020E4B2012C04D050F0000065
:10208000C0B2002805D0454800684FF47A71484333
:1020900004E0434800684FF47A7148432901B0FBDB
:1020A000F1F1E4B23C4A52F82420127812F0E00236
:1020B00089B20B0A13F01F031A43E4B2364B53F8EC
:1020C00024301A70E4B2344A52F82420517040018E
:1020D0002A01B0FBF2F089B2B0EB4110E4B22E4914
:1020E00051F82410897A11F0E002E4B22A4951F83B
:1020F000241010F01F0010438872E4B2264850F8F4
:102100002400C07850F00C00E4B2234951F82410A8
:10211000C87031BDC0B2204951F820100979890634
:10212000F8D5C0B21C4951F82000C0797047C0B240
:10213000194A52F8202012791206F8D5C0B2164A70
:1021400052F82000C171704738B504000D0005E059
:1021500029782000C0B2FFF7EAFF6D1C287800281C
:10216000F6D131BDC8320000348004400CB00440C8
:1021700010B004400CC0044008C0044014D0044017
:1021800010D0044064D0044060D004402880044053
:1021900024D0044020D00440CC85FF1F3088FF1F8E
:1021A0003888FF1F80B500F011F800F039F8FCE71F
:1021B0000021002802D1002006E0491C0200501C2A
:1021C0001278002AF9D108007047000080B5012379
:1021D000012218210420FFF7DBF901230122192134
:1021E0000420FFF7D5F9012301221A210420FFF76B
:1021F000CFF9012301221B210420FFF7C9F901BDFA
:102200001E4A12691268012383409A43C9B211F031
:10221000010111FA00F0104318490969086070477C
:1022200010B50123012218210420FFF7B1F9012381
:10223000012219210420FFF7ABF9012301221A2101
:102240000420FFF7A5F9012301221B210420FFF739
:102250009FF918240DE000212000C0B2FFF7D0FF45
:10226000642000F00DF801212000C0B2FFF7C8FF84
:10227000641CE4B21C2CEED310BD00002484FF1FAC
:10228000002104E000BF521E002AFBD1491C8142FC
:1022900002D2024A1268F7E7704700003888FF1F31
:1022A00080B55FF4E1310320FFF766FE00230022D2
:1022B00006210420FFF76CF9CE48FFF74CFE04E03E
:1022C000CD480178CD48FFF746FECD48FFF743FEE5
:1022D000CC48FFF740FECC48FFF73DFECB48FFF768
:1022E0003AFECB48FFF737FECA48FFF734FECA482C
:1022F000FFF731FEC948FFF72EFE4FF49670FFF747
:10230000BFFF06210420FFF7E4F900284FD1052183
:102310000120FEF741FF07210120FEF73DFFC048E5
:10232000FFF719FE0023012218210420FFF730F9DE
:102330000023012219210420FFF72AF9002301229A
:102340001A210420FFF724F9002301221B21042075
:10235000FFF71EF940F6B830FFF792FF1023012275
:1023600005210120FFF772F8AE4908601023012211
:1023700007210120FFF76AF8AB490860A948006807
:1023800000F0F4F9A848006800F00CFA18210420C5
:10239000FFF787F919210420FFF783F91A21042098
:1023A000FFF77FF91B210420FFF77BF9FEE7924836
:1023B000372101709048007830280ED031281FD086
:1023C00032284CD0332854D0342879D0362800F025
:1023D0009480372800F0CD8072E70E210020FEF7B0
:1023E000DBFE4FF4FA70FFF74BFF03220E210020B3
:1023F000FEF7F0FF010089B27DA0FFF7ACFDF0E72A
:102400008A490320FFF7A0FE06210120FEF7C4FE43
:1024100007210120FEF7C0FE0E210020FEF7BCFEC2
:1024200004210120FEF7B8FE0A2301220E2100201C
:10243000FFF70CF87E4908607E48FFF78CFD082303
:10244000012206210120FFF701F880B2B0F56B717F
:1024500067A0FFF780FD3220FFF712FFEFE7764914
:102460000320FFF771FE00F005F97248FFF773FDD6
:10247000FEE772490320FFF767FE00F0C5F97048D8
:10248000FFF769FD6F48FFF766FD40F6354000F045
:102490006DF96D48FFF75FFD40F2FB3000F082F907
:1024A0006A48FFF758FD00F071F901006848FFF72E
:1024B00052FD00F087F901006648FFF74CFDFEE78A
:1024C00065490320FFF740FE72B6892206210020ED
:1024D00000F066FA89220721002000F061FA5F48C7
:1024E00000684FF4FA7101FB00F1012000F08CFA52
:1024F00062B65048FFF72FFDFEE759490320FFF76A
:1025000023FE00F0FFF84B48FFF725FD4FF47A70EB
:10251000FFF7B6FE09E0012209210320FFF794F836
:10252000012207210320FFF78FF84FF4FA62002100
:102530000120FFF763FA4FF4FA6201210120FFF74F
:102540005DFA4848FFF707FD0320FFF7E3FD303849
:1025500045490880444800880028DCD10022092130
:102560000320FFF771F8002201210320FFF76CF828
:10257000DBE73E48FFF7EFFC06210120FEF70CFEEB
:1025800007210120FEF708FE0E210020FEF704FEC1
:1025900005210120FEF700FE00F0F8F8214908604F
:1025A00000F010F92049086000F0ACF80022092181
:1025B0000320FFF749F8002207210320FFF744F822
:1025C00040F6B83200210120FFF718FA40F6B83281
:1025D00001210120FFF712FA00F04CF81F480168B2
:1025E000032000F011FA2248FFF7B5FCFEE70000D7
:1025F0000A256400543300004388FF1F1033000095
:102600009433000044340000F8370000F83800002C
:10261000083900009C38000010380000B038000075
:10262000483100002888FF1F2488FF1F78340000ED
:102630002C88FF1FA835000084360000A436000057
:1026400028380000CC350000F03500007437000059
:102650001839000028390000C43600003888FF1FF0
:1026600034350000903700004088FF1F5C350000C3
:10267000AC37000080B572B600F006F80A210020E1
:1026800000F0C2F962B601BD80B501230122082124
:102690000120FEF77DFF0123012209210120FEF721
:1026A00077FF012300220A210120FEF771FF00239A
:1026B000002208210420FEF76BFF002300220921DD
:1026C0000420FEF765FFFFF781FD00F006F8002209
:1026D0001A210420FEF7B8FF01BD80B501230122B5
:1026E00015210120FEF754FF0123012216210120AC
:1026F000FEF74EFF0123002217210120FEF748FFBD
:1027000001BD000080B5002342F2107200210120BB
:10271000FEF7F8FF002342F2107201210120FEF7BC
:10272000F1FF0023012209210320FEF731FF0023DE
:10273000012207210320FEF72BFF0123032204219E
:102740000220FEF725FF0123032205210220FEF7C8
:102750001FFF72B689220621002000F021F989228C
:102760000721002000F01CF962B601BD1CB5040071
:10277000642000F057F800A9200000F02FF800AB0B
:1027800006220021642000F0A2F813BD00B583B03A
:1027900000AB06220021642000F083F800A800F0BE
:1027A00025F80EBD1CB50400652000F03BF800A91B
:1027B000200000F013F800AB06220021652000F095
:1027C00086F813BD00B583B000AB0622002165205A
:1027D00000F067F800A800F009F80EBD020E0A70BC
:1027E000020C4A70020A8A70C87070470021027891
:1027F00011EB0261427811EB0241827811EB022168
:10280000C0780918080070475B48006850F4002041
:1028100059490860594800780006FBD557483021CF
:102820000170704780B580B24FF40061484300905A
:102830005348092101709DF80200524908709DF823
:1028400001005149087051489DF80010017000F0D6
:1028500080F8012801D1012022E00098B0F5006F36
:102860001DD847480621017046480021017046489E
:102870000421017045480C2101704548FF21017079
:102880004448FF2101704448FF2101704348FE2164
:10289000017000F05EF8012801D1022000E0002064
:1028A00002BD30B4002480B24FF40065684310FAD2
:1028B00081F0040003E020781870641C5B1C100099
:1028C000421E80B20028F6D1012030BC704770B59E
:1028D00082B014001D0089B2042291FBF2F303FBC5
:1028E0001213002B01D0012032E0254A0623137079
:1028F00080B24FF40062504310FA81F0009000263D
:1029000004E0361D0098001D00902D1DA4B2A642C3
:102910001DD29DF802001B4908709DF801001A495C
:1029200008701A489DF800100170E878184908707E
:10293000A8781849087068781749087017482978E6
:10294000017000F006F80128DBD1022000E0002031
:1029500076BD0A483021017008488021017007487F
:1029600000780006FBD5054800783121084201D0E7
:10297000012000E00020704704F001400000024008
:102980000700024006000240050002400400024029
:102990000B0002400A000240090002400800024009
:1029A00010B5164B1B684FF4007484402343134C3E
:1029B0002360C9B2C0B2124B53F82030D2B2140413
:1029C00014F47024D2B2D209D2B2224352F48172EA
:1029D00043F82120C0B20B4A52F82020526901234B
:1029E00013FA01F132EA0101C0B2064A52F820207E
:1029F0005161C0B2573000F03EF810BD388004403D
:102A00003884FF1F2484FF1F80B5164A126852F4D1
:102A10000002144B1A60144A126892089200124B7A
:102A20001A60C0B20201114BD150C0B20F4911EB74
:102A30000011C96851F00101C0B20C4A12EB00123A
:102A4000D160C0B2094911EB0011896851F003014E
:102A5000C0B2064A12EB00129160C0B2443000F0DE
:102A60000AF801BD3C80044000700340007103403F
:102A700025490860704710B504005C2C02DB234830
:102A8000FFF769FA202094FBF0F0002803D0022819
:102A900027D013D337E00120202194FBF1F202FB71
:102AA000114290401A4908600120202194FBF1F264
:102AB00002FB114290401749086024E001202021C8
:102AC00094FBF1F202FB114290401349086001208F
:102AD000202194FBF1F202FB114290400F49086063
:102AE00011E00120202194FBF1F202FB1142904001
:102AF0000B4908600120202194FBF1F202FB1142F6
:102B000090400849086010BD08ED00E0D433000093
:102B100080E200E000E100E084E200E004E100E0A7
:102B200088E200E008E100E0DFF800F0E585FF1F43
:102B300010B5C0B2002800F01481C0B201003029E5
:102B40001ED032292CD0602931D0642936D06E298C
:102B50003BD0782940D07D2945D082294AD08C2984
:102B60004FD0962954D0A02959D0AA295ED0B42993
:102B700063D0C82968D0E1296DD0FA2972D078E0F5
:102B8000A64918220A70A54900224A70A3490022CA
:102B90008A70C0B2652870D2A0490022CA708CE049
:102BA0009E4918220A709D4901224A70EEE79B490E
:102BB00018220A70994918224A70E7E797491822A3
:102BC0000A7096491A224A70E0E7944918220A705E
:102BD00092491F224A70D9E7904913220A708F49FF
:102BE00018224A70D2E78D4913220A708B491A22A3
:102BF0004A70CBE7894913220A7088491C224A701F
:102C0000C4E786490E220A70844912224A70BDE741
:102C100082490E220A70814915224A70B6E77F491F
:102C20000E220A707D4918224A70AFE77B490E22B6
:102C30000A707A491B224A70A8E778490E220A7066
:102C400076491E224A70A1E774490C220A70734922
:102C50001C224A709AE771490B220A706F491E22A2
:102C60004A7093E76D490A220A706C491F224A7024
:102C70008CE76420FFF75CFFCEE0C0B2C92803D226
:102C800066490122CA7018E00100C9B240F22D1253
:102C900089B2914203D261490222CA700DE001005B
:102CA000C9B240F2911289B2914203D25B49032228
:102CB000CA7002E059490F22CA705849574AD2785F
:102CC0000A71C0B21F2803D254480021417148E064
:102CD000C0B23D2803D251480121417141E0C0B248
:102CE0005B2803D24D48022141713AE0C0B27928F5
:102CF00003D24A480321417133E0C0B2972803D27E
:102D00004648042141712CE0C0B2B52803D24348A3
:102D10000521417125E0C0B2D32803D23F480621E6
:102D200041711EE0C0B2F12803D23C480721417135
:102D300017E00100C9B240F20F1289B2914203D2EA
:102D40003648082141710CE0C0B240F22D1180B22A
:102D5000884203D231480921417102E02F480F21F6
:102D600041712E484078183080B2322148432B49B7
:102D70000978491C89B290FBF1F4294800210170BF
:102D80002848006850F0805026490860264800789E
:102D900050F080002449087024489821017024488C
:102DA0000078C006FBD422480078C0F38100C0B28E
:102DB0000228F8D11948007810F01F001D4908704A
:102DC0001D480021017015484379144802791348C1
:102DD000C17812488078FFF7A7FE1048407810F0BD
:102DE0001F0050F040001449087011480078800618
:102DF000FBD50F4800784006FBD50C48007810F052
:102E00003F000A4908700A480078C0F38100C0B248
:102E10000328F8D12000C0B210BD00BFC485FF1F39
:102E2000014006403480044008C00740004006408E
:102E3000064006400440064005400640008003402E
:102E40000090034000800B4000B0034000B00B40F6
:102E500000F00F4040F00F4080F00F40C0F00F40F6
:102E600000F10F400090044000A0044000B0044076
:102E700000C0044000D004402C01000058020000B3
:102E800084030000B004000000000000D4FEFFFF37
:102E90004AF7280000F22B008894290042702A008B
:102EA0004AF728004AF7280050AE010070FC0100E4
:102EB00078D101003ED301003060010050AE010026
:102EC000B00400003057050028880400288804005A
:102ED00028880400305705003057050010270000EF
:102EE00008CF000008CF000008CF00001027000026
:102EF0001027000078B0090078B0090020A1070071
:102F00001879000010EB090078B0090000000000FB
:102F10000000000044480000F22B00000000000008
:102F200000000000000000005203000052030000F7
:102F300052030000000000000000000069000000D3
:102F40006900000019000000190000006E00000078
:102F5000690000006900000069000000190000001D
:102F6000190000006E0000006900000079000000F8
:102F7000790000007900000079000000790000006D
:102F800079000000F4010000701700000300000049
:102F90000A000000E803000001000000F401000046
:102FA00001000000FCA9F1D24D62403F000000008A
:102FB0000000494000000000000000000000000088
:102FC0000000000000000000000000000000000001
:102FD0000000F03F000000000000000019000000A9
:102FE000190000007900000079000000F3000000E3
:102FF0000B1F00000009000000A0064000B00640C2
:1030000000C0064000D0064000A00E4000B00E40B8
:103010000000000080B51C481C4988420BD00020ED
:1030200006E01949194A52F8202041F82020401C96
:10303000B0F5826FF5D31448FFF71AFD1449154A0D
:103040001548801A03E013780B70521C491C0300CA
:10305000581E002BF7D111491148401A02E00022F6
:103060000A70491C0200501E002AF8D10D490E4A70
:103070000E48801A03E013780B70521C491C0300A1
:10308000581E002BF7D101BD0080FF1F000000007B
:103090001084FF1F3C2E0000143000003086FF1FFC
:1030A0004488FF1FE485FF1FA4310000F0310000B9
:1030B00080B51C48006850F478501A490860C82050
:1030C000FFF736FD18490860174800684FF47A7119
:1030D0004843164908601548006815490968C1F356
:1030E0000361491CB0FBF1F01249086000F003F8DD
:1030F00000F00CF801BD1048006850F480500E49F3
:1031000008600E484FF4E061016070470C480068A9
:1031100050F001000A4908600A484FF4A0610160BC
:1031200070470000388004403488FF1F3088FF1F3C
:10313000448004403888FF1F0480044018900440F5
:10314000408004400CB00440576520617265206ED9
:103150006F7720696E206779726F2063616C696296
:10316000726174696F6E206D6F64652C20506C65A0
:10317000617365206B656570206361722073746193
:1031800074696F6E65727920616E6420776169740D
:103190002074696C6C206C6967687420646965735D
:1031A0000000000070B4104C24680F4D2D6855F4D9
:1031B0007F050D4E3560090611F0706151EA00700F
:1031C000110511F470010843190411F4702108432A
:1031D00006490860002000E0401CC0B29842FBD3C2
:1031E0000148046070BC704700F001404480044016
:1031F000433A5C55736572735C4C6F7569734D6FC0
:103200005C446F63756D656E74735C476974487573
:10321000625C696E6E6F2D4941522D323031335CE4
:103220007372635C647269766572735C46544D5C5C
:1032300046544D2E63000000433A5C55736572732B
:103240005C4C6F7569734D6F5C446F63756D656E33
:1032500074735C4769744875625C696E6E6F2D4962
:1032600041522D323031335C7372635C6472697623
:103270006572735C6164635C6164632E630000006B
:10328000433A5C55736572735C4C6F7569734D6F2F
:103290005C446F63756D656E74735C4769744875E3
:1032A000625C696E6E6F2D4941522D323031335C54
:1032B0007372635C647269766572735C6770696F60
:1032C0005C6770696F2E6300433A5C557365727377
:1032D0005C4C6F7569734D6F5C446F63756D656EA3
:1032E00074735C4769744875625C696E6E6F2D49D2
:1032F00041522D323031335C7372635C6472697693
:103300006572735C756172745C756172742E6300B2
:103310000A0C596F7520656E74657265643A256391
:103320002C20506C6561736520656E746572206138
:10333000206E756D6265722066726F6D20312D375B
:1033400020746F2073656C6563742061206D6F64F9
:10335000650A0C000A57656C636F6D6520746F20F9
:1033600074686520536D617274436172203230312C
:10337000332053656E736F72207465616D206465D0
:1033800076656C6F70656D656E74207379737465A6
:103390006D0A00003D3D3D3D3D3D3D3D3D3D3D3DDA
:1033A0003D3D3D3D3D3D3D3D3D3D3D3D3D3D3D3D4D
:1033B0003D3D3D3D3D3D3D3D3D3D3D3D3D3D3D3D3D
:1033C0003D3D3D3D3D3D3D3D3D3D3D3D3D3D3D3D2D
:1033D0003D3D0A000A4552522120496E76616C69D2
:1033E00064204952512076616C7565207061737359
:1033F000656420746F20656E61626C65206972710E
:103400002066756E6374696F6E210A0080B500F0E6
:1034100009F80A4800884FF6FE71084007490880FD
:1034200001BD000072B606484CF2205101800448EC
:103430004DF62811018062B670470000002005405B
:103440000E200540506C656173652073656C656383
:1034500074206D6F64653A0A2D2D2D2D2D2D2D2D87
:103460002D2D2D2D2D2D2D2D2D2D2D2D2D2D2D2D8C
:103470002D2D2D0A00000000546865206D6F6465D5
:10348000206E6F7720697320313A20416363656C49
:1034900065726F6D6574657220616E642047797224
:1034A0006F73636F70652054657374000A2A2A2A4B
:1034B0002A64656661756C745F69737220656E74E9
:1034C00065726564206F6E20766563746F72202567
:1034D000642A2A2A2A2A0D0A0A0000000A2A2A2A0D
:1034E0002A2A2A204C45465420262052494748542F
:1034F000206564676520706F736974696F6E202A38
:103500002A2A2A2A2A00000010B5084979441C31C9
:10351000074C7C441A34A14206D0081D0A68511891
:1035200088470146A142F8D110BD00BFE800000065
:10353000F4000000546865206D6F6465206E6F773D
:1035400020697320363A204D6F746F7220436F6E7E
:1035500074726F6C20746573740000000A205468E4
:1035600065204D6F6465206973206E6F7720373A50
:103570002053797374656D4C6F6F7020546573744C
:1035800000000000426F7468207369646520646500
:10359000746563746564203A205354524149474826
:1035A00054206C696E6500000A457665727974680E
:1035B000696E6720496E697469616C697A65642017
:1035C000616C72696768740A000000007772697440
:1035D000696E672074686520753332203A20333174
:1035E000323520746F206D656D6F727920310A005D
:1035F00077726974696E6720746865207533323A32
:10360000203130313920746F206D656D6F727920F3
:10361000320A00002FDFFFFF140200003086FF1F78
:10362000000000000A63757272656E745F6D6964F4
:103630005F6572726F725F706F732069733A2025D5
:10364000640000004C6566742073696465206465DD
:10365000746563746564203A204F4E452D45444798
:1036600045000000526967687420736964652064CE
:1036700065746563746564203A204F4E452D45445A
:1036800047450000546865206D6F6465206E6F7754
:1036900020697320323A204C696E65617220434381
:1036A00044000000546865206D6F6465206E6F777C
:1036B00020697320333A466C617368204D656D6FE5
:1036C00072790A00546865206D6F6465206E6F77AB
:1036D00020697320343A20656E636F6465722074CC
:1036E0006573740080B5FEF771FDFEF799FD034820
:1036F0000178C9B20248FEF72EFC01BD04ED00E0DE
:10370000AC3400000A63757272656E745F31737455
:103710005F72696768745F656467653A2025640055
:103720000A63757272656E745F3173745F6C65667F
:10373000745F656467653A20256400000A2A2A2AB6
:103740002A2A2A20444952204552524F52202A2ADE
:103750002A2A2A2A000000000A63757272656E74B4
:103760005F6469725F6572726F722069733A2025B7
:103770006C6400004E6F772072656164696E67202B
:1037800066726F6D206D656D6F72790A00000000C2
:103790000A0C20496E7075742064697265637469DF
:1037A0006F6E203A2030206F722031000A45766516
:1037B00072797468696E6720696E697465642061E6
:1037C0006C726967687400000A0C675F7533326554
:1037D0006E636F6465725F6C663A256C640000000E
:1037E0000A0C675F753332656E636F6465725F7272
:1037F000743A256C64000000313A416363656C657E
:10380000726F6D65746572266779726F0A000000C9
:10381000363A4D6F746F7220636F6E74726F6C20E6
:10382000746573740A000000466C617368204D650E
:103830006D6F727920696E6974206F6B0A000000E9
:103840000120C046002801D0FFF75EFE0020FEF7F1
:1038500027FD00F000F800F001B8000007463846E8
:1038600000F002F8FBE7000001491820ABBEFBE7BF
:10387000260002000A0A2A2A2A2A2A2A202A2A2A72
:103880002A2A2A0A000000004E4F204544474520BE
:10389000646574656374656400000000343A456EC5
:1038A000636F6465722074657374696E670A0000E3
:1038B000373A53797374656D4C6F6F70205465732C
:1038C000740A000080B5FFF7A1FDFFF7A3FBFFF727
:1038D000EFFBFEF7E5FCFEE74343442053616D70C8
:1038E0006C653A20000000000A2A2A2A2A2A2A2087
:1038F0002A2A2A2A2A2A0A00323A4C696E656172FB
:103900004343440A00000000333A466C6173682068
:103910004D656D6F72790A004D656D6F727920315A
:103920003A25640A000000004D656D6F72792032FF
:103930003A25640A0000000080B50100C9B20320E6
:10394000FEF7F5FB01BDC046C046C046C046FFF7C6
:0439500077FF0000FD
:040000050000394777
:00000001FF
