:10000000F87F00201104000025460000254600006E
:100010002546000025460000254600002546000034
:100020002546000025460000254600002546000024
:100030002546000025460000254600002546000014
:100040002546000025460000254600002546000004
:1000500025460000254600002546000025460000F4
:1000600025460000254600002546000025460000E4
:1000700025460000254600002546000025460000D4
:1000800025460000254600002546000025460000C4
:1000900025460000254600002546000025460000B4
:1000A00025460000254600002546000025460000A4
:1000B0002546000025460000254600002546000094
:1000C0002546000025460000254600002546000084
:1000D0002546000025460000254600002546000074
:1000E0002546000025460000254600002546000064
:1000F0002546000025460000254600002546000054
:100100002546000025460000254600002546000043
:100110002546000025460000254600002546000033
:100120002546000025460000254600002546000023
:100130002546000025460000254600002546000013
:100140002546000025460000254600002546000003
:100150004D04000061040000254600004905000030
:1001600025460000254600002546000025460000E3
:1001700025460000254600002546000025460000D3
:1001800025460000254600002546000025460000C3
:100190002546000025460000254600009904000081
:1001A00025460000254600002546000025460000A3
:1001B0002546000025460000254600002546000093
:1001C0002546000025460000254600002546000083
:1001D0002546000025460000254600002546000073
:10040000FFFFFFFFFFFFFFFFFFFFFFFFFEFFFFFFFD
:1004100062B64FF000004FF000014FF000024FF0C5
:1004200000034FF000044FF000054FF000064FF0BE
:1004300000074FF000084FF000094FF0000A4FF09E
:10044000000B4FF0000C04F0DDF9FEE7DFF8540B71
:10045000006850F00100DFF84C1B08607047000096
:1004600080B572B634480168344801F08EF83448DB
:100470000168344801F089F82F48002101603048B4
:1004800000210160DFF8200B006850F00100DFF868
:10049000181B086062B601BD002006210800DFF8C5
:1004A0000C1B09680122824011421CD0DFF8FC1AA3
:1004B0000968012212FA00F00843DFF8F01A086018
:1004C000DFF8EC0A80680069C0F34010002805D00E
:1004D00019480068401C1849086004E01648006884
:1004E000401E154908600720DFF8C01A096801227C
:1004F000824011421ED0DFF8B41A0968012212FAB4
:1005000000F00843DFF8A41A0860DFF8A40A806846
:100510000069C00607D4DFF89C0A0068401CDFF8B9
:10052000941A086006E0DFF88C0A0068401EDFF8C5
:10053000841A086070470000F087FF1F084700001A
:10054000F487FF1F2047000080B572B6DFF8680A05
:100550000068002804D0022800F0AC8070D3C5E108
:10056000DFF8580A0068DFF8581A0968884207DA85
:10057000DFF8480A0068401CDFF8401A08602CE0E9
:10058000DFF8400A0068002827D1DFF8300A002190
:10059000016001F02EF80121DFF82C0A01F006F8C5
:1005A000DFF8240A01F01CF9DFF8200A00680128AE
:1005B00001D100F095FDDFF8180A0068012803D189
:1005C000DFF8040A01F0E4F8DFF8080A00680128FF
:1005D00003D1DFF8F40901F0EEF8DFF8FC09007848
:1005E000212814D3DFF8F4090068DFF8F41909684A
:1005F000484342F2107190FBF1F0DFF8E819096806
:10060000401A212190FBF1F0DFF8DC190860DFF8D7
:10061000D4090068DFF8D01909680818DFF8C41990
:100620000860DFF8C8090068DFF8BC190968401ADB
:10063000DFF8B8190860DFF880090121016055E191
:10064000142301220621012001F0E5FB80B2DFF82E
:10065000A0190968401ADFF89C19086014230122C8
:100660000721012001F0D7FBDFF88C1911FA80F087
:10067000DFF888190860DFF87C090068DFF8801966
:100680000968484342F2107190FBF1F0DFF86C19F1
:100690000968DFF870291268514342F2107291FB29
:1006A000F2F1401ADFF860190860DFF80C09022146
:1006B00001601BE1DFF820090078212807D2DFF86C
:1006C00018090078401CDFF81019087067E0DFF89F
:1006D000080900210170DFF834090068DFF8D41838
:1006E00009680818DFF828190860DFF82809006889
:1006F000DFF8C01809680818DFF810190968401AEF
:10070000DFF8101908600020DFF8A8180860DFF88B
:10071000FC180860DFF800090068DFF800190968B4
:100720000818DFF8EC180968401ADFF8F4180860B8
:10073000DFF8EC080068DFF8EC18096842F2107284
:1007400091FBF2F14843DFF8E0180860DFF8D008C9
:100750000068DFF8D818096842F2107291FBF2F1D4
:100760004843DFF8CC180860DFF8C8080068DFF8F5
:10077000C01809680818DFF8BC180860DFF8A80876
:100780000068DFF8B01809680818DFF8AC180968C5
:10079000401A212190FBF1F0DFF8A0180860DFF883
:1007A00098080068DFF8941809680818DFF88818B6
:1007B0000860DFF854080068DFF87C180968401A00
:1007C000DFF8201809680818DFF874180860DFF8E7
:1007D00038080068DFF860180968401ADFF80C185C
:1007E00009680818DFF85C180860DFF8540800682A
:1007F000012809DB00220721032001F0F3FBDFF8C9
:1008000048080121016012E001220721032001F0C4
:10081000E9FBDFF834085FF0FF310160DFF8200802
:1008200000685FF0FF314843DFF814180860DFF814
:1008300014080068012809DB00220921032001F0C7
:10084000D1FBDFF808080121016012E00122092133
:10085000032001F0C7FBDFF8F4075FF0FF31016010
:10086000DFF8E00700685FF0FF314843DFF8D41796
:100870000860DFF8CC070068B0F5FA5F04DDDFF848
:10088000C0074FF4FA510160DFF8B8070068B0F50F
:10089000FA5F04DDDFF8AC074FF4FA510160DFF8CE
:1008A000B007006800280ED1DFF894070268002125
:1008B000012001F071FDDFF88C07026801210120A1
:1008C00001F06AFD0EE0DFF888070068012809D111
:1008D00000220021012001F05FFD00220121012002
:1008E00001F05AFDDFF8D00600210160DFF864074F
:1008F0000068401CDFF85C170860DFF858070068E4
:10090000DFF854170968884249D20821042001F011
:10091000AEFB00281BD1DFF844070068002816D181
:10092000DFF83C070068401CDFF834170860DFF888
:1009300034070068DFF828170968884203DADFF80F
:10094000200700210160DFF8140701210160DFF8B2
:100950000C070068012806D1DFF80C070068401C6E
:10096000DFF804170860DFF800070068C82807D11F
:10097000DFF8E80600210160DFF8EC0600210160E5
:10098000DFF8D0060068C821B0FBF1F201FB1200CD
:10099000002858D11B21042001F051FB53E0DFF85F
:1009A000B4060068DFF8B016096888424BD1DFF85A
:1009B0006C0600210160DFF84806DFF8B016096810
:1009C0000160DFF84006DFF8A81609680160DFF86B
:1009D0002006DFF8A01609680160DFF84806DFF896
:1009E000981609680160DFF84406DFF89016096878
:1009F0000160DFF8EC05DFF8881609680160DFF8B0
:100A00008406DFF8841609680160DFF88006DFF8E5
:100A1000801609680160DFF87C06DFF87C1609683B
:100A20000160DFF87806DFF8781609680160DFF802
:100A30007406DFF8741609680160DFF87006DFF8E5
:100A4000701609680160DFF810060068DFF86416A8
:100A500009680818B0F57A60DFF8F8150968884267
:100A6000C0F08380DFF8500600680A21B0FBF1F285
:100A700001FB1200002803D1DFF8400600210160CD
:100A8000DFF83806006800285AD10921042001F057
:100A9000EEFA002824D1DFF8DC050068401EDFF8FC
:100AA000D4150860DFF8CC054068401EDFF8C41597
:100AB0004860DFF8C0058068401EDFF8B815886020
:100AC000DFF8B005C068401EDFF8A815C860DFF881
:100AD000EC0501210160DFF8E0050021016029E05B
:100AE0000621042001F0C3FA002823D1DFF8840591
:100AF0000068401CDFF87C150860DFF87805406866
:100B0000401CDFF870154860DFF868058068401CFD
:100B1000DFF860158860DFF85C05C068401CDFF80E
:100B20005415C860DFF8940501210160DFF88805DD
:100B300000210160DFF8B804DFF8381509680160AA
:100B4000DFF874050068401CDFF86C150860DFF8FA
:100B5000040500683221B0FBF1F201FB120000280D
:100B600003D11B21042001F06AFADFF8E8040068D1
:100B7000DFF840150968DFF8E02412685118DFF843
:100B800040251268DFF83C351B6803FB02118842E0
:100B900040F09B8001221B21042001F023FADFF8A2
:100BA000C0040068DFF81C1509688842C0F28D8017
:100BB000DFF810050068DFF8101551F82000DFF8A5
:100BC0005C140860DFF8FC040068DFF8A01451F83A
:100BD0002000DFF82C140860DFF8E8040068DFF874
:100BE000901451F82000DFF81C140860DFF8D404DA
:100BF0000068DFF8801451F82000DFF8F413086073
:100C0000DFF8C0040068DFF8701451F82000DFF846
:100C100014140860DFF8AC040068DFF8601451F8C1
:100C20002000DFF808140860DFF898040068DFF897
:100C3000501451F82000DFF8A8130860DFF884048E
:100C40000068DFF8441451F82000DFF83814086019
:100C5000DFF870040068DFF8381451F82000DFF87E
:100C60002C140860DFF85C040068DFF82C1451F8DD
:100C70002000DFF820140860DFF848040068DFF87F
:100C8000201451F82000DFF814140860DFF8340451
:100C90000068DFF8141451F82000DFF80814086029
:100CA000DFF820040068DFF8081451F82000DFF8AE
:100CB000FC130860DFF80C040068401CDFF8041423
:100CC0000860DFF8080401210160DFF80004006813
:100CD00001286AD1DFF87C030068FA21B0FBF1F249
:100CE00001FB1200002860D1DFF874030068DFF810
:100CF000D81351F82000C9490860DFF86403006880
:100D0000DFF8681351F82000BD490860DFF8500390
:100D10000068DFF85C1351F82000BA490860D04839
:100D20000068D44951F82000B1490860CC480068F7
:100D3000D14951F82000BB490860C9480068CF4933
:100D400051F82000B9490860C5480068CC4951F8FD
:100D50002000A3490860C2480068CB4951F8200030
:100D6000C8490860BE480068C94951F82000C74911
:100D70000860BB480068C84951F82000C5490860B0
:100D8000B7480068C64951F82000C4490860B44813
:100D90000068C54951F82000C2490860B0480068A1
:100DA000C34951F82000C1490860C94800680028BB
:100DB00050D1AB48006800280FD10122182104202F
:100DC00001F010F901221921042001F00BF9002291
:100DD0001A21042001F006F9ACE0A14800680128BE
:100DE0000FD100221821042001F0FCF80122192162
:100DF000042001F0F7F801221A21042001F0F2F892
:100E000098E09748006802280FD101221821042099
:100E100001F0E8F800221921042001F0E3F8012292
:100E20001A21042001F0DEF884E08D4800680328D0
:100E300040F0808000221821042001F0D3F8012224
:100E40001921042001F0CEF800221A21042001F01B
:100E5000C9F86FE09E48006801286BD19B48006884
:100E6000002814D101221821042001F0BBF801222E
:100E70001921042001F0B6F801221A21042001F002
:100E8000B1F801221B21042001F0ACF852E08F4898
:100E9000006801284ED17248006800280FD1012255
:100EA0001821042001F09EF801221921042001F0EC
:100EB00099F800221A21042001F094F83AE06848D9
:100EC000006801280FD100221821042001F08AF8BF
:100ED00001221921042001F085F801221A210420A1
:100EE00001F080F826E05E48006802280FD1012258
:100EF0001821042001F076F800221921042001F0C5
:100F000071F801221A21042001F06CF812E0544813
:100F1000006803280ED100221821042001F062F895
:100F200001221921042001F05DF800221A21042079
:100F300001F058F8474800684749096801F58C41B5
:100F40005031884214D31521012001F090F8012876
:100F50000ED11621012001F08AF8002808D11721AE
:100F6000012001F084F8012802D15A4801210160D2
:100F700058480068012804D157480068401C564969
:100F8000086055480068B0F5966F02D130480121DD
:100F900001605248006850F001005049086062B694
:100FA00001BD00000C7103401C710340A09004407F
:100FB0002484FF1FF487FF1F9086FF1F4086FF1FBA
:100FC0005C85FF1FCC86FF1FD086FF1F0486FF1F96
:100FD0000886FF1F0C86FF1F1488FF1FD087FF1F86
:100FE0003486FF1F5486FF1F8886FF1F5886FF1F09
:100FF0002086FF1F4886FF1F6CF8FFFF4486FF1FF7
:101000001886FF1F1C86FF1F5C86FF1FF087FF1FCF
:101010007486FF1F8C86FF1F6085FF1F8486FF1F5D
:101020006086FF1F2C86FF1F6C86FF1F3086FF1F08
:101030007086FF1F8086FF1F7886FF1F7C86FF1F3C
:101040004C86FF1F5086FF1F6486FF1F6886FF1FA8
:10105000A886FF1F9486FF1F6485FF1F9886FF1FC9
:101060001486FF1F5085FF1F9C86FF1F6084FF1F93
:101070007484FF1F8884FF1F9C84FF1FB084FF1FA0
:10108000C484FF1F3886FF1FD884FF1F3C86FF1FC4
:10109000EC84FF1F6C85FF1F1485FF1F7085FF1FE9
:1010A0002885FF1F7485FF1F3C85FF1FC086FF1F1B
:1010B0000085FF1F5885FF1F2486FF1F2886FF1FFE
:1010C0005485FF1FA086FF1F4C84FF1FB086FF1FA3
:1010D0001086FF1FA486FF1FAC86FF1F3C710340D4
:1010E00080B500F0AEFC01BD10B50C0011680129FF
:1010F00002D0022904D009E0C0B25168884705E057
:10110000916808709068401C9060FFE72068401C60
:10111000206010BD30B41C00002300250570401C69
:10112000002A19D0096800290AD1302101705B1CFE
:10113000180030BC7047303511000570401C5B1C36
:101140000029F5D091FBF4F204FB1215002DF2D525
:10115000E94311F13105EFE70968002908D1302191
:1011600001705B1CE4E7373511000570401C5B1C07
:101170000029DDD0B1FBF4F204FB12150A2DF2D2E6
:101180003035F1E7F8B504000D0016001F0005E04A
:101190003A0031003020FFF7A7FF641CAC42F7DBB8
:1011A000F1BDF8B504000D0016001F0005E03A007F
:1011B00031002020FFF798FF641CAC42F7DBF1BD43
:1011C0002DE9F04F8DB005001600002000900C00B6
:1011D00005E02A0000A91800FFF786FF641C2378A9
:1011E000002B00F0CE81252B12D00A2B05D02A002F
:1011F00000A91800FFF778FF09E02A0000A90D20D8
:10120000FFF772FF2A0000A90A20FFF76DFFE5E74C
:101210000027002101E057F0010700291BD1641CC1
:10122000207820280BD023280FD02B2804D02D285D
:10123000F1D0302806D00BE057F00207EDE757F069
:101240000407EAE757F00807E7E757F01007E4E775
:10125000641E0121E1E75FF00008002104E00A209C
:1012600000FB0830B0F13008002908D1641C237855
:10127000180030380928F2D9641E0121F4E7641CF3
:1012800020782E280BD10021FFE7002908D1641C0B
:10129000207830380928F8D9641E0121F5E7641E4A
:1012A000641C20784C2806D0682802D06C2801D015
:1012B00002E002E001E000E0641E641C23781800F4
:1012C000582878D0622800F0DA80632800F0248162
:1012D000642813D0692811D06E2800F04D816F2842
:1012E00000F0C280702800F0D580732800F01B81C8
:1012F000752800F0DA8078285DD06AE730680390BE
:10130000361D0A23012203A904A8FFF703FF824622
:1013100004A81AEB00090398002804D52D20029098
:101320001AF1010A11E03800800704D52B20029041
:101330001AF1010A09E03800400704D52020029084
:101340001AF1010A01E0002002905FF0000B380062
:10135000000711D50298002804D02A0000A902989D
:10136000FFF7C2FE5FF0010B2B0000AA414650467A
:10137000FFF708FFC24612E03800C0070FD42B0069
:1013800000AA41465046FFF70CFF0298002804D0FF
:101390002A0000A90298FFF7A7FE5FF0010BBBF13E
:1013A000000F07D10298002804D02A0000A9029853
:1013B000FFF79AFEA3E030680190361D102300224B
:1013C00001A904A8FFF7A6FE824604A81AEB0009AB
:1013D0005FF0000B3800000716D53800C0060BD5AB
:1013E0002A0000A93020FFF77FFE2A0000A97820FC
:1013F000FFF77AFE5FF0010B2B0000AA4146504632
:10140000FFF7C0FEC2461CE03800C00719D4380000
:10141000C00601D51AF1020A2B0000AA4146504627
:10142000FFF7BFFE3800C0060BD52A0000A9302008
:10143000FFF75AFE2A0000A97820FFF755FE5FF05B
:10144000010B3800C0060ED5BBF1000F0BD12A00EE
:1014500000A93020FFF748FE2A0000A97820FFF7F6
:1014600043FE1AF1020A4AE030680190361D082353
:10147000002201A904A8FFF74DFE82461FE0306854
:101480000190361D0223002201A904A8FFF742FEA5
:10149000824614E030680190361D1023002201A915
:1014A00004A8FFF737FE824609E030680190361D38
:1014B0000A23002201A904A8FFF72CFE824604A8F3
:1014C0001AEB00093800000707D52B0000AA414697
:1014D0005046FFF757FEC24611E03800C0070ED451
:1014E0002B0000AA41465046FFF75BFE07E02A00AA
:1014F00000A999F80000FFF7F7FDB9F1010999F883
:1015000000000028F3D1F80705D52B0000AA4146BA
:101510005046FFF746FE61E63078361D2A0000A9E6
:10152000FFF7E2FD5AE6D6F80090361DB9F1000F3C
:1015300021D0484600F08CFF82463800C0070ED408
:101540002B0000AA41465046FFF72BFE07E02A0079
:1015500000A999F80000FFF7C7FD19F1010999F8F2
:1015600000000028F3D1F80705D52B0000AA41465A
:101570005046FFF716FE31E63068361D00990160CF
:101580002CE600980DB0BDE8F08F0EB400B584B025
:10159000012100910449019105AA010000A8FFF76B
:1015A0000FFE04B05DF810FB7948000010B5040090
:1015B000DFF83405016010E000F015F8200000F0BD
:1015C00030F800F042F8200000F050F8DFF81C0579
:1015D0000088401CDFF814150880DFF80C0500684F
:1015E0000128E9D010BD80B50921012000F027FDB8
:1015F00001BD80B5DFF8F8040068002810D1DFF8DD
:10160000F00401210160DFF8EC0401210160DFF842
:10161000DC040021018001220821012000F0E2FC0D
:1016200001BD10B504000A21012000F020FD0128B1
:1016300005D1DFF8B80400885721015504E0DFF830
:10164000AC0400886F21015510BD80B5DFF89C0403
:101650000088012809D1DFF898040068012804D126
:1016600000220821012000F0BDFC01BD10B50400DE
:10167000DFF878040088FF2811D1DFF87404002116
:101680000160DFF8700400210160200000F017F80D
:10169000200000F047F8DFF850040021016010BD81
:1016A00010B504004CA1032000F0C8FFDFF8481477
:1016B000032000F0C3FF200000F06AF810BD0021F5
:1016C00005E089B20A18927989B20A54491C89B294
:1016D000DFF8282412689142F3DB582180F8F410D7
:1016E000582180F8F510582180F8F610582180F81C
:1016F000F710582180F8F810582180F8F910582177
:1017000080F8FA10582180F8FB10582180F8FC105E
:10171000582180F8FD10582180F8FE10582180F8DB
:10172000FF10704710B400230021DFF8D4230024F9
:101730001460DFF8D02300241460002205E092B288
:10174000145C572C00D1491C521C92B2DFF8AC43F8
:101750002468A24205DA92B2145C6F2CEFD15B1CB4
:10176000F2E79BB2DFF894030068834204D1DFF80C
:1017700090030121016009E089B2DFF8800300686D
:10178000814203D1DFF87C030121016010BC704766
:1017900038B50400002505E0ADB2295D0FA0FFF7C4
:1017A000F4FE6D1C4FF48070ADB28542F4D30AA0F4
:1017B000FFF7EBFE31BD38B50400002505E0ADB202
:1017C000295D06A0FFF7E1FE2D1DADB2FA2DF6D37F
:1017D00001A0FFF7DAFE31BD0A000000256300001A
:1017E00010B582B00400DFF8200300210160DFF8AB
:1017F0001C0300210160DFF81803F3210160DFF80A
:10180000140300210160DFF810030068009010E06D
:101810000098005D572809D1DFF8F40200990160B3
:10182000DFF8E40201210160012000900098401ED1
:10183000009000980128EBDADFF8DC0200680090E5
:101840000EE00098005D572807D1B248009901606A
:10185000AE4801210160F32000900098401C0090E8
:101860000098A64909688842EBDBA7480068012870
:101870004DD1A6480068012849D1A5480068A5496E
:1018800009680818022190FBF1F0A4490860A348F8
:1018900000689F490968401AA14908609F4800688C
:1018A0009C49096808189F4908609F480021016009
:1018B0009E480068012874D1984800685038512823
:1018C00003D39B480121016006E09A480121016091
:1018D00099489A490968016095480068012804D12F
:1018E00097480068401E97490860924800680128A0
:1018F00057D19248006890490968401A4FF4FA712C
:1019000088424ED38F488E490968016049E07E487D
:101910000068012822D17D48006800281ED17C483B
:1019200000688049096808187C4908607E480021E1
:1019300001607748006871490968491E884203D1EF
:10194000764881490968016078480068012828D1F3
:101950007B480068401E7B49086022E06A480068B6
:1019600000281ED16948006801281AD1694800681A
:101970006B490968401A694908606B480021016099
:1019800064480068002803D164486F490968016011
:1019900066480068012804D169480068401E69490A
:1019A00008605748006801280BD15C4866490968FF
:1019B00001605E480068012803D1624860490968F7
:1019C00001605048006801280CD154485E490968FC
:1019D000016056480068012804D159480068401E3B
:1019E000584908604D48006857490968401A5749E6
:1019F00008605648006800F04FFE5549096800F03D
:101A00005BFE00F0C5FE00F0EBFE0022514B00F043
:101A100037FF01F007F85049086050483F4909680E
:101A200001603D483D4909680160200000F001F86F
:101A300013BD3848006836490968401A48490860AB
:101A4000704780B5354801684648FFF79EFD464817
:101A5000FFF79BFD4548FFF723FE4548FFF795FD3F
:101A600029480068012807D128480068012803D1C7
:101A70004048FFF78AFD21E023480068012807D18C
:101A800022480068002803D13B48FFF77EFD15E09F
:101A90001D480068002807D11C480068012803D1B0
:101AA0003648FFF772FD09E01748006817490968D2
:101AB0000843002802D13248FFF767FD3148FFF79D
:101AC00064FD144801683048FFF75FFD1048016865
:101AD0002E48FFF75AFD2E48FFF757FD1B480168B7
:101AE0002C48FFF752FD01BDCC86FF1F1088FF1F59
:101AF000C486FF1FC886FF1F184800006885FF1FA7
:101B0000E887FF1FEC87FF1FD887FF1FDC87FF1FB9
:101B10008485FF1FE087FF1F7C85FF1F7885FF1FDF
:101B20006C85FF1F7085FF1F8C86FF1F1086FF1FAF
:101B3000B886FF1FBC86FF1FB486FF1F9486FF1F59
:101B40005085FF1F1486FF1F7485FF1FD087FF1F5E
:101B5000C086FF1F00408F40D487FF1F8085FF1F76
:101B6000E487FF1F6445000028480000D086FF1F5F
:101B7000B4470000C444000084450000A4450000B0
:101B8000C84700001C4400004446000060460000B6
:101B90007C4600009846000038B505000C00EDB208
:101BA000002D04D1B4F10800C0B20B280BD3EDB264
:101BB000012D03D1201FC0B20E2804D32221DFF84B
:101BC000040300F045FFEDB2002D02D0012D79D0C5
:101BD000E6E0DFF8F402006850F00060DFF8E81299
:101BE0000860DFF8E802006830F09000DFF8DC12EF
:101BF0000860DFF8D80200210160E4B22000083854
:101C000001280CD9801E01281BD9801E012829D942
:101C1000801E012836D9C01E012843D951E0DFF8C3
:101C2000B002006850F48060DFF8A4120860E4B2EB
:101C3000A00000F1804010F59420002140F8201C05
:101C4000AEE0A34800684FF400710843A049086063
:101C5000E4B2A00000F1804010F59220002140F88D
:101C60000C1CEDE79A48006850F4806098490860C1
:101C7000E4B2A00000F1804010F59420002140F86B
:101C8000281CDDE79248006850F400609049086025
:101C9000E4B2A00000F1804010F59620002140F849
:101CA000381CCDE78A48006850F400508849086025
:101CB000E4B2A00000F1804010F59A200021C1613B
:101CC000BEE76DE08348006850F00060814908601D
:101CD0007E48006830F410407C4908607B48002151
:101CE0000160E4B22000001F03280BD9001F012867
:101CF00018D9801E032825D9001F012832D9C01EFB
:101D000040D04CE07248006850F4005070490860C0
:101D1000E4B2A00000F1804010F59A20002140F8C4
:101D2000101C3CE06A48006850F480606849086014
:101D3000E4B2A00000F1804010F59420002140F8AA
:101D4000201C2CE06248006850F480606049086004
:101D5000E4B2A00000F1804010F59420002140F88A
:101D6000181C1CE05A48006850F48060584908600C
:101D7000E4B2A00000F1804010F59420002140F86A
:101D8000181C0CE0524800684FF400710843504999
:101D90000860E4B25048002140F82410FFE7FFE754
:101DA00031BD70B504000D0016000020E4B2002C17
:101DB00004D1B5F10800C0B20B280AD3E4B2012C5B
:101DC00003D1281FC0B20E2803D387213D4800F05D
:101DD0003FFE3200D2B22900C9B22000C0B200F0EA
:101DE00050F8E4B23D4850F8240000680006F8D5E9
:101DF000E4B23A4850F824000069E4B2374951F897
:101E00002410096831F08001E4B2344A52F82420E9
:101E1000116080B270BD2DE9F84304000D0016007A
:101E20001F005FF00008E4B2002C04D1B5F10800F7
:101E3000C0B20B280AD3E4B2012C03D1281FC0B2D0
:101E40000E2803D3BE211F4800F002FE5FF00009F8
:101E50000BE03200D2B22900C9B22000C0B2FFF7B5
:101E6000A0FF18FA80F819F101095FFA89F9FFB2A9
:101E7000B945EED3FFB2B8FBF7F8404680B2BDE8F3
:101E8000F28380B511F01F0151F04001144B19721B
:101E9000910011F00C0151F05001114A11701049DC
:101EA00014224A700E4941F234224A800C4945F20C
:101EB00078628A800A49C0B2084A52F8200000F0CD
:101EC00011F801BD0C4200003C8004401880044021
:101ED0003880044030800440009004401C84FF1F80
:101EE000F485FF1F0A7882604A78C2604A8882615E
:101EF0008A88C2618A790262CA794262CA680265C6
:101F00000A7A0260497A4160704750F8041B61B157
:101F100050F8042BD30744BFA9F101039A180023FA
:101F200042F8043B091FFAD1EFE77047F8B5040007
:101F30000D0016001F00EDB2202D02D2FFB2022FBD
:101F400003D32421534800F083FDEDB2E4B252489C
:101F500050F82400F6B24FF48071314340F8251058
:101F6000F00705D5F6B2032E02D0F6B2132E0DD12E
:101F7000E4B24A4850F8240040690121A94088434E
:101F8000E4B2464951F8241048612AE0E4B24348DB
:101F900050F8240040690121A9400843E4B23F49B8
:101FA00051F824104861FFB2012F0DD1E4B23B4833
:101FB00050F8240000680121A9400843E4B23749E1
:101FC00051F8241008600CE0E4B2344850F82400C2
:101FD00000680121A9408843E4B2304951F8241037
:101FE0000860F1BD70B504000D001600EDB2202DA3
:101FF00002D2F6B2022E03D34B21264800F028FD70
:10200000F6B2012E0DD1E4B2244850F82400006845
:102010000121A9400843E4B2204951F82410086086
:102020000CE0E4B21D4850F8240000680121A940EA
:102030008843E4B2194951F82410086070BD38B5DE
:1020400004000D00EDB2202D03D36021114800F0F3
:10205000FFFCE4B2114850F8240000680121A940B7
:102060004840E4B20D4951F82410086031BD38B53C
:1020700004000D00EDB2202D03D37121054800F0BE
:10208000E7FCE4B2054850F824000069E84010F08D
:10209000010032BD384100003884FF1F2484FF1F37
:1020A0002DE9F04104000D0016001F00DFF8580371
:1020B00000684FF47A7148435FEA5008E4B2002C9C
:1020C0000DD0E4B2012C02D0E4B2012C02D1EDB269
:1020D000022D04D33821DFF8340300F0B9FC5FEAA5
:1020E0005800B04204D23921DFF8200300F0B0FCE0
:1020F0005FEA1840B0FBF6F1002000E0401C89B216
:1021000051FA00F2012AF9DA38FA00F1B1FBF6F1DE
:1021100089B24A1C02FB07F242F21073B2FBF3F2DF
:10212000E4B2002C05D0022C00F0B880C0F0898009
:10213000E1E0DFF8DC321B6853F08073DFF8D06237
:102140003360EDB2002D0BD0022D25D016D3042D17
:102150003ED02FD3062D57D048D3072D62D06FE045
:10216000DFF8B0321B6853F40063DFF8A862336015
:10217000DFF8A4324FF480661E60BCE0DFF89432D2
:102180001B6853F40063DFF88C623360DFF88C3235
:102190004FF480661E60F0E7DFF878321B6853F476
:1021A0000063DFF870623360DFF874324FF48066EA
:1021B0001E60E2E7DFF85C321B6853F40063DFF86F
:1021C00054623360DFF85C324FF480661E60D4E7FF
:1021D000DFF840321B6853F48053DFF83862336015
:1021E000DFF844324FF480661E60C6E7DFF8243221
:1021F0001B6853F48053DFF81C623360DFF82C3225
:102200004FF480661E60B8E7DFF808321B6853F4AD
:102210008053DFF800623360DFF814324FF48066D9
:102220001E60AAE7DFF8EC311B6853F48053DFF837
:10223000E4613360DFF8FC314FF480661E609CE798
:10224000A8E0DFF8CC311B6853F00073DFF8C06101
:102250003360EDB2002D02D0012D0FD01DE0DFF86C
:10226000B4311B684FF400763343DFF8A861336064
:10227000DFF8C4314FF440761E603CE0DFF8943163
:102280001B684FF400763343DFF888613360DFF872
:10229000AC314FF440761E60EFE77BE0DFF8A03111
:1022A0001B6853F08073DFF898613360EDB2002D46
:1022B00002D0012D0FD01DE0DFF858311B684FF41C
:1022C00000763343DFF84C613360DFF878314FF448
:1022D00040761E600FE0DFF83C311B684FF400765B
:1022E0003343DFF830613360DFF85C314FF4407620
:1022F0001E60EFE74EE0EDB2E4B2DFF8503153F884
:10230000243013EBC503EDB2E4B2DFF8406156F8B8
:10231000246016EBC506F66836F00406DE60EDB202
:10232000E4B2DFF8283153F8243013EBC503282634
:10233000DE60E4B2DFF8143153F82430C0B210F09C
:10234000070050F028001860E4B2DFF8000150F8F0
:1023500024000023C364E4B2DFF8F00050F8240046
:1023600089B28160E4B2DFF8E40050F82400002173
:10237000C164EDB2E4B2DFF8D40050F8240010EBF1
:10238000C50092B20261E4B2DFF8C00050F8240048
:1023900000214160BDE8F08170B504000D00160019
:1023A000E4B2002C0ED0E4B2012C02D0E4B2012C35
:1023B00002D1EDB2022D05D340F27911DFF84C00C5
:1023C00000F046FB42F21170864205D34FF4BD7116
:1023D000DFF8380000F03CFBE4B2DFF8700050F8A2
:1023E00024008068401C00FB06F042F21071B0FB34
:1023F000F1F0EDB2E4B2DFF8541051F8241011EB13
:10240000C501086170BD00000C88FF1FC8410000B5
:102410003C8004403880044004B0044008B00440CC
:102420000CB0044010B0044010C0044014C004407C
:1024300018C004401CC00440209004402490044074
:1024400030800440289004402C9004401084FF1FEA
:102450000021002802D1002006E0491C0200501C87
:102460001278002AF9D108007047000038B504003E
:102470000D00E4B2002C08D0022C24D014D3042C7C
:102480003FD02FD3052C4BD059E03321724800F0B8
:10249000DFFA3E21704800F0DBFA7048006850F423
:1024A00080606E4908604AE06D484FF440710160F9
:1024B0006C484FF4407101606848006850F4006057
:1024C000664908603BE068484FF440710160674826
:1024D0004FF4407101606148006850F480505F49DA
:1024E00008602CE062484FF44071016061484FF48D
:1024F000407101605948006850F400505749086025
:102500001DE05D484FF4407101605C484FF440713C
:1025100001605B48006850F48060594908600EE033
:1025200058484FF44071016057484FF440710160C2
:102530005348006850F4006051490860FFE7E4B276
:10254000524850F82400C07810F0F300E4B24F492C
:1025500051F82410C870E4B24C4850F8240000210F
:102560008170E4B2002C08D00020E4B2012C04D029
:1025700050F00000C0B2002805D0454800684FF474
:102580007A71484304E0434800684FF47A71484345
:102590002901B0FBF1F1E4B23C4A52F82420127850
:1025A00012F0E00289B20B0A13F01F031A43E4B2DF
:1025B000364B53F824301A70E4B2344A52F82420CF
:1025C000517040012A01B0FBF2F089B2B0EB41102A
:1025D000E4B22E4951F82410897A11F0E002E4B2F5
:1025E0002A4951F8241010F01F0010438872E4B2F9
:1025F000264850F82400C07850F00C00E4B223497B
:1026000051F82410C87031BDC0B2204951F82010D3
:1026100009798906F8D5C0B21C4951F82000C07963
:102620007047C0B2194A52F8202012791206F8D524
:10263000C0B2164A52F82000C171704738B5040084
:102640000D0005E029782000C0B2FFF7EAFF6D1CFD
:1026500028780028F6D131BD804100003480044044
:102660000CB0044010B004400CC0044008C004404A
:1026700014D0044010D0044064D0044060D0044022
:102680002880044024D0044020D004409085FF1FBF
:102690000488FF1F0C88FF1F002800BF0AD0B0FA73
:1026A00080F18840D1F19D01C905020672F1004216
:1026B00041EB102070470000FF2212EAD05C1DBFE2
:1026C00012EAD153944593422BE09C44D30780EA0D
:1026D00001021A4043EA002043EA0121A1FB003035
:1026E000410038BF40007CF17F010BDBFE294ADA54
:1026F0005B0842EAC15153EA006373F1004C51EBAD
:1027000010207047D1F1080CDCF120012FDB5B08B1
:1027100010FA01F10B4373F1004120FA0CF0504123
:10272000704794451CBF02EAD153934280EA0102EC
:1027300002F000421DD0400019D0490017D05BB90B
:10274000634514D00902B1FA81F39940BCEB030C44
:10275000C00140F00040C1E70002B0FA80FC10FA6E
:102760000CF0B3EB0C0CC90141F00041B6E71000CE
:10277000704740000AD0490008D010F1807F94BF14
:1027800011F1807F02E042F0FF407047D043704774
:102790005FF0FF0C1CEAD05114BF614506E0C11088
:1027A000400721F0E04101F16051704779B900F034
:1027B000004100020AD0B0FA80FC00FA0CF001F1EE
:1027C0006051A1EB0C5101EBD02140057047410253
:1027D0000CBF40F4E0016FF00001002070470000E2
:1027E00013B5DDE90001C1F30A5240F2FF74A242C1
:1027F00008D0002A04BF090350EA11300ED1DDE9E8
:1028000000011CBD090350EA1130F8D101980028DD
:10281000174801D517491CBD17491CBDDDE900014A
:102820000022002300F01AF907D2DDE9000181F04F
:102830000041CDE90001082400E00024DDE90001A9
:1028400001220E4B00F022F909D800201946DDE9DB
:10285000002300F033F9CDE9000184F002042246A0
:10286000DDE9000102B0BDE8104000F04DBA00BF44
:10287000182D4454FB21F9BFFB21F93F0000F03F24
:10288000B0B581EA030C0CF0004C40F2FF7515EA7C
:1028900011541DBF15EA1357AC42AF4239E0E41999
:1028A00023EA455343F48013C90241F0004141EA51
:1028B000505EC7021100A7FB020200284FF0000083
:1028C000EEFB01204FF00001E3FB072118BF42F0AF
:1028D0000102401800214941E3FB0E01A4F5806488
:1028E0000F0302D252004041494154F101046CDD12
:1028F000470872F1004250F1000051EB0451A1F57C
:1029000080115CBF41EA0C01B0BD4CEA05510020CA
:10291000B0BD05EA1357AC4214BFAF4241E050EAE4
:10292000410E1CBF52EA430E02E061460020B0BDDA
:1029300024423C441BD15FEA070EF6D0090302BFD4
:1029400001460020AEF1140EB1FA81F7AEEB070498
:1029500001FA07FE0C37C7F1200100FA07F7C8405B
:102960004EEA000E23EA455343F48013A2E733F006
:102970000043B3FA83F704BFB2FA82FE77440B3FF9
:10298000E41BB7F1200E2FBF02FA0EF3BB40C7F1D4
:10299000200E22FA0EFE38BF43EA0E03BA40641C32
:1029A00082E750EA410E14BF52EA430E6FF0000175
:1029B0004FF4001717EB430F8ABF194617EB410F6F
:1029C000B5E74CEA05510020B0BDD4F10104B4F1E3
:1029D00020070FDAC4F12007520828BF42F0010295
:1029E00010FA07F501FA07F7E1BF2A43E040384340
:1029F000E1400FE0352C98DCC7F1200452EA400298
:102A000020FA07F218BF42F0010231FA07F0A140A4
:102A10000A43002172F1004250F1000051EB0C0119
:102A2000B0BD0000400D40EAC120490080F00D809B
:102A300040F00040490DA1F58061491C05D4D1F159
:102A40001F0154BFC840C01770474FF000007047C7
:102A500080B500F055FA00F07DFAFCE74FF4001C59
:102A60001CEB410F94BF1CEB430F09E041EA030C40
:102A700050EA4C0C52EA0C0C03D2994208BF904227
:102A8000704714BF8B428242704700004FF4001C15
:102A90001CEB410F94BF1CEB430F09E041EA030C10
:102AA00050EA4C0C52EA0C0C03D28B4208BF824213
:102AB000704714BF9942904270470000F0B540F251
:102AC000FF7581EA030C0CF0004C15EA11541DBF90
:102AD00015EA1357AC42AF42E5E0BC41C1F3130124
:102AE000C3F31303801A994143F4801304D2641E84
:102AF0004000494180185941C90241EA5051B1FB97
:102B0000F3F603FB1611A2FB0675D7EBC020A94113
:102B100002D2761E80185941C90241EA5051B1FBD8
:102B2000F3FE03FB1E11A2FB0E75D7EBC020A941DB
:102B300003D2AEF1010E80185941890241EA905149
:102B4000760546EA8E2EB1FBF3F603FB1611A2FBC7
:102B50000675D7EB8020A94102D2761E8018594114
:102B6000C90241EA50514EEA060EB1FBF3F603FBEF
:102B70001611A2FB0675D7EBC020A94102D2761E22
:102B800080185941C90241EA5051B1FBF3F703FBE8
:102B90001711A2FB0735D3EBC020A94167F100074D
:102BA0000CBF004247F0010766F3D5274FEA1E31FC
:102BB000B80814F5806412DDBD0775F1004250EBD2
:102BC0000E5051EB045111F5801F5CBF41EA0C011E
:102BD000F0BD4CF07F6141F0E0410020F0BDBD0749
:102BE0006D0840EA0E5041F48011D4F10104B4F1B3
:102BF00020060ADAC4F120060200E04001FA06F3DA
:102C0000E1401843B24015430EE0342C13DCC6F10A
:102C1000200445EA40056D0820FA06F2154321FA22
:102C200006F0A1400D43002175F1004250F1000073
:102C300051EB0C01F0BD00205FEA0C01F0BDCFB9F3
:102C400092185B41B3FA83F704BFB2FA82F6BF1958
:102C50000B3FB7F120062FBF02FA06F3BB40C7F1C6
:102C6000200622FA06F638BF3343BA401CB1E419F5
:102C7000641E33E77F4231F00041B1FA81F404BFB2
:102C8000B0FA80F6A4190B3CB4F120062FBF00FA6D
:102C900006F1A140C4F1200620FA06F638BF314300
:102CA000A0403C1B1AE7AC421ABF05EA1357AF42DB
:102CB00012E050EA41061CBF52EA4306BFE750EA61
:102CC0004107304661461CBF41EA0551F0BD52EA5A
:102CD000430C08BFC143F0BD00204FF4001616EBB3
:102CE000410F98BF16EB430F08BF16EB410F24BFEF
:102CF000C14305E016EB430F0CBF61464CEA05519A
:102D0000F0BD0000000000002DE9FC4D04460D461A
:102D10001646554A554BFFF7B9FE1CD8544FDFF8FD
:102D200054813A464346FFF7ABFD0022524B00F078
:102D300041F982468B4622462B463846414600F0F2
:102D400039F902460B4650465946FFF7B7FE04468E
:102D50000D4646F00106204629460022474BFFF764
:102D60007DFE05D301224FF07953FFF78FFE5DD82A
:102D700022462B46FFF784FD82468B4652465B4631
:102D800020462946FFF77CFD074688463C483D49DA
:102D900052465B46FFF774FD3B4A3C4B00F00AF994
:102DA00052465B46FFF76CFD394A3A4B00F002F998
:102DB0003A464346FFF764FD02460B462046294645
:102DC00000F0F8F804460D463348344952465B4655
:102DD000FFF756FD02460B463148324900F0EAF84B
:102DE00052465B46FFF74CFD02460B462E482F49E4
:102DF00000F0E0F852465B46FFF742FD02460B4604
:102E00002B482C4900F0D6F802460B46504659464E
:102E1000FFF736FD0022284B00F0CCF802460B46A7
:102E200020462946FFF74AFE04460D46B00748BF34
:102E300085F0004516F007020BD0204629460FF218
:102E4000800303EBC204D4E9002300F0B3F8044686
:102E50000D46300748BF85F00045CDE90045DDE966
:102E60000001BDE8FC8D000057CD9E5E1426D13FC9
:102E7000AA4C58E87AB6FB3F0000F0BF000040BE05
:102E8000845D57134B57B03FB2934C19ED5EE43F4E
:102E9000BEDE02B90240F83FDE39028FC7C0743F80
:102EA0008AAB1283000CC83F24D7E508B6D8F03FA0
:102EB0000F34580E5895FD3F0000F03F0000000011
:102EC000000000000000000066732D3852C1E03F92
:102ED000182D4454FB21F93F66732D3852C1F03F41
:102EE000182D4454FB21F93F66732D3852C1004020
:102EF000182D4454FB2109403FD038C6A6F10440A8
:102F000080B50123012218210420FFF70FF80123C7
:102F1000012219210420FFF709F8012301221A21B7
:102F20000420FFF703F8012301221B210420FEF7F0
:102F3000FDFF01BD1E4A12691268012383409A43B6
:102F4000C9B211F0010111FA00F0104318490969E2
:102F50000860704710B50123012218210420FEF7F4
:102F6000E5FF0123012219210420FEF7DFFF0123E1
:102F700001221A210420FEF7D9FF012301221B217F
:102F80000420FEF7D3FF18240DE000212000C0B27A
:102F9000FFF7D0FF642000F081F801212000C0B2CB
:102FA000FFF7C8FF641CE4B21C2CEED310BD000078
:102FB0002484FF1F70B44FF0004591EA030C44BF16
:102FC0006B4000F07BB800BF841A71EB030603D29C
:102FD000001BB141121973414FF4001C1CEB410F4F
:102FE00034BF7CEB430443E00C0DA4EB1356352EA9
:102FF00050DC45EAC323DB0A45EAC121C912B6F118
:1030000020050DDD63FA05F6EB4086EA0305124262
:1030100018BF45F00105C01851F100010CD213E0B2
:1030200062FA06F5F2405540F3415A40B340F3408E
:103030005A408018594107D349085FEA30005FEAD7
:10304000350528BF45F0010501F58011420875F1ED
:10305000004250F1000041EB045170BC4FF4001CE1
:103060001CEB410F38BF70470020090D0905704760
:103070001CEB410F10D252EA43060BD0BCEB410FC0
:1030800005D80C0DAB43661E342EB5DD02E0AB4314
:103090008018594170BC704770BC7047002104E033
:1030A00000BF521E002AFBD1491C814202D2024AB3
:1030B0001268F7E7704700000C88FF1F841A71EB55
:1030C000030604D26E40001BB141121973414FF444
:1030D000001C1CEB410F34BF7CEB430684E00C0D5D
:1030E000A4EB1356362E7DDC012E43DC45EAC323C8
:1030F00043EA525312BFD20292025B08240545EA0A
:10310000C12141EA5051D2EBC020994125D407D1C9
:10311000B0FA80F610FA06F164D00020203608E0FC
:10312000B1FA81F6B140C6F1200220FA02F2114351
:10313000B0404FEAF474B4EB465434F001064FEA61
:1031400074040AD8D6F50016760D04F00044F04059
:1031500061FA06F25040F1404840C00A40EA41504E
:1031600021F0004128BF5FEA500550F1000044EB18
:10317000D12137E045EAC323DB0A45EAC121C90A68
:10318000B6F120050EDD42EA0242120CC5F120061E
:1031900003FA06F6EB4042EA06056D42984161F1FA
:1031A00000010DE062FA06F5F240554063FA06FCB4
:1031B00082EA0C02F3405A406D42904161EB0301F8
:1031C00011F4801F05D1641E620502D06D004041DC
:1031D000494121F48011430875F1004350F100008A
:1031E00041EB045170BC70471CEB410F15D223F02A
:1031F000004352EA43060BD04FEA4C0CBCEB410FA4
:1032000004D80C0D661E342EB7DDEBE7801A994109
:1032100050EA410608BF0021E4E708BF1CEB430F5A
:1032200028BF6FF00001DDE780B55FF4E1310320D6
:10323000FFF71CF90023002206210420FEF776FE8A
:10324000CE48FEF7A2F904E0CD480178CD48FEF75C
:103250009CF9CD48FEF799F9CC48FEF796F9CC4891
:10326000FEF793F9CB48FEF790F9CB48FEF78DF9BE
:10327000CA48FEF78AF9CA48FEF787F9C948FEF737
:1032800084F94FF49670FFF709FF06210420FEF73A
:10329000EEFE00284FD105210120FEF77DFC07211D
:1032A0000120FEF779FCC048FEF76FF900230122E8
:1032B00018210420FEF73AFE0023012219210420E0
:1032C000FEF734FE002301221A210420FEF72EFE11
:1032D000002301221B210420FEF728FE40F6B8300F
:1032E000FFF7DCFE1023012205210120FEF793FDEC
:1032F000AE4908601023012207210120FEF78BFD53
:10330000AB490860A948006800F0F4F9A8480068D3
:1033100000F00CFA18210420FEF791FE1921042078
:10332000FEF78DFE1A210420FEF789FE1B210420E2
:10333000FEF785FEFEE7924837210170904800783D
:1033400030280ED031281FD032284CD0332854D00A
:10335000342879D0362800F09480372800F0CD80CA
:1033600072E70E210020FEF717FC4FF4FA70FFF70A
:1033700095FE03220E210020FEF713FD010089B205
:103380007DA0FEF702F9F0E78A490320FFF756F91E
:1033900006210120FEF700FC07210120FEF7FCFBBF
:1033A0000E210020FEF7F8FB04210120FEF7F4FBBC
:1033B0000A2301220E210020FEF72DFD7E49086020
:1033C0007E48FEF7E2F80823012206210120FEF7DD
:1033D00022FD80B2B0F56B7167A0FEF7D6F83220FF
:1033E000FFF75CFEEFE776490320FFF727F900F0CF
:1033F00005F97248FEF7C9F8FEE772490320FFF7A6
:103400001DF900F0C5F97048FEF7BFF86F48FEF7E8
:10341000BCF840F6354000F06DF96D48FEF7B5F8A0
:1034200040F2FB3000F082F96A48FEF7AEF800F097
:1034300071F901006848FEF7A8F800F087F901006B
:103440006648FEF7A2F8FEE765490320FFF7F6F8A5
:1034500072B689220621002000F066FA892207212F
:10346000002000F061FA5F4800684FF4FA7101FB38
:1034700000F1012000F08CFA62B65048FEF785F8A2
:10348000FEE759490320FFF7D9F800F0FFF84B4851
:10349000FEF77BF84FF47A70FFF700FE09E0012297
:1034A00009210320FEF79EFD012207210320FEF7DC
:1034B00099FD4FF4FA6200210120FEF76DFF4FF4F1
:1034C000FA6201210120FEF767FF4848FEF75DF828
:1034D0000320FFF799F830384549088044480088B0
:1034E0000028DCD1002209210320FEF77BFD002209
:1034F00001210320FEF776FDDBE73E48FEF745F8A5
:1035000006210120FEF748FB07210120FEF744FBBE
:103510000E210020FEF740FB05210120FEF73CFBB9
:1035200000F0F8F82149086000F010F9204908601F
:1035300000F0ACF8002209210320FEF753FD002221
:1035400007210320FEF74EFD40F6B832002101208E
:10355000FEF722FF40F6B83201210120FEF71CFFE2
:1035600000F04CF81F480168032000F011FA2248CF
:10357000FEF70BF8FEE700000A2564009442000005
:103580001588FF1F50420000D44200008443000011
:10359000384700003848000048480000DC47000079
:1035A00050470000F047000090400000FC87FF1FDC
:1035B000F887FF1FB84300000088FF1FE8440000A1
:1035C000C4450000E4450000684700000C450000C9
:1035D00030450000B446000058480000684800002C
:1035E000044600000C88FF1F74440000D046000011
:1035F0001288FF1F9C440000EC46000080B572B6A4
:1036000000F006F80A21002000F0C2F962B601BD00
:1036100080B50123012208210120FEF787FC012348
:10362000012209210120FEF781FC012300220A2149
:103630000120FEF77BFC0023002208210420FEF776
:1036400075FC0023002209210420FEF76FFCFFF720
:1036500057FC00F006F800221A210420FEF7C2FCF5
:1036600001BD80B50123012215210120FEF75EFC7A
:103670000123012216210120FEF758FC012300221C
:1036800017210120FEF752FC01BD000080B5002388
:1036900042F2107200210120FEF702FD002342F2E7
:1036A000107201210120FEF7FBFC002301220921F9
:1036B0000320FEF73BFC0023012207210320FEF735
:1036C00035FC0123032204210220FEF72FFC0123F5
:1036D000032205210220FEF729FC72B68922062169
:1036E000002000F021F989220721002000F01CF9B8
:1036F00062B601BD1CB50400642000F057F800A9B3
:10370000200000F02FF800AB06220021642000F01A
:10371000A2F813BD00B583B000AB062200216420DF
:1037200000F083F800A800F025F80EBD1CB50400D9
:10373000652000F03BF800A9200000F013F800AB72
:1037400006220021652000F086F813BD00B583B085
:1037500000AB06220021652000F067F800A800F009
:1037600009F80EBD020E0A70020C4A70020A8A7035
:10377000C87070470021027811EB0261427811EBAA
:103780000241827811EB0221C078091808007047C5
:103790005B48006850F40020594908605948007897
:1037A0000006FBD5574830210170704780B580B2C4
:1037B0004FF40061484300905348092101709DF87F
:1037C0000200524908709DF80100514908705148A3
:1037D0009DF80010017000F080F8012801D101204F
:1037E00022E00098B0F5006F1DD84748062101700F
:1037F00046480021017046480421017045480C21CB
:1038000001704548FF2101704448FF210170444880
:10381000FF2101704348FE21017000F05EF801288D
:1038200001D1022000E0002002BD30B4002480B2AB
:103830004FF40065684310FA81F0040003E020783B
:103840001870641C5B1C1000421E80B20028F6D168
:10385000012030BC704770B582B014001D0089B2E1
:10386000042291FBF2F303FB1213002B01D0012081
:1038700032E0254A0623137080B24FF400625043B1
:1038800010FA81F00090002604E0361D0098001D1B
:1038900000902D1DA4B2A6421DD29DF802001B4926
:1038A00008709DF801001A4908701A489DF8001028
:1038B0000170E87818490870A87818490870687885
:1038C0001749087017482978017000F006F8012898
:1038D000DBD1022000E0002076BD0A4830210170D3
:1038E000084880210170074800780006FBD505488C
:1038F00000783121084201D0012000E0002070470B
:1039000004F00140000002400700024006000240AF
:1039100005000240040002400B0002400A00024081
:10392000090002400800024010B5164B1B684FF416
:10393000007484402343134C2360C9B2C0B2124BBD
:1039400053F82030D2B2140414F47024D2B2D20945
:10395000D2B2224352F4817243F82120C0B20B4A02
:1039600052F820205269012313FA01F132EA0101D1
:10397000C0B2064A52F820205161C0B2573000F060
:103980003EF810BD388004403884FF1F2484FF1F98
:1039900080B5164A126852F40002144B1A60144A99
:1039A000126892089200124B1A60C0B20201114BC9
:1039B000D150C0B20F4911EB0011C96851F001019B
:1039C000C0B20C4A12EB0012D160C0B2094911EB2F
:1039D0000011896851F00301C0B2064A12EB0012CF
:1039E0009160C0B2443000F00AF801BD3C80044050
:1039F000007003400071034025490860704710B50E
:103A000004005C2C02DB2348FDF7BFFD202094FB63
:103A1000F0F0002803D0022827D013D337E001208C
:103A2000202194FBF1F202FB114290401A490860F8
:103A30000120202194FBF1F202FB11429040174932
:103A4000086024E00120202194FBF1F202FB1142E6
:103A50009040134908600120202194FBF1F202FB01
:103A6000114290400F49086011E00120202194FB91
:103A7000F1F202FB114290400B4908600120202125
:103A800094FBF1F202FB114290400849086010BD1E
:103A900008ED00E01443000080E200E000E100E0F7
:103AA00084E200E004E100E088E200E008E100E0F8
:103AB000DFF800F0A985FF1F10B5C0B2002800F0A4
:103AC0001481C0B2010030291ED032292CD06029C7
:103AD00031D0642936D06E293BD0782940D07D2959
:103AE00045D082294AD08C294FD0962954D0A0297C
:103AF00059D0AA295ED0B42963D0C82968D0E12959
:103B00006DD0FA2972D078E0A64918220A70A5492A
:103B100000224A70A34900228A70C0B2652870D280
:103B2000A0490022CA708CE09E4918220A709D4963
:103B300001224A70EEE79B4918220A70994918221F
:103B40004A70E7E7974918220A7096491A224A7084
:103B5000E0E7944918220A7092491F224A70D9E777
:103B6000904913220A708F4918224A70D2E78D4972
:103B700013220A708B491A224A70CBE78949132213
:103B80000A7088491C224A70C4E786490E220A70CE
:103B9000844912224A70BDE782490E220A70814987
:103BA00015224A70B6E77F490E220A707D49182215
:103BB0004A70AFE77B490E220A707A491B224A708D
:103BC000A8E778490E220A7076491E224A70A1E7BA
:103BD00074490C220A7073491C224A709AE7714991
:103BE0000B220A706F491E224A7093E76D490A2220
:103BF0000A706C491F224A708CE76420FFF75CFF53
:103C0000CEE0C0B2C92803D266490122CA7018E0CA
:103C10000100C9B240F22D1289B2914203D261492A
:103C20000222CA700DE00100C9B240F2911289B2BD
:103C3000914203D25B490322CA7002E059490F2224
:103C4000CA705849574AD2780A71C0B21F2803D2A5
:103C500054480021417148E0C0B23D2803D2514888
:103C60000121417141E0C0B25B2803D24D480221DD
:103C700041713AE0C0B2792803D24A480321417128
:103C800033E0C0B2972803D24648042141712CE0AA
:103C9000C0B2B52803D243480521417125E0C0B226
:103CA000D32803D23F48062141711EE0C0B2F1285B
:103CB00003D23C480721417117E00100C9B240F22C
:103CC0000F1289B2914203D23648082141710CE0AB
:103CD000C0B240F22D1180B2884203D2314809218E
:103CE000417102E02F480F2141712E484078183071
:103CF00080B2322148432B490978491C89B290FB94
:103D0000F1F42948002101702848006850F08050E3
:103D1000264908602648007850F080002449087041
:103D200024489821017024480078C006FBD422481A
:103D30000078C0F38100C0B20228F8D11948007899
:103D400010F01F001D4908701D4800210170154822
:103D50004379144802791348C17812488078FFF7F4
:103D6000A7FE1048407810F01F0050F040001449A2
:103D70000870114800788006FBD50F48007840068F
:103D8000FBD50C48007810F03F000A4908700A483B
:103D90000078C0F38100C0B20328F8D12000C0B27F
:103DA00010BD00BF8885FF1F0140064034800440DD
:103DB00008C0074000400640064006400440064058
:103DC00005400640008003400090034000800B4007
:103DD00000B0034000B00B4000F00F4040F00F4037
:103DE00080F00F40C0F00F4000F10F400090044001
:103DF00000A0044000B0044000C0044000D00440D3
:103E00002C0100005802000084030000B0040000F0
:103E1000DC0500000ACC2A00906F28008894290055
:103E200042702A00000000003060010028A4010058
:103E300078D101003ED3010000000000A40400007E
:103E4000B0040000B0040000B00400000000000056
:103E500030570500288804002888040028880400BA
:103E6000000000001027000008CF000008CF00006D
:103E700008CF000000000000A0D90800B0710B00BE
:103E800020A10700187900000000000000000000D9
:103E9000F47E000044480000F22B00000000000007
:103EA00052030000520300005203000052030000BE
:103EB000000000002554BA3D38BFE43B8F28123C77
:103EC0007901763C000000006E0000001F00000039
:103ED0001900000019000000000000006E00000042
:103EE0001F00000019000000190000000000000081
:103EF00079000000790000007900000079000000DE
:103F00007900000003000000F401000070170000B9
:103F1000030000000A000000E8030000F4000000B5
:103F2000190000001900000079000000790000006D
:103F30007900000079000000F30000000B1F000072
:103F40000009000000A0064000B0064000C0064086
:103F500000D0064000A00E4000B00E4080B51C48C6
:103F60001C4988420BD0002006E01949194A52F832
:103F7000202041F82020401CB0F5826FF5D3144872
:103F8000FFF73AFD1449154A1548801A03E01378E3
:103F90000B70521C491C0300581E002BF7D111490D
:103FA0001148401A02E000220A70491C0200501E0B
:103FB000002AF8D10D490E4A0E48801A03E0137802
:103FC0000B70521C491C0300581E002BF7D101BD79
:103FD0000080FF1F000000001084FF1FC43D000090
:103FE0005C3F0000F485FF1F1688FF1FA885FF1F98
:103FF000EC4000003841000080B51C48006850F4D7
:1040000078501A490860C820FFF756FD1849086023
:10401000174800684FF47A714843164908601548FC
:10402000006815490968C1F30361491CB0FBF1F050
:104030001249086000F003F800F00CF801BD1048C8
:10404000006850F480500E4908600E484FF4E0615B
:10405000016070470C48006850F001000A49086090
:104060000A484FF4A06101607047000038800440A6
:104070000888FF1F0488FF1F448004400C88FF1F2E
:104080000480044018900440408004400CB0044078
:10409000576520617265206E6F7720696E206779A1
:1040A000726F2063616C6962726174696F6E206DFA
:1040B0006F64652C20506C65617365206B6565705D
:1040C000206361722073746174696F6E6572792008
:1040D000616E6420776169742074696C6C206C690E
:1040E00067687420646965730000000070B4104C48
:1040F00024680F4D2D6855F47F050D4E3560090677
:1041000011F0706151EA0070110511F4700108435B
:10411000190411F47021084306490860002000E0EA
:10412000401CC0B29842FBD30148046070BC704789
:1041300000F0014044800440433A5C55736572735B
:104140005C4C6F7569734D6F5C446F63756D656E24
:1041500074735C4769744875625C555354536D6160
:1041600072746361725C7372635C647269766572A7
:10417000735C6770696F5C6770696F2E6300000025
:10418000433A5C55736572735C4C6F7569734D6F20
:104190005C446F63756D656E74735C4769744875D4
:1041A000625C555354536D6172746361725C7372D7
:1041B000635C647269766572735C756172745C7558
:1041C0006172742E63000000433A5C55736572732C
:1041D0005C4C6F7569734D6F5C446F63756D656E94
:1041E00074735C4769744875625C555354536D61D0
:1041F00072746361725C7372635C64726976657217
:10420000735C46544D5C46544D2E6300433A5C55F6
:10421000736572735C4C6F7569734D6F5C446F634B
:10422000756D656E74735C4769744875625C55534F
:1042300054536D6172746361725C7372635C647217
:1042400069766572735C6164635C6164632E6300AC
:104250000A0C596F7520656E74657265643A256342
:104260002C20506C6561736520656E7465722061E9
:10427000206E756D6265722066726F6D20312D370C
:1042800020746F2073656C6563742061206D6F64AA
:10429000650A0C000A57656C636F6D6520746F20AA
:1042A00074686520536D61727443617220323031DD
:1042B000332053656E736F72207465616D20646581
:1042C00076656C6F70656D656E7420737973746557
:1042D0006D0A00003D3D3D3D3D3D3D3D3D3D3D3D8B
:1042E0003D3D3D3D3D3D3D3D3D3D3D3D3D3D3D3DFE
:1042F0003D3D3D3D3D3D3D3D3D3D3D3D3D3D3D3DEE
:104300003D3D3D3D3D3D3D3D3D3D3D3D3D3D3D3DDD
:104310003D3D0A000A4552522120496E76616C6982
:1043200064204952512076616C7565207061737309
:10433000656420746F20656E61626C6520697271BE
:104340002066756E6374696F6E210A0080B500F097
:1043500009F80A4800884FF6FE71084007490880AE
:1043600001BD000072B606484CF22051018004489D
:104370004DF62811018062B670470000002005400C
:104380000E200540506C656173652073656C656334
:1043900074206D6F64653A0A2D2D2D2D2D2D2D2D38
:1043A0002D2D2D2D2D2D2D2D2D2D2D2D2D2D2D2D3D
:1043B0002D2D2D0A00000000546865206D6F646586
:1043C000206E6F7720697320313A20416363656CFA
:1043D00065726F6D6574657220616E6420477972D5
:1043E0006F73636F70652054657374000A2A2A2AFC
:1043F0002A64656661756C745F69737220656E749A
:1044000065726564206F6E20766563746F72202517
:10441000642A2A2A2A2A0D0A0A0000000A2A2A2ABD
:104420002A2A2A204C4546542026205249474854DF
:10443000206564676520706F736974696F6E202AE8
:104440002A2A2A2A2A00000010B5084979441C317A
:10445000074C7C441A34A14206D0081D0A68511842
:1044600088470146A142F8D110BD00BFE800000016
:10447000F4000000546865206D6F6465206E6F77EE
:1044800020697320363A204D6F746F7220436F6E2F
:1044900074726F6C20746573740000000A20546895
:1044A00065204D6F6465206973206E6F7720373A01
:1044B0002053797374656D4C6F6F702054657374FD
:1044C00000000000426F74682073696465206465B1
:1044D000746563746564203A2053545241494748D7
:1044E00054206C696E6500000A45766572797468BF
:1044F000696E6720496E697469616C697A656420C8
:10450000616C72696768740A0000000077726974F0
:10451000696E672074686520753332203A20333124
:10452000323520746F206D656D6F727920310A000D
:1045300077726974696E6720746865207533323AE2
:10454000203130313920746F206D656D6F727920A4
:10455000320A0000B7D9FFFF24020000F485FF1FD4
:10456000000000000A63757272656E745F6D6964A5
:104570005F6572726F725F706F732069733A202586
:10458000640000004C65667420736964652064658E
:10459000746563746564203A204F4E452D45444749
:1045A000450000005269676874207369646520647F
:1045B00065746563746564203A204F4E452D45440B
:1045C00047450000546865206D6F6465206E6F7705
:1045D00020697320323A204C696E65617220434332
:1045E00044000000546865206D6F6465206E6F772D
:1045F00020697320333A466C617368204D656D6F96
:1046000072790A00546865206D6F6465206E6F775B
:1046100020697320343A20656E636F64657220747C
:104620006573740080B5FEF76BFCFEF793FC0348DE
:104630000178C9B20248FCF7A8FF01BD04ED00E013
:10464000EC4300000A63757272656E745F317374B7
:104650005F72696768745F656467653A2025640006
:104660000A63757272656E745F3173745F6C656630
:10467000745F656467653A20256400000A2A2A2A67
:104680002A2A2A20444952204552524F52202A2A8F
:104690002A2A2A2A000000000A63757272656E7465
:1046A0005F6469725F6572726F722069733A202568
:1046B0006C6400004E6F772072656164696E6720DC
:1046C00066726F6D206D656D6F72790A0000000073
:1046D0000A0C20496E707574206469726563746990
:1046E0006F6E203A2030206F722031000A457665C7
:1046F00072797468696E6720696E69746564206197
:104700006C726967687400000A0C675F7533326504
:104710006E636F6465725F6C663A256C64000000BE
:104720000A0C675F753332656E636F6465725F7222
:10473000743A256C64000000313A416363656C652E
:10474000726F6D65746572266779726F0A0000007A
:10475000363A4D6F746F7220636F6E74726F6C2097
:10476000746573740A000000466C617368204D65BF
:104770006D6F727920696E6974206F6B0A0000009A
:104780000120C046002801D0FFF75EFE0020FEF7A2
:104790004BFD00F000F800F001B800000746384675
:1047A00000F002F8FBE7000001491820ABBEFBE770
:1047B000260002000A0A2A2A2A2A2A2A202A2A2A23
:1047C0002A2A2A0A000000004E4F2045444745206F
:1047D000646574656374656400000000343A456E76
:1047E000636F6465722074657374696E670A000094
:1047F000373A53797374656D4C6F6F7020546573DD
:10480000740A000080B5FFF7A1FDFFF7A7FBFFF7D3
:10481000F3FBFEF709FDFEE74343442053616D704F
:104820006C653A20000000000A2A2A2A2A2A2A2037
:104830002A2A2A2A2A2A0A00323A4C696E656172AB
:104840004343440A00000000333A466C6173682019
:104850004D656D6F72790A004D656D6F727920310B
:104860003A25640A000000004D656D6F72792032B0
:104870003A25640A0000000080B50100C9B2032097
:10488000FDF7CFFE01BDC046C046C046C046FFF79B
:0448900077FF0000AE
:040000050000488728
:00000001FF
